{"contracts/LinkVista.sol":{"LinkVista":{"abi":[{"inputs":[],"stateMutability":"nonpayable","type":"constructor"},{"anonymous":false,"inputs":[{"indexed":false,"internalType":"address","name":"previousAdmin","type":"address"},{"indexed":false,"internalType":"address","name":"newAdmin","type":"address"}],"name":"AdminChanged","type":"event"},{"anonymous":false,"inputs":[{"indexed":true,"internalType":"address","name":"beacon","type":"address"}],"name":"BeaconUpgraded","type":"event"},{"anonymous":false,"inputs":[{"indexed":false,"internalType":"uint8","name":"version","type":"uint8"}],"name":"Initialized","type":"event"},{"anonymous":false,"inputs":[{"indexed":false,"internalType":"address","name":"from","type":"address"},{"indexed":false,"internalType":"address","name":"to","type":"address"},{"indexed":false,"internalType":"address","name":"fromToken","type":"address"},{"indexed":false,"internalType":"address","name":"toToken","type":"address"},{"indexed":false,"internalType":"uint256","name":"amountIn","type":"uint256"},{"indexed":false,"internalType":"uint256","name":"amountOut","type":"uint256"}],"name":"LimitOrderExecuted","type":"event"},{"anonymous":false,"inputs":[{"indexed":true,"internalType":"address","name":"previousOwner","type":"address"},{"indexed":true,"internalType":"address","name":"newOwner","type":"address"}],"name":"OwnershipTransferred","type":"event"},{"anonymous":false,"inputs":[{"indexed":false,"internalType":"address","name":"account","type":"address"}],"name":"Paused","type":"event"},{"anonymous":false,"inputs":[{"indexed":true,"internalType":"bytes32","name":"role","type":"bytes32"},{"indexed":true,"internalType":"bytes32","name":"previousAdminRole","type":"bytes32"},{"indexed":true,"internalType":"bytes32","name":"newAdminRole","type":"bytes32"}],"name":"RoleAdminChanged","type":"event"},{"anonymous":false,"inputs":[{"indexed":true,"internalType":"bytes32","name":"role","type":"bytes32"},{"indexed":true,"internalType":"address","name":"account","type":"address"},{"indexed":true,"internalType":"address","name":"sender","type":"address"}],"name":"RoleGranted","type":"event"},{"anonymous":false,"inputs":[{"indexed":true,"internalType":"bytes32","name":"role","type":"bytes32"},{"indexed":true,"internalType":"address","name":"account","type":"address"},{"indexed":true,"internalType":"address","name":"sender","type":"address"}],"name":"RoleRevoked","type":"event"},{"anonymous":false,"inputs":[{"indexed":false,"internalType":"address","name":"account","type":"address"}],"name":"Unpaused","type":"event"},{"anonymous":false,"inputs":[{"indexed":true,"internalType":"address","name":"implementation","type":"address"}],"name":"Upgraded","type":"event"},{"inputs":[],"name":"DEFAULT_ADMIN_ROLE","outputs":[{"internalType":"bytes32","name":"","type":"bytes32"}],"stateMutability":"view","type":"function"},{"inputs":[],"name":"PAUSER_ROLE","outputs":[{"internalType":"bytes32","name":"","type":"bytes32"}],"stateMutability":"view","type":"function"},{"inputs":[],"name":"POOL_FEE","outputs":[{"internalType":"uint24","name":"","type":"uint24"}],"stateMutability":"view","type":"function"},{"inputs":[],"name":"UNISWAP_UNIVERSAL_ROUTER","outputs":[{"internalType":"address","name":"","type":"address"}],"stateMutability":"view","type":"function"},{"inputs":[],"name":"UNISWAP_V3_ROUTER","outputs":[{"internalType":"address","name":"","type":"address"}],"stateMutability":"view","type":"function"},{"inputs":[],"name":"UPGRADER_ROLE","outputs":[{"internalType":"bytes32","name":"","type":"bytes32"}],"stateMutability":"view","type":"function"},{"inputs":[],"name":"WETH","outputs":[{"internalType":"address","name":"","type":"address"}],"stateMutability":"view","type":"function"},{"inputs":[{"internalType":"uint256","name":"","type":"uint256"}],"name":"activeLimitOrders","outputs":[{"internalType":"uint256","name":"","type":"uint256"}],"stateMutability":"view","type":"function"},{"inputs":[{"internalType":"uint256","name":"_orderId","type":"uint256"}],"name":"cancelLimitOrder","outputs":[],"stateMutability":"nonpayable","type":"function"},{"inputs":[{"internalType":"address","name":"_from","type":"address"},{"internalType":"address","name":"_to","type":"address"},{"internalType":"uint256","name":"_amount","type":"uint256"},{"internalType":"int256","name":"_price","type":"int256"},{"internalType":"address","name":"_fromToken","type":"address"},{"internalType":"address","name":"_toToken","type":"address"},{"internalType":"uint256","name":"_toChain","type":"uint256"}],"name":"createLimitOrder","outputs":[],"stateMutability":"nonpayable","type":"function"},{"inputs":[],"name":"defaultGasLimit","outputs":[{"internalType":"uint256","name":"","type":"uint256"}],"stateMutability":"view","type":"function"},{"inputs":[],"name":"dummyExecutionActivated","outputs":[{"internalType":"bool","name":"","type":"bool"}],"stateMutability":"view","type":"function"},{"inputs":[],"name":"dummyExecutionPrice","outputs":[{"internalType":"int256","name":"","type":"int256"}],"stateMutability":"view","type":"function"},{"inputs":[{"internalType":"uint256","name":"_orderId","type":"uint256"}],"name":"executeLimitOrder","outputs":[],"stateMutability":"payable","type":"function"},{"inputs":[],"name":"getActiveLimitsOrders","outputs":[{"internalType":"uint256[]","name":"","type":"uint256[]"}],"stateMutability":"view","type":"function"},{"inputs":[{"internalType":"address","name":"_fromToken","type":"address"},{"internalType":"address","name":"_toToken","type":"address"}],"name":"getCurrentPrice","outputs":[{"internalType":"int256","name":"","type":"int256"}],"stateMutability":"view","type":"function"},{"inputs":[{"internalType":"bytes32","name":"role","type":"bytes32"}],"name":"getRoleAdmin","outputs":[{"internalType":"bytes32","name":"","type":"bytes32"}],"stateMutability":"view","type":"function"},{"inputs":[{"internalType":"address","name":"_user","type":"address"}],"name":"getUserSavings","outputs":[{"internalType":"uint256[]","name":"","type":"uint256[]"}],"stateMutability":"view","type":"function"},{"inputs":[{"internalType":"bytes32","name":"role","type":"bytes32"},{"internalType":"address","name":"account","type":"address"}],"name":"grantRole","outputs":[],"stateMutability":"nonpayable","type":"function"},{"inputs":[{"internalType":"bytes32","name":"role","type":"bytes32"},{"internalType":"address","name":"account","type":"address"}],"name":"hasRole","outputs":[{"internalType":"bool","name":"","type":"bool"}],"stateMutability":"view","type":"function"},{"inputs":[{"internalType":"uint256","name":"","type":"uint256"}],"name":"inactiveLimitOrders","outputs":[{"internalType":"uint256","name":"","type":"uint256"}],"stateMutability":"view","type":"function"},{"inputs":[{"internalType":"address","name":"defaultAdmin","type":"address"},{"internalType":"address","name":"swapRouterAddress","type":"address"},{"internalType":"address","name":"universalRouterAddress","type":"address"},{"internalType":"address","name":"wethAddress","type":"address"},{"internalType":"uint24","name":"poolFee","type":"uint24"}],"name":"initialize","outputs":[],"stateMutability":"nonpayable","type":"function"},{"inputs":[],"name":"limitOrderCounter","outputs":[{"internalType":"uint256","name":"","type":"uint256"}],"stateMutability":"view","type":"function"},{"inputs":[{"internalType":"uint256","name":"","type":"uint256"}],"name":"limitOrderExecuted","outputs":[{"internalType":"bool","name":"","type":"bool"}],"stateMutability":"view","type":"function"},{"inputs":[{"internalType":"uint256","name":"","type":"uint256"}],"name":"limitOrders","outputs":[{"internalType":"uint256","name":"orderId","type":"uint256"},{"internalType":"address","name":"from","type":"address"},{"internalType":"address","name":"to","type":"address"},{"internalType":"address","name":"fromToken","type":"address"},{"internalType":"address","name":"toToken","type":"address"},{"internalType":"uint256","name":"amount","type":"uint256"},{"internalType":"int256","name":"price","type":"int256"},{"internalType":"uint256","name":"toChain","type":"uint256"}],"stateMutability":"view","type":"function"},{"inputs":[],"name":"owner","outputs":[{"internalType":"address","name":"","type":"address"}],"stateMutability":"view","type":"function"},{"inputs":[],"name":"pause","outputs":[],"stateMutability":"nonpayable","type":"function"},{"inputs":[],"name":"paused","outputs":[{"internalType":"bool","name":"","type":"bool"}],"stateMutability":"view","type":"function"},{"inputs":[],"name":"proxiableUUID","outputs":[{"internalType":"bytes32","name":"","type":"bytes32"}],"stateMutability":"view","type":"function"},{"inputs":[],"name":"renounceOwnership","outputs":[],"stateMutability":"nonpayable","type":"function"},{"inputs":[{"internalType":"bytes32","name":"role","type":"bytes32"},{"internalType":"address","name":"account","type":"address"}],"name":"renounceRole","outputs":[],"stateMutability":"nonpayable","type":"function"},{"inputs":[],"name":"resetActiveOrders","outputs":[],"stateMutability":"nonpayable","type":"function"},{"inputs":[{"internalType":"bytes32","name":"role","type":"bytes32"},{"internalType":"address","name":"account","type":"address"}],"name":"revokeRole","outputs":[],"stateMutability":"nonpayable","type":"function"},{"inputs":[{"internalType":"address","name":"_despositor","type":"address"},{"internalType":"address","name":"_tokenAddress","type":"address"},{"internalType":"uint256","name":"_amount","type":"uint256"},{"internalType":"uint256","name":"_deadline","type":"uint256"}],"name":"saveWealth","outputs":[],"stateMutability":"payable","type":"function"},{"inputs":[{"internalType":"uint256","name":"","type":"uint256"}],"name":"savings","outputs":[{"internalType":"uint256","name":"id","type":"uint256"},{"internalType":"address","name":"depositor","type":"address"},{"internalType":"address","name":"token","type":"address"},{"internalType":"uint256","name":"amount","type":"uint256"},{"internalType":"uint256","name":"deadline","type":"uint256"}],"stateMutability":"view","type":"function"},{"inputs":[],"name":"savingsCounter","outputs":[{"internalType":"uint256","name":"","type":"uint256"}],"stateMutability":"view","type":"function"},{"inputs":[{"internalType":"uint256","name":"_gasLimit","type":"uint256"}],"name":"setDefaultGasLimit","outputs":[],"stateMutability":"nonpayable","type":"function"},{"inputs":[{"internalType":"bool","name":"_activated","type":"bool"}],"name":"setDummyExecutionActivated","outputs":[],"stateMutability":"nonpayable","type":"function"},{"inputs":[{"internalType":"int256","name":"_price","type":"int256"}],"name":"setDummyExecutionPrice","outputs":[],"stateMutability":"nonpayable","type":"function"},{"inputs":[{"internalType":"uint24","name":"_fee","type":"uint24"}],"name":"setPoolFee","outputs":[],"stateMutability":"nonpayable","type":"function"},{"inputs":[{"internalType":"address","name":"_router","type":"address"}],"name":"setUniswapUniversalRouter","outputs":[],"stateMutability":"nonpayable","type":"function"},{"inputs":[{"internalType":"address","name":"_router","type":"address"}],"name":"setUniswapV3Router","outputs":[],"stateMutability":"nonpayable","type":"function"},{"inputs":[{"internalType":"address","name":"_weth","type":"address"}],"name":"setWETH","outputs":[],"stateMutability":"nonpayable","type":"function"},{"inputs":[{"internalType":"bytes4","name":"interfaceId","type":"bytes4"}],"name":"supportsInterface","outputs":[{"internalType":"bool","name":"","type":"bool"}],"stateMutability":"view","type":"function"},{"inputs":[],"name":"totalActiveLimitOrders","outputs":[{"internalType":"uint256","name":"","type":"uint256"}],"stateMutability":"view","type":"function"},{"inputs":[{"internalType":"address","name":"newOwner","type":"address"}],"name":"transferOwnership","outputs":[],"stateMutability":"nonpayable","type":"function"},{"inputs":[],"name":"unpause","outputs":[],"stateMutability":"nonpayable","type":"function"},{"inputs":[{"internalType":"address","name":"newImplementation","type":"address"}],"name":"upgradeTo","outputs":[],"stateMutability":"nonpayable","type":"function"},{"inputs":[{"internalType":"address","name":"newImplementation","type":"address"},{"internalType":"bytes","name":"data","type":"bytes"}],"name":"upgradeToAndCall","outputs":[],"stateMutability":"payable","type":"function"},{"inputs":[{"internalType":"address","name":"","type":"address"},{"internalType":"uint256","name":"","type":"uint256"}],"name":"usersSavings","outputs":[{"internalType":"uint256","name":"","type":"uint256"}],"stateMutability":"view","type":"function"},{"inputs":[{"internalType":"uint256","name":"_id","type":"uint256"}],"name":"withdrawWealth","outputs":[],"stateMutability":"nonpayable","type":"function"},{"stateMutability":"payable","type":"receive"}],"devdoc":{"events":{"AdminChanged(address,address)":{"details":"Emitted when the admin account has changed."},"BeaconUpgraded(address)":{"details":"Emitted when the beacon is changed."},"Initialized(uint8)":{"details":"Triggered when the contract has been initialized or reinitialized."},"Paused(address)":{"details":"Emitted when the pause is triggered by `account`."},"RoleAdminChanged(bytes32,bytes32,bytes32)":{"details":"Emitted when `newAdminRole` is set as ``role``'s admin role, replacing `previousAdminRole` `DEFAULT_ADMIN_ROLE` is the starting admin for all roles, despite {RoleAdminChanged} not being emitted signaling this. _Available since v3.1._"},"RoleGranted(bytes32,address,address)":{"details":"Emitted when `account` is granted `role`. `sender` is the account that originated the contract call, an admin role bearer except when using {AccessControl-_setupRole}."},"RoleRevoked(bytes32,address,address)":{"details":"Emitted when `account` is revoked `role`. `sender` is the account that originated the contract call:   - if using `revokeRole`, it is the admin role bearer   - if using `renounceRole`, it is the role bearer (i.e. `account`)"},"Unpaused(address)":{"details":"Emitted when the pause is lifted by `account`."},"Upgraded(address)":{"details":"Emitted when the implementation is upgraded."}},"kind":"dev","methods":{"constructor":{"custom:oz-upgrades-unsafe-allow":"constructor"},"getRoleAdmin(bytes32)":{"details":"Returns the admin role that controls `role`. See {grantRole} and {revokeRole}. To change a role's admin, use {_setRoleAdmin}."},"grantRole(bytes32,address)":{"details":"Grants `role` to `account`. If `account` had not been already granted `role`, emits a {RoleGranted} event. Requirements: - the caller must have ``role``'s admin role. May emit a {RoleGranted} event."},"hasRole(bytes32,address)":{"details":"Returns `true` if `account` has been granted `role`."},"owner()":{"details":"Returns the address of the current owner."},"paused()":{"details":"Returns true if the contract is paused, and false otherwise."},"proxiableUUID()":{"details":"Implementation of the ERC1822 {proxiableUUID} function. This returns the storage slot used by the implementation. It is used to validate the implementation's compatibility when performing an upgrade. IMPORTANT: A proxy pointing at a proxiable contract should not be considered proxiable itself, because this risks bricking a proxy that upgrades to it, by delegating to itself until out of gas. Thus it is critical that this function revert if invoked through a proxy. This is guaranteed by the `notDelegated` modifier."},"renounceOwnership()":{"details":"Leaves the contract without owner. It will not be possible to call `onlyOwner` functions. Can only be called by the current owner. NOTE: Renouncing ownership will leave the contract without an owner, thereby disabling any functionality that is only available to the owner."},"renounceRole(bytes32,address)":{"details":"Revokes `role` from the calling account. Roles are often managed via {grantRole} and {revokeRole}: this function's purpose is to provide a mechanism for accounts to lose their privileges if they are compromised (such as when a trusted device is misplaced). If the calling account had been revoked `role`, emits a {RoleRevoked} event. Requirements: - the caller must be `account`. May emit a {RoleRevoked} event."},"revokeRole(bytes32,address)":{"details":"Revokes `role` from `account`. If `account` had been granted `role`, emits a {RoleRevoked} event. Requirements: - the caller must have ``role``'s admin role. May emit a {RoleRevoked} event."},"supportsInterface(bytes4)":{"details":"See {IERC165-supportsInterface}."},"transferOwnership(address)":{"details":"Transfers ownership of the contract to a new account (`newOwner`). Can only be called by the current owner."},"upgradeTo(address)":{"custom:oz-upgrades-unsafe-allow-reachable":"delegatecall","details":"Upgrade the implementation of the proxy to `newImplementation`. Calls {_authorizeUpgrade}. Emits an {Upgraded} event."},"upgradeToAndCall(address,bytes)":{"custom:oz-upgrades-unsafe-allow-reachable":"delegatecall","details":"Upgrade the implementation of the proxy to `newImplementation`, and subsequently execute the function call encoded in `data`. Calls {_authorizeUpgrade}. Emits an {Upgraded} event."}},"version":1},"evm":{"bytecode":{"linkReferences":{},"object":"60a080604052346100dd57306080526000549060ff8260081c1661008b575060ff80821603610050575b60405161322f9081620000e3823960805181818161154f0152818161167b0152611ad60152f35b60ff90811916176000557f7f26b83ff96e1f2b6a682f133852f6798a09c465da95921460cefb3847402498602060405160ff8152a138610029565b62461bcd60e51b815260206004820152602760248201527f496e697469616c697a61626c653a20636f6e747261637420697320696e697469604482015266616c697a696e6760c81b6064820152608490fd5b600080fdfe608080604052600436101561001d575b50361561001b57600080fd5b005b60009060e08235811c91826301ffc9a714612413575081630e8eec7b146123ce5781630f26775d1461239e57816310a37f49146122905781631fa746f814611efa578163248a9ca314611ecd5781632621baf914611e6b5781632f2ff15d14611dce57816336568abe14611d3b5781633659cfe614611ab15781633ad061d114611a3a5781633f4ba83a146119a557816341c64a2f1461197b5781634bb2497d146119365781634c286e4a146118fc5781634f1ef2861461160057816352d1902d1461153c5781635b769f3c146114f75781635c975abb146114d457816361c90153146114a857816362ed40971461142f578163671801f614611410578163715018a6146113b357816373dd250c146113655781638456cb59146112d1578163892df7a3146112ad5781638da5cb5b1461128457816391d148541461123b57816395368d2e1461121c578163a217fddf14611200578163a3e2b49514611177578163a5cdc8fc14610ffe578163a8503aee14610e14578163aabcd11714610df5578163ad5c464814610dcb578163bf700f1c14610bdb578163c7219460146105e357508063cfcc6369146105c4578063d547741f14610586578063db16a55514610550578063dd1b9c4a14610529578063e32bb67b14610505578063e63ab1e9146104ca578063eec793e3146104a6578063f2fde38b14610415578063f72c0d8b146103da578063f80a205714610352578063f851b69714610328578063f961b9c2146102d1578063faaeeb0b146102b25763ff9905bd0361000f57346102af5760203660031901126102af5760043561016880548210156102ab57602092506000527f8077777ae4769de06cbfd1c0b8b1f653b51ec156d91a9aca16a4102f19e03d9e0154604051908152f35b8280fd5b80fd5b50346102af57806003193601126102af57602061016d54604051908152f35b50346102af5760403660031901126102af576102eb612468565b6001600160a01b0316815261016b60205260408120805460243592908310156102af57602061031a848461261e565b90546040519160031b1c8152f35b50346102af57806003193601126102af57610162546040516001600160a01b039091168152602090f35b50346102af576020806003193601126103d6576001600160a01b03610375612468565b16825261016b815260408220916040518092808554928381520194835280832092905b8282106103bf576103bb856103af81890382612593565b60405191829182612499565b0390f35b835486529485019460019384019390910190610398565b5080fd5b50346102af57806003193601126102af5760206040517f189ab7a9244df0848122154315af71fe140f3db0fe014031783b0946b8c9d2e38152f35b50346102af5760203660031901126102af5761042f612468565b610437612b48565b6001600160a01b038116156104525761044f90612ba0565b80f35b60405162461bcd60e51b815260206004820152602660248201527f4f776e61626c653a206e6577206f776e657220697320746865207a65726f206160448201526564647265737360d01b6064820152608490fd5b50346102af57806003193601126102af57602060ff61016554166040519015158152f35b50346102af57806003193601126102af5760206040517f65d7a28e3265b37a6474929f336521b332c1681b933f6cb9f3376673440d862a8152f35b50346102af5760203660031901126102af5761051f612b48565b60043561015f5580f35b50346102af57806003193601126102af57602062ffffff6101635460a01c16604051908152f35b50346102af5760403660031901126102af5761056a612468565b50610573612483565b50602061057e612f51565b604051908152f35b50346102af5760403660031901126102af5761044f6004356105a6612483565b9080845260976020526105bf600160408620015461298a565b612ad2565b50346102af57806003193601126102af57602061016954604051908152f35b8260203660031901126102af57600435815261016660205260408120916040519261060d84612506565b8054845260018101546001600160a01b0390811660208601526002820154811660408601526003820154811660608601526004820154166080850152600581015460a0850152600681015460c0850181905260079091015482850152610671612f51565b12610ba657600435825261016c8060205261069360ff60408520541615612ff2565b6004358352602090815260408320805460ff19166001179055830151606084015160a08501516106d39290916001600160a01b03908116913091166130fc565b60a083015115610b6157606083015160808401516001600160a01b03908116911614610b105782015115610acb5760408201516060830151608084015160a085015161016254929390926001600160a01b03918216929161073b9185918781169116306130fc565b8115610a8f576040519361074e8561255b565b6001855260203681870137845115610a7b576107ee92916107da918760208801536101635491604051926001600160601b0319809360601b16602085015262ffffff60e81b9060481b16603484015260601b166037820152602b81526107b38161253f565b6040519485936020850152604084015286606084015260a0608084015260c0830190612aad565b8560a083015203601f198101835282612593565b604051906107fb8261255b565b60018252835b60208110610a6a5750610813826130d7565b5261081d816130d7565b50610162546001600160a01b031690813b15610a665791839161085b936040519485936324856bc360e01b8552604060048601526044850190612aad565b600319848203016024850152815180825260208201916020808360051b83010194019287915b838310610a335750505050508383809203925af18015610a28576109fc575b5090815b61016754808210156109d1576108b9826125d1565b90549060031b1c8351146108d657506108d19061303e565b6108a4565b60001981019081116109bd579161093c60c0926109236109167f328b3edb0769b34798cf3ac39e32115f75f3425e045a14f6c8e7b33becfc01a6966125d1565b90549060031b1c916125d1565b90919082549060031b91821b91600019901b1916179055565b61094461304d565b61016d6109518154612de5565b90555b61095e815161308f565b60018060a01b036020820151169060018060a01b036040820151169060018060a01b0360608201511660a0600180821b036080840151169201519260405194855260208501526040840152606083015260808201528360a0820152a180f35b634e487b7160e01b84526011600452602484fd5b505060c07f328b3edb0769b34798cf3ac39e32115f75f3425e045a14f6c8e7b33becfc01a691610954565b67ffffffffffffffff8111610a1457604052826108a0565b634e487b7160e01b82526041600452602482fd5b6040513d84823e3d90fd5b9295975092955092602080610a54600193601f198682030187528951612aad565b97019301930187959389979592610881565b8380fd5b806060602080938601015201610801565b634e487b7160e01b86526032600452602486fd5b60405162461bcd60e51b8152602060048201526014602482015273149958d95a5d995c881b5d5cdd081899481cd95d60621b6044820152606490fd5b60405162461bcd60e51b815260206004820152601f60248201527f546f20636861696e206d7573742062652067726561746572207468616e2030006044820152606490fd5b60405162461bcd60e51b8152602060048201526024808201527f46726f6d20616e6420546f20746f6b656e73206d7573742062652064696666656044820152631c995b9d60e21b6064820152608490fd5b60405162461bcd60e51b815260206004820152601d60248201527f416d6f756e74206d7573742062652067726561746572207468616e20300000006044820152606490fd5b60405162461bcd60e51b815260206004820152600d60248201526c14149250d157d393d517d35155609a1b6044820152606490fd5b8260803660031901126102af57610bf0612468565b90610bf9612483565b6001600160a01b039081811690604435908215610d7d57604051636eb1769f60e11b81526001600160a01b0387166004820152306024820152602081604481875afa908115610d72579083918791610d38575b5091610c5d82610c64941015612f6b565b30886130fc565b61016991610c72835461303e565b9586845560405194610c83866124d4565b8786528060208701921694858352604087019384526060870194855260808701956064358752885261016b60205260408820805490600160401b821015610d2457996109238260049a9b9c6001610cdc9501815561261e565b54885261016a60205260408820965187558060018801925116916001600160601b0360a01b928382541617905560028701925116908254161790555160038401555191015580f35b634e487b7160e01b8a52604160045260248afd5b9150506020813d8211610d6a575b81610d5360209383612593565b81010312610d6657518290610c5d610c4c565b8580fd5b3d9150610d46565b6040513d88823e3d90fd5b5080341015610c645760405162461bcd60e51b815260206004820152601b60248201527f496e76616c696420616d6f756e74206173206d73672e76616c756500000000006044820152606490fd5b82346102af57806003193601126102af57610163546040516001600160a01b039091168152602090f35b82346102af57806003193601126102af57602061016454604051908152f35b9050346103d657806003193601126103d657610e2e612468565b90610e37612483565b9183604435926084359360018060a01b0393848616809603610a665760a43590858216809203610ffa57604051636eb1769f60e11b81526001600160a01b03821660048201523060248201526020979096908888604481845afa978815610fef578798610fba575b50610eae856007991015612f6b565b610160998a549a610ebe8c61303e565b90556101666040519a610ed08c612506565b8c8c5284818d01961686528460408d019316835260608c0193845260808c0196875260a08c019788528c60c08d01996064358b528d019a60c4358c52525260408c2099518a558260018b01945116936001600160601b0360a01b94858254161790558260028b01915116848254161790558160038a0191511683825416179055600488019251169082541617905551600585015551600684015551910155610167805490600160401b821015610fa65781610923916001610f9495940190556125d1565b61016d610fa1815461303e565b905580f35b634e487b7160e01b84526041600452602484fd5b97508888813d8311610fe8575b610fd18183612593565b81010312610fe457965196610eae610e9f565b8680fd5b503d610fc7565b6040513d89823e3d90fd5b8480fd5b9050346103d65760203660031901126103d6576004358083526101666020526040832061109e6040519361103185612506565b8254855260018060a01b03906001958287860154169182602083015283600287015416604083015260076003968588820154166060850152856004820154166080850152600581015460a0850152600681015460c085015201549101523314908115611169575b50612fb7565b81845261016c806020526110b960ff60408720541615612ff2565b82855260205260408420805460ff19168417905583835b6110df575b8461044f8461308f565b610167548082101561116357836110f5836125d1565b905490851b1c14611110575061110a9061303e565b836110d0565b92935091600019810190811161114f57916109236111409261113561044f96956125d1565b9054911b1c916125d1565b61114861304d565b38806110d5565b634e487b7160e01b85526011600452602485fd5b506110d5565b905060c95416331438611098565b9050346103d65760203660031901126103d65760406101009260043581526101666020522080549160018060a01b0391826001820154169280600283015416908060038401541690600484015416906005840154926007600686015495015496604051988952602089015260408801526060870152608086015260a085015260c0840152820152f35b82346102af57806003193601126102af57602090604051908152f35b82346102af57806003193601126102af57602061015f54604051908152f35b82346102af5760403660031901126102af5760ff604060209261125c612483565b6004358252609785528282206001600160a01b03909116825284522054604051911615158152f35b82346102af57806003193601126102af5760c9546040516001600160a01b039091168152602090f35b82346102af5760203660031901126102af576112c7612b48565b6004356101645580f35b82346102af57806003193601126102af576112ea612850565b60335460ff811661132d5760019060ff1916176033557f62e78cea01bee320cd4e420270b5ea74000d11b0c9f74754ebdbfc544b05a2586020604051338152a180f35b60405162461bcd60e51b815260206004820152601060248201526f14185d5cd8589b194e881c185d5cd95960821b6044820152606490fd5b82346102af5760203660031901126102af5760043562ffffff811681036103d65761138e612b48565b610163805462ffffff60a01b191660a09290921b62ffffff60a01b1691909117905580f35b82346102af57806003193601126102af576113cc612b48565b60c980546001600160a01b0319811690915581906001600160a01b03167f8be0079c531659141344cd1fd0a4f28419497f9722a3daafe3b4186f6b6457e08280a380f35b82346102af57806003193601126102af57602061016054604051908152f35b82346102af57806003193601126102af57611448612b48565b611453604051612523565b61016781815491558061146a575b508061016d5580f35b7f025f925b23c02f7114773957b1a876f2af957c14a29118dc622648c445020dcf908101905b81811061149d5750611461565b828155600101611490565b82346102af5760203660031901126102af5760043590610167548210156102af57602061031a836125d1565b82346102af57806003193601126102af57602060ff603354166040519015158152f35b82346102af5760203660031901126102af57611511612468565b611519612b48565b61016380546001600160a01b0319166001600160a01b0390921691909117905580f35b82346102af57806003193601126102af577f00000000000000000000000000000000000000000000000000000000000000006001600160a01b031630036115955760206040516000805160206131da8339815191528152f35b60405162461bcd60e51b815260206004820152603860248201527f555550535570677261646561626c653a206d757374206e6f742062652063616c60448201527f6c6564207468726f7567682064656c656761746563616c6c00000000000000006064820152608490fd5b8260403660031901126102af57611615612468565b6024359067ffffffffffffffff82116102ab57366023830112156102ab578160040135611641816125b5565b61164e6040519182612593565b818152846020948583019336602482840101116102ab578060248893018637830101526001600160a01b037f00000000000000000000000000000000000000000000000000000000000000008116906116a930831415612be9565b6116c66000805160206131da833981519152928284541614612c4a565b6116ce612636565b7f4910fdfa16fed3260ed0e7147f7cc6da11a60208b5b9406d12a635614ffd91435460ff1615611706575050505061044f9150612cab565b8492939416906040516352d1902d60e01b81528681600481865afa8891816118c9575b5061178a5760405162461bcd60e51b815260048101889052602e60248201527f45524331393637557067726164653a206e657720696d706c656d656e7461746960448201526d6f6e206973206e6f74205555505360901b6064820152608490fd5b95939495036118725761179c82612cab565b7fbc7cd75a20ee27fd9adebab32041f755214dbc6bffa90cc0225b39da2e5c2d3b8680a28483511580159061186a575b6117d9575b505050505080f35b8061185695604051956117eb8761253f565b602787527f416464726573733a206c6f772d6c6576656c2064656c65676174652063616c6c86880152660819985a5b195960ca1b60408801525190845af4903d15611861573d61183a816125b5565b906118486040519283612593565b81528681943d92013e612d3b565b5081808080846117d1565b60609250612d3b565b5060016117cc565b60405162461bcd60e51b815260048101849052602960248201527f45524331393637557067726164653a20756e737570706f727465642070726f786044820152681a58589b195555525160ba1b6064820152608490fd5b9091508781813d83116118f5575b6118e18183612593565b810103126118f157519089611729565b8880fd5b503d6118d7565b82346102af5760203660031901126102af576004358015158091036103d657611923612b48565b6101659060ff8019835416911617905580f35b82346102af5760203660031901126102af57611950612468565b611958612b48565b61016280546001600160a01b0319166001600160a01b0390921691909117905580f35b82346102af57806003193601126102af57610161546040516001600160a01b039091168152602090f35b82346102af57806003193601126102af576119be612850565b60335460ff8116156119fe5760ff19166033557f5db9ee0a495bf2e6ff9c91a7834c1ba4fdd244a5e8aa4e537bd38aeae4b073aa6020604051338152a180f35b60405162461bcd60e51b815260206004820152601460248201527314185d5cd8589b194e881b9bdd081c185d5cd95960621b6044820152606490fd5b82346102af57806003193601126102af5760405161016780548083529083526020808301937f025f925b23c02f7114773957b1a876f2af957c14a29118dc622648c445020dcf92915b828210611a9a576103bb856103af81890382612593565b835486529485019460019384019390910190611a83565b82346102af576020806003193601126103d657611acc612468565b6001600160a01b037f00000000000000000000000000000000000000000000000000000000000000008116611b0330821415612be9565b611b206000805160206131da833981519152918383541614612c4a565b611b28612636565b60405191611b3583612523565b8583527f4910fdfa16fed3260ed0e7147f7cc6da11a60208b5b9406d12a635614ffd91435460ff1615611b6f5750505061044f9150612cab565b8316906040516352d1902d60e01b81528581600481865afa879181611d08575b50611bf05760405162461bcd60e51b815260048101879052602e60248201527f45524331393637557067726164653a206e657720696d706c656d656e7461746960448201526d6f6e206973206e6f74205555505360901b6064820152608490fd5b9492939403611cb157611c0284612cab565b7fbc7cd75a20ee27fd9adebab32041f755214dbc6bffa90cc0225b39da2e5c2d3b8580a2815115801590611caa575b611c3c575b50505080f35b611ca192848060405194611c4f8661253f565b602786527f416464726573733a206c6f772d6c6576656c2064656c65676174652063616c6c85870152660819985a5b195960ca1b60408701528481519101845af4903d15611861573d61183a816125b5565b50818080611c36565b5083611c31565b60405162461bcd60e51b815260048101839052602960248201527f45524331393637557067726164653a20756e737570706f727465642070726f786044820152681a58589b195555525160ba1b6064820152608490fd5b9091508681813d8311611d34575b611d208183612593565b81010312611d3057519088611b8f565b8780fd5b503d611d16565b82346102af5760403660031901126102af57611d55612483565b336001600160a01b03821603611d715761044f90600435612ad2565b60405162461bcd60e51b815260206004820152602f60248201527f416363657373436f6e74726f6c3a2063616e206f6e6c792072656e6f756e636560448201526e103937b632b9903337b91039b2b63360891b6064820152608490fd5b82346102af5760403660031901126102af57600435611deb612483565b8183526097602052611e03600160408520015461298a565b8183526097602052604083209060018060a01b03169081845260205260ff60408420541615611e30578280f35b81835260976020526040832081845260205260408320600160ff1982541617905533916000805160206131ba8339815191528480a481808280f35b82346102af5760203660031901126102af57604060a091600435815261016a60205220805490600180841b0390816001820154169160028201541660046003830154920154926040519485526020850152604084015260608301526080820152f35b82346102af5760203660031901126102af5760016040602092600435815260978452200154604051908152f35b82346102af5760a03660031901126102af57611f14612468565b611f1c612483565b6044356001600160a01b0381168103610a6657606435916001600160a01b0383168303610ffa5762ffffff6084351660843503610ffa5784549360ff8560081c161594858096612283575b801561226c575b156122105760ff1981166001178755856121ff575b50611fcb60ff875460081c16611f9881612ef1565b611fa181612ef1565b60ff1960335416603355611fb481612ef1565b611fbd81612ef1565b611fc681612ef1565b612ef1565b611fd433612ba0565b8580526097602081815260408089206001600160a01b038516808b52925288205490919060ff16156121c5575b7f65d7a28e3265b37a6474929f336521b332c1681b933f6cb9f3376673440d862a8089528160205260408920838a5260205260ff60408a2054161561218a575b507f189ab7a9244df0848122154315af71fe140f3db0fe014031783b0946b8c9d2e3908189528060205260408920838a5260205260ff60408a2054161561214f575b505061208d612b48565b156104525761209b90612ba0565b61016180546001600160a01b03199081166001600160a01b039384161790915561016280549091169282169290921790915561016380546001600160b81b031916929091169190911760843560a01b62ffffff60a01b1617905562030d4061015f55600a61016455610165805460ff191660011790556121185780f35b61ff001981541681557f7f26b83ff96e1f2b6a682f133852f6798a09c465da95921460cefb3847402498602060405160018152a180f35b8189526020526040882082895260205260408820600160ff198254161790558133916000805160206131ba8339815191528a80a48780612083565b8089528160205260408920838a5260205260408920600160ff198254161790558233916000805160206131ba8339815191528b80a488612041565b878052806020526040882082895260205260408820600160ff198254161790553382896000805160206131ba8339815191528180a4612001565b61ffff191661010117865586611f83565b60405162461bcd60e51b815260206004820152602e60248201527f496e697469616c697a61626c653a20636f6e747261637420697320616c72656160448201526d191e481a5b9a5d1a585b1a5e995960921b6064820152608490fd5b50303b158015611f6e5750600160ff821614611f6e565b50600160ff821610611f67565b82346102af5760203660031901126102af57600435815261016a60205260408120604051906122be826124d4565b8054825260018060a01b03918260018301541692602082019184835261230b8260028601541695604083019687526080600460038801549760608601988952015493019283523314612fb7565b51421115612362578085945116918215600014612352575050508180809251818115612349575b3390f11561233d5780f35b604051903d90823e3d90fd5b506108fc612332565b61044f94505116915191306130fc565b60405162461bcd60e51b8152602060048201526014602482015273111958591b1a5b99481b9bdd081c995858da195960621b6044820152606490fd5b82346102af5760203660031901126102af5760ff6040602092600435815261016c84522054166040519015158152f35b82346102af5760203660031901126102af576123e8612468565b6123f0612b48565b61016180546001600160a01b0319166001600160a01b0390921691909117905580f35b8390346103d65760203660031901126103d65760043563ffffffff60e01b81168091036102ab5760209250637965db0b60e01b8114908115612457575b5015158152f35b6301ffc9a760e01b14905083612450565b600435906001600160a01b038216820361247e57565b600080fd5b602435906001600160a01b038216820361247e57565b6020908160408183019282815285518094520193019160005b8281106124c0575050505090565b8351855293810193928101926001016124b2565b60a0810190811067ffffffffffffffff8211176124f057604052565b634e487b7160e01b600052604160045260246000fd5b610100810190811067ffffffffffffffff8211176124f057604052565b6020810190811067ffffffffffffffff8211176124f057604052565b6060810190811067ffffffffffffffff8211176124f057604052565b6040810190811067ffffffffffffffff8211176124f057604052565b6080810190811067ffffffffffffffff8211176124f057604052565b90601f8019910116810190811067ffffffffffffffff8211176124f057604052565b67ffffffffffffffff81116124f057601f01601f191660200190565b6101678054821015612608576000527f025f925b23c02f7114773957b1a876f2af957c14a29118dc622648c445020dcf0190600090565b634e487b7160e01b600052603260045260246000fd5b80548210156126085760005260206000200190600090565b3360009081527f75ef4a815c49ed748e152e890233829acb868956b95bda132b61406c3628008c602090815260408083205490927f189ab7a9244df0848122154315af71fe140f3db0fe014031783b0946b8c9d2e39160ff161561269a5750505050565b6126a333612e08565b918451906126b082612577565b6042825284820192606036853782511561283c576030845382516001908110156128285790607860218501536041915b8083116127ce5750505061278c57604861278893869361276c9361275d985198899376020b1b1b2b9b9a1b7b73a3937b61d1030b1b1b7bab73a1604d1b8a860152612734815180928c603789019101612a8a565b8401917001034b99036b4b9b9b4b733903937b6329607d1b603784015251809386840190612a8a565b01036028810187520185612593565b5192839262461bcd60e51b845260048401526024830190612aad565b0390fd5b60648486519062461bcd60e51b825280600483015260248201527f537472696e67733a20686578206c656e67746820696e73756666696369656e746044820152fd5b909192600f811660108110156128145761280d91906f181899199a1a9b1b9c1cb0b131b232b360811b901a6128038688612dd4565b5360041c93612de5565b91906126e0565b634e487b7160e01b84526032600452602484fd5b634e487b7160e01b82526032600452602482fd5b634e487b7160e01b81526032600452602490fd5b3360009081527f793844da0378ca0230b21a4013ef02cf55735b90b39c85241478ff94b5eceb28602090815260408083205490927f65d7a28e3265b37a6474929f336521b332c1681b933f6cb9f3376673440d862a9160ff16156128b45750505050565b6128bd33612e08565b918451906128ca82612577565b6042825284820192606036853782511561283c576030845382516001908110156128285790607860218501536041915b80831161294e5750505061278c57604861278893869361276c9361275d985198899376020b1b1b2b9b9a1b7b73a3937b61d1030b1b1b7bab73a1604d1b8a860152612734815180928c603789019101612a8a565b909192600f811660108110156128145761298391906f181899199a1a9b1b9c1cb0b131b232b360811b901a6128038688612dd4565b91906128fa565b60009080825260209060978252604092838120338252835260ff8482205416156129b45750505050565b6129bd33612e08565b918451906129ca82612577565b6042825284820192606036853782511561283c576030845382516001908110156128285790607860218501536041915b808311612a4e5750505061278c57604861278893869361276c9361275d985198899376020b1b1b2b9b9a1b7b73a3937b61d1030b1b1b7bab73a1604d1b8a860152612734815180928c603789019101612a8a565b909192600f8116601081101561281457612a8391906f181899199a1a9b1b9c1cb0b131b232b360811b901a6128038688612dd4565b91906129fa565b60005b838110612a9d5750506000910152565b8181015183820152602001612a8d565b90602091612ac681518092818552858086019101612a8a565b601f01601f1916010190565b906000918083526097602052604083209160018060a01b03169182845260205260ff604084205416612b0357505050565b8083526097602052604083208284526020526040832060ff1981541690557ff6391f5c32d9c69d2a47ea670b442974b53935d1edc7fd64eb21e047a839171b339380a4565b60c9546001600160a01b03163303612b5c57565b606460405162461bcd60e51b815260206004820152602060248201527f4f776e61626c653a2063616c6c6572206973206e6f7420746865206f776e65726044820152fd5b60c980546001600160a01b039283166001600160a01b0319821681179092559091167f8be0079c531659141344cd1fd0a4f28419497f9722a3daafe3b4186f6b6457e0600080a3565b15612bf057565b60405162461bcd60e51b815260206004820152602c60248201527f46756e6374696f6e206d7573742062652063616c6c6564207468726f7567682060448201526b19195b1959d85d1958d85b1b60a21b6064820152608490fd5b15612c5157565b60405162461bcd60e51b815260206004820152602c60248201527f46756e6374696f6e206d7573742062652063616c6c6564207468726f7567682060448201526b6163746976652070726f787960a01b6064820152608490fd5b803b15612ce0576000805160206131da83398151915280546001600160a01b0319166001600160a01b03909216919091179055565b60405162461bcd60e51b815260206004820152602d60248201527f455243313936373a206e657720696d706c656d656e746174696f6e206973206e60448201526c1bdd08184818dbdb9d1c9858dd609a1b6064820152608490fd5b91929015612d9d5750815115612d4f575090565b3b15612d585790565b60405162461bcd60e51b815260206004820152601d60248201527f416464726573733a2063616c6c20746f206e6f6e2d636f6e74726163740000006044820152606490fd5b825190915015612db05750805190602001fd5b60405162461bcd60e51b815260206004820152908190612788906024830190612aad565b908151811015612608570160200190565b8015612df2576000190190565b634e487b7160e01b600052601160045260246000fd5b60405190612e158261253f565b602a82526020820160403682378251156126085760309053815160019081101561260857607860218401536029905b808211612e98575050612e545790565b606460405162461bcd60e51b815260206004820152602060248201527f537472696e67733a20686578206c656e67746820696e73756666696369656e746044820152fd5b9091600f8116906010821015612edc57612ed6916f181899199a1a9b1b9c1cb0b131b232b360811b901a612ecc8587612dd4565b5360041c92612de5565b90612e44565b60246000634e487b7160e01b81526032600452fd5b15612ef857565b60405162461bcd60e51b815260206004820152602b60248201527f496e697469616c697a61626c653a20636f6e7472616374206973206e6f74206960448201526a6e697469616c697a696e6760a81b6064820152608490fd5b6101655460ff1615612f64576101645490565b6101645490565b15612f7257565b60405162461bcd60e51b815260206004820152601c60248201527f496e73756666696369656e7420746f6b656e20616c6c6f77616e6365000000006044820152606490fd5b15612fbe57565b60405162461bcd60e51b815260206004820152600c60248201526b24b73b30b634b2103ab9b2b960a11b6044820152606490fd5b15612ff957565b60405162461bcd60e51b815260206004820152601c60248201527f4c696d6974204f7264657220416c7265616479204578656375746564000000006044820152606490fd5b6000198114612df25760010190565b61016780549081156130795760001991820191613069836125d1565b909182549160031b1b1916905555565b634e487b7160e01b600052603160045260246000fd5b610168805490600160401b8210156124f05760018201808255821015612608576000527f8077777ae4769de06cbfd1c0b8b1f653b51ec156d91a9aca16a4102f19e03d9e0155565b8051156126085760200190565b9081602091031261247e5751801515810361247e5790565b6001600160a01b039290831630810361317d575082916000602094604493604051978896879563a9059cbb60e01b87521660048601526024850152165af18015613171576131475750565b6131679060203d811161316a575b61315f8183612593565b8101906130e4565b50565b503d613155565b6040513d6000823e3d90fd5b6000846064936020969760405198899788966323b872dd60e01b885260048801521660248601526044850152165af1801561317157613147575056fe2f8788117e7eff1d82e926ec794901d17c78024a50270940304540a733656f0d360894a13ba1a3210667c828492db98dca3e2076cc3735a920a3ca505d382bbca2646970667358221220363b6cfac716c2160d804dbe750ef4955218ef9e099385bca189a08bed3ae76164736f6c63430008130033","opcodes":"PUSH1 0xA0 DUP1 PUSH1 0x40 MSTORE CALLVALUE PUSH2 0xDD JUMPI ADDRESS PUSH1 0x80 MSTORE PUSH1 0x0 SLOAD SWAP1 PUSH1 0xFF DUP3 PUSH1 0x8 SHR AND PUSH2 0x8B JUMPI POP PUSH1 0xFF DUP1 DUP3 AND SUB PUSH2 0x50 JUMPI JUMPDEST PUSH1 0x40 MLOAD PUSH2 0x322F SWAP1 DUP2 PUSH3 0xE3 DUP3 CODECOPY PUSH1 0x80 MLOAD DUP2 DUP2 DUP2 PUSH2 0x154F ADD MSTORE DUP2 DUP2 PUSH2 0x167B ADD MSTORE PUSH2 0x1AD6 ADD MSTORE RETURN JUMPDEST PUSH1 0xFF SWAP1 DUP2 NOT AND OR PUSH1 0x0 SSTORE PUSH32 0x7F26B83FF96E1F2B6A682F133852F6798A09C465DA95921460CEFB3847402498 PUSH1 0x20 PUSH1 0x40 MLOAD PUSH1 0xFF DUP2 MSTORE LOG1 CODESIZE PUSH2 0x29 JUMP JUMPDEST PUSH3 0x461BCD PUSH1 0xE5 SHL DUP2 MSTORE PUSH1 0x20 PUSH1 0x4 DUP3 ADD MSTORE PUSH1 0x27 PUSH1 0x24 DUP3 ADD MSTORE PUSH32 0x496E697469616C697A61626C653A20636F6E747261637420697320696E697469 PUSH1 0x44 DUP3 ADD MSTORE PUSH7 0x616C697A696E67 PUSH1 0xC8 SHL PUSH1 0x64 DUP3 ADD MSTORE PUSH1 0x84 SWAP1 REVERT JUMPDEST PUSH1 0x0 DUP1 REVERT INVALID PUSH1 0x80 DUP1 PUSH1 0x40 MSTORE PUSH1 0x4 CALLDATASIZE LT ISZERO PUSH2 0x1D JUMPI JUMPDEST POP CALLDATASIZE ISZERO PUSH2 0x1B JUMPI PUSH1 0x0 DUP1 REVERT JUMPDEST STOP JUMPDEST PUSH1 0x0 SWAP1 PUSH1 0xE0 DUP3 CALLDATALOAD DUP2 SHR SWAP2 DUP3 PUSH4 0x1FFC9A7 EQ PUSH2 0x2413 JUMPI POP DUP2 PUSH4 0xE8EEC7B EQ PUSH2 0x23CE JUMPI DUP2 PUSH4 0xF26775D EQ PUSH2 0x239E JUMPI DUP2 PUSH4 0x10A37F49 EQ PUSH2 0x2290 JUMPI DUP2 PUSH4 0x1FA746F8 EQ PUSH2 0x1EFA JUMPI DUP2 PUSH4 0x248A9CA3 EQ PUSH2 0x1ECD JUMPI DUP2 PUSH4 0x2621BAF9 EQ PUSH2 0x1E6B JUMPI DUP2 PUSH4 0x2F2FF15D EQ PUSH2 0x1DCE JUMPI DUP2 PUSH4 0x36568ABE EQ PUSH2 0x1D3B JUMPI DUP2 PUSH4 0x3659CFE6 EQ PUSH2 0x1AB1 JUMPI DUP2 PUSH4 0x3AD061D1 EQ PUSH2 0x1A3A JUMPI DUP2 PUSH4 0x3F4BA83A EQ PUSH2 0x19A5 JUMPI DUP2 PUSH4 0x41C64A2F EQ PUSH2 0x197B JUMPI DUP2 PUSH4 0x4BB2497D EQ PUSH2 0x1936 JUMPI DUP2 PUSH4 0x4C286E4A EQ PUSH2 0x18FC JUMPI DUP2 PUSH4 0x4F1EF286 EQ PUSH2 0x1600 JUMPI DUP2 PUSH4 0x52D1902D EQ PUSH2 0x153C JUMPI DUP2 PUSH4 0x5B769F3C EQ PUSH2 0x14F7 JUMPI DUP2 PUSH4 0x5C975ABB EQ PUSH2 0x14D4 JUMPI DUP2 PUSH4 0x61C90153 EQ PUSH2 0x14A8 JUMPI DUP2 PUSH4 0x62ED4097 EQ PUSH2 0x142F JUMPI DUP2 PUSH4 0x671801F6 EQ PUSH2 0x1410 JUMPI DUP2 PUSH4 0x715018A6 EQ PUSH2 0x13B3 JUMPI DUP2 PUSH4 0x73DD250C EQ PUSH2 0x1365 JUMPI DUP2 PUSH4 0x8456CB59 EQ PUSH2 0x12D1 JUMPI DUP2 PUSH4 0x892DF7A3 EQ PUSH2 0x12AD JUMPI DUP2 PUSH4 0x8DA5CB5B EQ PUSH2 0x1284 JUMPI DUP2 PUSH4 0x91D14854 EQ PUSH2 0x123B JUMPI DUP2 PUSH4 0x95368D2E EQ PUSH2 0x121C JUMPI DUP2 PUSH4 0xA217FDDF EQ PUSH2 0x1200 JUMPI DUP2 PUSH4 0xA3E2B495 EQ PUSH2 0x1177 JUMPI DUP2 PUSH4 0xA5CDC8FC EQ PUSH2 0xFFE JUMPI DUP2 PUSH4 0xA8503AEE EQ PUSH2 0xE14 JUMPI DUP2 PUSH4 0xAABCD117 EQ PUSH2 0xDF5 JUMPI DUP2 PUSH4 0xAD5C4648 EQ PUSH2 0xDCB JUMPI DUP2 PUSH4 0xBF700F1C EQ PUSH2 0xBDB JUMPI DUP2 PUSH4 0xC7219460 EQ PUSH2 0x5E3 JUMPI POP DUP1 PUSH4 0xCFCC6369 EQ PUSH2 0x5C4 JUMPI DUP1 PUSH4 0xD547741F EQ PUSH2 0x586 JUMPI DUP1 PUSH4 0xDB16A555 EQ PUSH2 0x550 JUMPI DUP1 PUSH4 0xDD1B9C4A EQ PUSH2 0x529 JUMPI DUP1 PUSH4 0xE32BB67B EQ PUSH2 0x505 JUMPI DUP1 PUSH4 0xE63AB1E9 EQ PUSH2 0x4CA JUMPI DUP1 PUSH4 0xEEC793E3 EQ PUSH2 0x4A6 JUMPI DUP1 PUSH4 0xF2FDE38B EQ PUSH2 0x415 JUMPI DUP1 PUSH4 0xF72C0D8B EQ PUSH2 0x3DA JUMPI DUP1 PUSH4 0xF80A2057 EQ PUSH2 0x352 JUMPI DUP1 PUSH4 0xF851B697 EQ PUSH2 0x328 JUMPI DUP1 PUSH4 0xF961B9C2 EQ PUSH2 0x2D1 JUMPI DUP1 PUSH4 0xFAAEEB0B EQ PUSH2 0x2B2 JUMPI PUSH4 0xFF9905BD SUB PUSH2 0xF JUMPI CALLVALUE PUSH2 0x2AF JUMPI PUSH1 0x20 CALLDATASIZE PUSH1 0x3 NOT ADD SLT PUSH2 0x2AF JUMPI PUSH1 0x4 CALLDATALOAD PUSH2 0x168 DUP1 SLOAD DUP3 LT ISZERO PUSH2 0x2AB JUMPI PUSH1 0x20 SWAP3 POP PUSH1 0x0 MSTORE PUSH32 0x8077777AE4769DE06CBFD1C0B8B1F653B51EC156D91A9ACA16A4102F19E03D9E ADD SLOAD PUSH1 0x40 MLOAD SWAP1 DUP2 MSTORE RETURN JUMPDEST DUP3 DUP1 REVERT JUMPDEST DUP1 REVERT JUMPDEST POP CALLVALUE PUSH2 0x2AF JUMPI DUP1 PUSH1 0x3 NOT CALLDATASIZE ADD SLT PUSH2 0x2AF JUMPI PUSH1 0x20 PUSH2 0x16D SLOAD PUSH1 0x40 MLOAD SWAP1 DUP2 MSTORE RETURN JUMPDEST POP CALLVALUE PUSH2 0x2AF JUMPI PUSH1 0x40 CALLDATASIZE PUSH1 0x3 NOT ADD SLT PUSH2 0x2AF JUMPI PUSH2 0x2EB PUSH2 0x2468 JUMP JUMPDEST PUSH1 0x1 PUSH1 0x1 PUSH1 0xA0 SHL SUB AND DUP2 MSTORE PUSH2 0x16B PUSH1 0x20 MSTORE PUSH1 0x40 DUP2 KECCAK256 DUP1 SLOAD PUSH1 0x24 CALLDATALOAD SWAP3 SWAP1 DUP4 LT ISZERO PUSH2 0x2AF JUMPI PUSH1 0x20 PUSH2 0x31A DUP5 DUP5 PUSH2 0x261E JUMP JUMPDEST SWAP1 SLOAD PUSH1 0x40 MLOAD SWAP2 PUSH1 0x3 SHL SHR DUP2 MSTORE RETURN JUMPDEST POP CALLVALUE PUSH2 0x2AF JUMPI DUP1 PUSH1 0x3 NOT CALLDATASIZE ADD SLT PUSH2 0x2AF JUMPI PUSH2 0x162 SLOAD PUSH1 0x40 MLOAD PUSH1 0x1 PUSH1 0x1 PUSH1 0xA0 SHL SUB SWAP1 SWAP2 AND DUP2 MSTORE PUSH1 0x20 SWAP1 RETURN JUMPDEST POP CALLVALUE PUSH2 0x2AF JUMPI PUSH1 0x20 DUP1 PUSH1 0x3 NOT CALLDATASIZE ADD SLT PUSH2 0x3D6 JUMPI PUSH1 0x1 PUSH1 0x1 PUSH1 0xA0 SHL SUB PUSH2 0x375 PUSH2 0x2468 JUMP JUMPDEST AND DUP3 MSTORE PUSH2 0x16B DUP2 MSTORE PUSH1 0x40 DUP3 KECCAK256 SWAP2 PUSH1 0x40 MLOAD DUP1 SWAP3 DUP1 DUP6 SLOAD SWAP3 DUP4 DUP2 MSTORE ADD SWAP5 DUP4 MSTORE DUP1 DUP4 KECCAK256 SWAP3 SWAP1 JUMPDEST DUP3 DUP3 LT PUSH2 0x3BF JUMPI PUSH2 0x3BB DUP6 PUSH2 0x3AF DUP2 DUP10 SUB DUP3 PUSH2 0x2593 JUMP JUMPDEST PUSH1 0x40 MLOAD SWAP2 DUP3 SWAP2 DUP3 PUSH2 0x2499 JUMP JUMPDEST SUB SWAP1 RETURN JUMPDEST DUP4 SLOAD DUP7 MSTORE SWAP5 DUP6 ADD SWAP5 PUSH1 0x1 SWAP4 DUP5 ADD SWAP4 SWAP1 SWAP2 ADD SWAP1 PUSH2 0x398 JUMP JUMPDEST POP DUP1 REVERT JUMPDEST POP CALLVALUE PUSH2 0x2AF JUMPI DUP1 PUSH1 0x3 NOT CALLDATASIZE ADD SLT PUSH2 0x2AF JUMPI PUSH1 0x20 PUSH1 0x40 MLOAD PUSH32 0x189AB7A9244DF0848122154315AF71FE140F3DB0FE014031783B0946B8C9D2E3 DUP2 MSTORE RETURN JUMPDEST POP CALLVALUE PUSH2 0x2AF JUMPI PUSH1 0x20 CALLDATASIZE PUSH1 0x3 NOT ADD SLT PUSH2 0x2AF JUMPI PUSH2 0x42F PUSH2 0x2468 JUMP JUMPDEST PUSH2 0x437 PUSH2 0x2B48 JUMP JUMPDEST PUSH1 0x1 PUSH1 0x1 PUSH1 0xA0 SHL SUB DUP2 AND ISZERO PUSH2 0x452 JUMPI PUSH2 0x44F SWAP1 PUSH2 0x2BA0 JUMP JUMPDEST DUP1 RETURN JUMPDEST PUSH1 0x40 MLOAD PUSH3 0x461BCD PUSH1 0xE5 SHL DUP2 MSTORE PUSH1 0x20 PUSH1 0x4 DUP3 ADD MSTORE PUSH1 0x26 PUSH1 0x24 DUP3 ADD MSTORE PUSH32 0x4F776E61626C653A206E6577206F776E657220697320746865207A65726F2061 PUSH1 0x44 DUP3 ADD MSTORE PUSH6 0x646472657373 PUSH1 0xD0 SHL PUSH1 0x64 DUP3 ADD MSTORE PUSH1 0x84 SWAP1 REVERT JUMPDEST POP CALLVALUE PUSH2 0x2AF JUMPI DUP1 PUSH1 0x3 NOT CALLDATASIZE ADD SLT PUSH2 0x2AF JUMPI PUSH1 0x20 PUSH1 0xFF PUSH2 0x165 SLOAD AND PUSH1 0x40 MLOAD SWAP1 ISZERO ISZERO DUP2 MSTORE RETURN JUMPDEST POP CALLVALUE PUSH2 0x2AF JUMPI DUP1 PUSH1 0x3 NOT CALLDATASIZE ADD SLT PUSH2 0x2AF JUMPI PUSH1 0x20 PUSH1 0x40 MLOAD PUSH32 0x65D7A28E3265B37A6474929F336521B332C1681B933F6CB9F3376673440D862A DUP2 MSTORE RETURN JUMPDEST POP CALLVALUE PUSH2 0x2AF JUMPI PUSH1 0x20 CALLDATASIZE PUSH1 0x3 NOT ADD SLT PUSH2 0x2AF JUMPI PUSH2 0x51F PUSH2 0x2B48 JUMP JUMPDEST PUSH1 0x4 CALLDATALOAD PUSH2 0x15F SSTORE DUP1 RETURN JUMPDEST POP CALLVALUE PUSH2 0x2AF JUMPI DUP1 PUSH1 0x3 NOT CALLDATASIZE ADD SLT PUSH2 0x2AF JUMPI PUSH1 0x20 PUSH3 0xFFFFFF PUSH2 0x163 SLOAD PUSH1 0xA0 SHR AND PUSH1 0x40 MLOAD SWAP1 DUP2 MSTORE RETURN JUMPDEST POP CALLVALUE PUSH2 0x2AF JUMPI PUSH1 0x40 CALLDATASIZE PUSH1 0x3 NOT ADD SLT PUSH2 0x2AF JUMPI PUSH2 0x56A PUSH2 0x2468 JUMP JUMPDEST POP PUSH2 0x573 PUSH2 0x2483 JUMP JUMPDEST POP PUSH1 0x20 PUSH2 0x57E PUSH2 0x2F51 JUMP JUMPDEST PUSH1 0x40 MLOAD SWAP1 DUP2 MSTORE RETURN JUMPDEST POP CALLVALUE PUSH2 0x2AF JUMPI PUSH1 0x40 CALLDATASIZE PUSH1 0x3 NOT ADD SLT PUSH2 0x2AF JUMPI PUSH2 0x44F PUSH1 0x4 CALLDATALOAD PUSH2 0x5A6 PUSH2 0x2483 JUMP JUMPDEST SWAP1 DUP1 DUP5 MSTORE PUSH1 0x97 PUSH1 0x20 MSTORE PUSH2 0x5BF PUSH1 0x1 PUSH1 0x40 DUP7 KECCAK256 ADD SLOAD PUSH2 0x298A JUMP JUMPDEST PUSH2 0x2AD2 JUMP JUMPDEST POP CALLVALUE PUSH2 0x2AF JUMPI DUP1 PUSH1 0x3 NOT CALLDATASIZE ADD SLT PUSH2 0x2AF JUMPI PUSH1 0x20 PUSH2 0x169 SLOAD PUSH1 0x40 MLOAD SWAP1 DUP2 MSTORE RETURN JUMPDEST DUP3 PUSH1 0x20 CALLDATASIZE PUSH1 0x3 NOT ADD SLT PUSH2 0x2AF JUMPI PUSH1 0x4 CALLDATALOAD DUP2 MSTORE PUSH2 0x166 PUSH1 0x20 MSTORE PUSH1 0x40 DUP2 KECCAK256 SWAP2 PUSH1 0x40 MLOAD SWAP3 PUSH2 0x60D DUP5 PUSH2 0x2506 JUMP JUMPDEST DUP1 SLOAD DUP5 MSTORE PUSH1 0x1 DUP2 ADD SLOAD PUSH1 0x1 PUSH1 0x1 PUSH1 0xA0 SHL SUB SWAP1 DUP2 AND PUSH1 0x20 DUP7 ADD MSTORE PUSH1 0x2 DUP3 ADD SLOAD DUP2 AND PUSH1 0x40 DUP7 ADD MSTORE PUSH1 0x3 DUP3 ADD SLOAD DUP2 AND PUSH1 0x60 DUP7 ADD MSTORE PUSH1 0x4 DUP3 ADD SLOAD AND PUSH1 0x80 DUP6 ADD MSTORE PUSH1 0x5 DUP2 ADD SLOAD PUSH1 0xA0 DUP6 ADD MSTORE PUSH1 0x6 DUP2 ADD SLOAD PUSH1 0xC0 DUP6 ADD DUP2 SWAP1 MSTORE PUSH1 0x7 SWAP1 SWAP2 ADD SLOAD DUP3 DUP6 ADD MSTORE PUSH2 0x671 PUSH2 0x2F51 JUMP JUMPDEST SLT PUSH2 0xBA6 JUMPI PUSH1 0x4 CALLDATALOAD DUP3 MSTORE PUSH2 0x16C DUP1 PUSH1 0x20 MSTORE PUSH2 0x693 PUSH1 0xFF PUSH1 0x40 DUP6 KECCAK256 SLOAD AND ISZERO PUSH2 0x2FF2 JUMP JUMPDEST PUSH1 0x4 CALLDATALOAD DUP4 MSTORE PUSH1 0x20 SWAP1 DUP2 MSTORE PUSH1 0x40 DUP4 KECCAK256 DUP1 SLOAD PUSH1 0xFF NOT AND PUSH1 0x1 OR SWAP1 SSTORE DUP4 ADD MLOAD PUSH1 0x60 DUP5 ADD MLOAD PUSH1 0xA0 DUP6 ADD MLOAD PUSH2 0x6D3 SWAP3 SWAP1 SWAP2 PUSH1 0x1 PUSH1 0x1 PUSH1 0xA0 SHL SUB SWAP1 DUP2 AND SWAP2 ADDRESS SWAP2 AND PUSH2 0x30FC JUMP JUMPDEST PUSH1 0xA0 DUP4 ADD MLOAD ISZERO PUSH2 0xB61 JUMPI PUSH1 0x60 DUP4 ADD MLOAD PUSH1 0x80 DUP5 ADD MLOAD PUSH1 0x1 PUSH1 0x1 PUSH1 0xA0 SHL SUB SWAP1 DUP2 AND SWAP2 AND EQ PUSH2 0xB10 JUMPI DUP3 ADD MLOAD ISZERO PUSH2 0xACB JUMPI PUSH1 0x40 DUP3 ADD MLOAD PUSH1 0x60 DUP4 ADD MLOAD PUSH1 0x80 DUP5 ADD MLOAD PUSH1 0xA0 DUP6 ADD MLOAD PUSH2 0x162 SLOAD SWAP3 SWAP4 SWAP1 SWAP3 PUSH1 0x1 PUSH1 0x1 PUSH1 0xA0 SHL SUB SWAP2 DUP3 AND SWAP3 SWAP2 PUSH2 0x73B SWAP2 DUP6 SWAP2 DUP8 DUP2 AND SWAP2 AND ADDRESS PUSH2 0x30FC JUMP JUMPDEST DUP2 ISZERO PUSH2 0xA8F JUMPI PUSH1 0x40 MLOAD SWAP4 PUSH2 0x74E DUP6 PUSH2 0x255B JUMP JUMPDEST PUSH1 0x1 DUP6 MSTORE PUSH1 0x20 CALLDATASIZE DUP2 DUP8 ADD CALLDATACOPY DUP5 MLOAD ISZERO PUSH2 0xA7B JUMPI PUSH2 0x7EE SWAP3 SWAP2 PUSH2 0x7DA SWAP2 DUP8 PUSH1 0x20 DUP9 ADD MSTORE8 PUSH2 0x163 SLOAD SWAP2 PUSH1 0x40 MLOAD SWAP3 PUSH1 0x1 PUSH1 0x1 PUSH1 0x60 SHL SUB NOT DUP1 SWAP4 PUSH1 0x60 SHL AND PUSH1 0x20 DUP6 ADD MSTORE PUSH3 0xFFFFFF PUSH1 0xE8 SHL SWAP1 PUSH1 0x48 SHL AND PUSH1 0x34 DUP5 ADD MSTORE PUSH1 0x60 SHL AND PUSH1 0x37 DUP3 ADD MSTORE PUSH1 0x2B DUP2 MSTORE PUSH2 0x7B3 DUP2 PUSH2 0x253F JUMP JUMPDEST PUSH1 0x40 MLOAD SWAP5 DUP6 SWAP4 PUSH1 0x20 DUP6 ADD MSTORE PUSH1 0x40 DUP5 ADD MSTORE DUP7 PUSH1 0x60 DUP5 ADD MSTORE PUSH1 0xA0 PUSH1 0x80 DUP5 ADD MSTORE PUSH1 0xC0 DUP4 ADD SWAP1 PUSH2 0x2AAD JUMP JUMPDEST DUP6 PUSH1 0xA0 DUP4 ADD MSTORE SUB PUSH1 0x1F NOT DUP2 ADD DUP4 MSTORE DUP3 PUSH2 0x2593 JUMP JUMPDEST PUSH1 0x40 MLOAD SWAP1 PUSH2 0x7FB DUP3 PUSH2 0x255B JUMP JUMPDEST PUSH1 0x1 DUP3 MSTORE DUP4 JUMPDEST PUSH1 0x20 DUP2 LT PUSH2 0xA6A JUMPI POP PUSH2 0x813 DUP3 PUSH2 0x30D7 JUMP JUMPDEST MSTORE PUSH2 0x81D DUP2 PUSH2 0x30D7 JUMP JUMPDEST POP PUSH2 0x162 SLOAD PUSH1 0x1 PUSH1 0x1 PUSH1 0xA0 SHL SUB AND SWAP1 DUP2 EXTCODESIZE ISZERO PUSH2 0xA66 JUMPI SWAP2 DUP4 SWAP2 PUSH2 0x85B SWAP4 PUSH1 0x40 MLOAD SWAP5 DUP6 SWAP4 PUSH4 0x24856BC3 PUSH1 0xE0 SHL DUP6 MSTORE PUSH1 0x40 PUSH1 0x4 DUP7 ADD MSTORE PUSH1 0x44 DUP6 ADD SWAP1 PUSH2 0x2AAD JUMP JUMPDEST PUSH1 0x3 NOT DUP5 DUP3 SUB ADD PUSH1 0x24 DUP6 ADD MSTORE DUP2 MLOAD DUP1 DUP3 MSTORE PUSH1 0x20 DUP3 ADD SWAP2 PUSH1 0x20 DUP1 DUP4 PUSH1 0x5 SHL DUP4 ADD ADD SWAP5 ADD SWAP3 DUP8 SWAP2 JUMPDEST DUP4 DUP4 LT PUSH2 0xA33 JUMPI POP POP POP POP POP DUP4 DUP4 DUP1 SWAP3 SUB SWAP3 GAS CALL DUP1 ISZERO PUSH2 0xA28 JUMPI PUSH2 0x9FC JUMPI JUMPDEST POP SWAP1 DUP2 JUMPDEST PUSH2 0x167 SLOAD DUP1 DUP3 LT ISZERO PUSH2 0x9D1 JUMPI PUSH2 0x8B9 DUP3 PUSH2 0x25D1 JUMP JUMPDEST SWAP1 SLOAD SWAP1 PUSH1 0x3 SHL SHR DUP4 MLOAD EQ PUSH2 0x8D6 JUMPI POP PUSH2 0x8D1 SWAP1 PUSH2 0x303E JUMP JUMPDEST PUSH2 0x8A4 JUMP JUMPDEST PUSH1 0x0 NOT DUP2 ADD SWAP1 DUP2 GT PUSH2 0x9BD JUMPI SWAP2 PUSH2 0x93C PUSH1 0xC0 SWAP3 PUSH2 0x923 PUSH2 0x916 PUSH32 0x328B3EDB0769B34798CF3AC39E32115F75F3425E045A14F6C8E7B33BECFC01A6 SWAP7 PUSH2 0x25D1 JUMP JUMPDEST SWAP1 SLOAD SWAP1 PUSH1 0x3 SHL SHR SWAP2 PUSH2 0x25D1 JUMP JUMPDEST SWAP1 SWAP2 SWAP1 DUP3 SLOAD SWAP1 PUSH1 0x3 SHL SWAP2 DUP3 SHL SWAP2 PUSH1 0x0 NOT SWAP1 SHL NOT AND OR SWAP1 SSTORE JUMP JUMPDEST PUSH2 0x944 PUSH2 0x304D JUMP JUMPDEST PUSH2 0x16D PUSH2 0x951 DUP2 SLOAD PUSH2 0x2DE5 JUMP JUMPDEST SWAP1 SSTORE JUMPDEST PUSH2 0x95E DUP2 MLOAD PUSH2 0x308F JUMP JUMPDEST PUSH1 0x1 DUP1 PUSH1 0xA0 SHL SUB PUSH1 0x20 DUP3 ADD MLOAD AND SWAP1 PUSH1 0x1 DUP1 PUSH1 0xA0 SHL SUB PUSH1 0x40 DUP3 ADD MLOAD AND SWAP1 PUSH1 0x1 DUP1 PUSH1 0xA0 SHL SUB PUSH1 0x60 DUP3 ADD MLOAD AND PUSH1 0xA0 PUSH1 0x1 DUP1 DUP3 SHL SUB PUSH1 0x80 DUP5 ADD MLOAD AND SWAP3 ADD MLOAD SWAP3 PUSH1 0x40 MLOAD SWAP5 DUP6 MSTORE PUSH1 0x20 DUP6 ADD MSTORE PUSH1 0x40 DUP5 ADD MSTORE PUSH1 0x60 DUP4 ADD MSTORE PUSH1 0x80 DUP3 ADD MSTORE DUP4 PUSH1 0xA0 DUP3 ADD MSTORE LOG1 DUP1 RETURN JUMPDEST PUSH4 0x4E487B71 PUSH1 0xE0 SHL DUP5 MSTORE PUSH1 0x11 PUSH1 0x4 MSTORE PUSH1 0x24 DUP5 REVERT JUMPDEST POP POP PUSH1 0xC0 PUSH32 0x328B3EDB0769B34798CF3AC39E32115F75F3425E045A14F6C8E7B33BECFC01A6 SWAP2 PUSH2 0x954 JUMP JUMPDEST PUSH8 0xFFFFFFFFFFFFFFFF DUP2 GT PUSH2 0xA14 JUMPI PUSH1 0x40 MSTORE DUP3 PUSH2 0x8A0 JUMP JUMPDEST PUSH4 0x4E487B71 PUSH1 0xE0 SHL DUP3 MSTORE PUSH1 0x41 PUSH1 0x4 MSTORE PUSH1 0x24 DUP3 REVERT JUMPDEST PUSH1 0x40 MLOAD RETURNDATASIZE DUP5 DUP3 RETURNDATACOPY RETURNDATASIZE SWAP1 REVERT JUMPDEST SWAP3 SWAP6 SWAP8 POP SWAP3 SWAP6 POP SWAP3 PUSH1 0x20 DUP1 PUSH2 0xA54 PUSH1 0x1 SWAP4 PUSH1 0x1F NOT DUP7 DUP3 SUB ADD DUP8 MSTORE DUP10 MLOAD PUSH2 0x2AAD JUMP JUMPDEST SWAP8 ADD SWAP4 ADD SWAP4 ADD DUP8 SWAP6 SWAP4 DUP10 SWAP8 SWAP6 SWAP3 PUSH2 0x881 JUMP JUMPDEST DUP4 DUP1 REVERT JUMPDEST DUP1 PUSH1 0x60 PUSH1 0x20 DUP1 SWAP4 DUP7 ADD ADD MSTORE ADD PUSH2 0x801 JUMP JUMPDEST PUSH4 0x4E487B71 PUSH1 0xE0 SHL DUP7 MSTORE PUSH1 0x32 PUSH1 0x4 MSTORE PUSH1 0x24 DUP7 REVERT JUMPDEST PUSH1 0x40 MLOAD PUSH3 0x461BCD PUSH1 0xE5 SHL DUP2 MSTORE PUSH1 0x20 PUSH1 0x4 DUP3 ADD MSTORE PUSH1 0x14 PUSH1 0x24 DUP3 ADD MSTORE PUSH20 0x149958D95A5D995C881B5D5CDD081899481CD95D PUSH1 0x62 SHL PUSH1 0x44 DUP3 ADD MSTORE PUSH1 0x64 SWAP1 REVERT JUMPDEST PUSH1 0x40 MLOAD PUSH3 0x461BCD PUSH1 0xE5 SHL DUP2 MSTORE PUSH1 0x20 PUSH1 0x4 DUP3 ADD MSTORE PUSH1 0x1F PUSH1 0x24 DUP3 ADD MSTORE PUSH32 0x546F20636861696E206D7573742062652067726561746572207468616E203000 PUSH1 0x44 DUP3 ADD MSTORE PUSH1 0x64 SWAP1 REVERT JUMPDEST PUSH1 0x40 MLOAD PUSH3 0x461BCD PUSH1 0xE5 SHL DUP2 MSTORE PUSH1 0x20 PUSH1 0x4 DUP3 ADD MSTORE PUSH1 0x24 DUP1 DUP3 ADD MSTORE PUSH32 0x46726F6D20616E6420546F20746F6B656E73206D757374206265206469666665 PUSH1 0x44 DUP3 ADD MSTORE PUSH4 0x1C995B9D PUSH1 0xE2 SHL PUSH1 0x64 DUP3 ADD MSTORE PUSH1 0x84 SWAP1 REVERT JUMPDEST PUSH1 0x40 MLOAD PUSH3 0x461BCD PUSH1 0xE5 SHL DUP2 MSTORE PUSH1 0x20 PUSH1 0x4 DUP3 ADD MSTORE PUSH1 0x1D PUSH1 0x24 DUP3 ADD MSTORE PUSH32 0x416D6F756E74206D7573742062652067726561746572207468616E2030000000 PUSH1 0x44 DUP3 ADD MSTORE PUSH1 0x64 SWAP1 REVERT JUMPDEST PUSH1 0x40 MLOAD PUSH3 0x461BCD PUSH1 0xE5 SHL DUP2 MSTORE PUSH1 0x20 PUSH1 0x4 DUP3 ADD MSTORE PUSH1 0xD PUSH1 0x24 DUP3 ADD MSTORE PUSH13 0x14149250D157D393D517D35155 PUSH1 0x9A SHL PUSH1 0x44 DUP3 ADD MSTORE PUSH1 0x64 SWAP1 REVERT JUMPDEST DUP3 PUSH1 0x80 CALLDATASIZE PUSH1 0x3 NOT ADD SLT PUSH2 0x2AF JUMPI PUSH2 0xBF0 PUSH2 0x2468 JUMP JUMPDEST SWAP1 PUSH2 0xBF9 PUSH2 0x2483 JUMP JUMPDEST PUSH1 0x1 PUSH1 0x1 PUSH1 0xA0 SHL SUB SWAP1 DUP2 DUP2 AND SWAP1 PUSH1 0x44 CALLDATALOAD SWAP1 DUP3 ISZERO PUSH2 0xD7D JUMPI PUSH1 0x40 MLOAD PUSH4 0x6EB1769F PUSH1 0xE1 SHL DUP2 MSTORE PUSH1 0x1 PUSH1 0x1 PUSH1 0xA0 SHL SUB DUP8 AND PUSH1 0x4 DUP3 ADD MSTORE ADDRESS PUSH1 0x24 DUP3 ADD MSTORE PUSH1 0x20 DUP2 PUSH1 0x44 DUP2 DUP8 GAS STATICCALL SWAP1 DUP2 ISZERO PUSH2 0xD72 JUMPI SWAP1 DUP4 SWAP2 DUP8 SWAP2 PUSH2 0xD38 JUMPI JUMPDEST POP SWAP2 PUSH2 0xC5D DUP3 PUSH2 0xC64 SWAP5 LT ISZERO PUSH2 0x2F6B JUMP JUMPDEST ADDRESS DUP9 PUSH2 0x30FC JUMP JUMPDEST PUSH2 0x169 SWAP2 PUSH2 0xC72 DUP4 SLOAD PUSH2 0x303E JUMP JUMPDEST SWAP6 DUP7 DUP5 SSTORE PUSH1 0x40 MLOAD SWAP5 PUSH2 0xC83 DUP7 PUSH2 0x24D4 JUMP JUMPDEST DUP8 DUP7 MSTORE DUP1 PUSH1 0x20 DUP8 ADD SWAP3 AND SWAP5 DUP6 DUP4 MSTORE PUSH1 0x40 DUP8 ADD SWAP4 DUP5 MSTORE PUSH1 0x60 DUP8 ADD SWAP5 DUP6 MSTORE PUSH1 0x80 DUP8 ADD SWAP6 PUSH1 0x64 CALLDATALOAD DUP8 MSTORE DUP9 MSTORE PUSH2 0x16B PUSH1 0x20 MSTORE PUSH1 0x40 DUP9 KECCAK256 DUP1 SLOAD SWAP1 PUSH1 0x1 PUSH1 0x40 SHL DUP3 LT ISZERO PUSH2 0xD24 JUMPI SWAP10 PUSH2 0x923 DUP3 PUSH1 0x4 SWAP11 SWAP12 SWAP13 PUSH1 0x1 PUSH2 0xCDC SWAP6 ADD DUP2 SSTORE PUSH2 0x261E JUMP JUMPDEST SLOAD DUP9 MSTORE PUSH2 0x16A PUSH1 0x20 MSTORE PUSH1 0x40 DUP9 KECCAK256 SWAP7 MLOAD DUP8 SSTORE DUP1 PUSH1 0x1 DUP9 ADD SWAP3 MLOAD AND SWAP2 PUSH1 0x1 PUSH1 0x1 PUSH1 0x60 SHL SUB PUSH1 0xA0 SHL SWAP3 DUP4 DUP3 SLOAD AND OR SWAP1 SSTORE PUSH1 0x2 DUP8 ADD SWAP3 MLOAD AND SWAP1 DUP3 SLOAD AND OR SWAP1 SSTORE MLOAD PUSH1 0x3 DUP5 ADD SSTORE MLOAD SWAP2 ADD SSTORE DUP1 RETURN JUMPDEST PUSH4 0x4E487B71 PUSH1 0xE0 SHL DUP11 MSTORE PUSH1 0x41 PUSH1 0x4 MSTORE PUSH1 0x24 DUP11 REVERT JUMPDEST SWAP2 POP POP PUSH1 0x20 DUP2 RETURNDATASIZE DUP3 GT PUSH2 0xD6A JUMPI JUMPDEST DUP2 PUSH2 0xD53 PUSH1 0x20 SWAP4 DUP4 PUSH2 0x2593 JUMP JUMPDEST DUP2 ADD SUB SLT PUSH2 0xD66 JUMPI MLOAD DUP3 SWAP1 PUSH2 0xC5D PUSH2 0xC4C JUMP JUMPDEST DUP6 DUP1 REVERT JUMPDEST RETURNDATASIZE SWAP2 POP PUSH2 0xD46 JUMP JUMPDEST PUSH1 0x40 MLOAD RETURNDATASIZE DUP9 DUP3 RETURNDATACOPY RETURNDATASIZE SWAP1 REVERT JUMPDEST POP DUP1 CALLVALUE LT ISZERO PUSH2 0xC64 JUMPI PUSH1 0x40 MLOAD PUSH3 0x461BCD PUSH1 0xE5 SHL DUP2 MSTORE PUSH1 0x20 PUSH1 0x4 DUP3 ADD MSTORE PUSH1 0x1B PUSH1 0x24 DUP3 ADD MSTORE PUSH32 0x496E76616C696420616D6F756E74206173206D73672E76616C75650000000000 PUSH1 0x44 DUP3 ADD MSTORE PUSH1 0x64 SWAP1 REVERT JUMPDEST DUP3 CALLVALUE PUSH2 0x2AF JUMPI DUP1 PUSH1 0x3 NOT CALLDATASIZE ADD SLT PUSH2 0x2AF JUMPI PUSH2 0x163 SLOAD PUSH1 0x40 MLOAD PUSH1 0x1 PUSH1 0x1 PUSH1 0xA0 SHL SUB SWAP1 SWAP2 AND DUP2 MSTORE PUSH1 0x20 SWAP1 RETURN JUMPDEST DUP3 CALLVALUE PUSH2 0x2AF JUMPI DUP1 PUSH1 0x3 NOT CALLDATASIZE ADD SLT PUSH2 0x2AF JUMPI PUSH1 0x20 PUSH2 0x164 SLOAD PUSH1 0x40 MLOAD SWAP1 DUP2 MSTORE RETURN JUMPDEST SWAP1 POP CALLVALUE PUSH2 0x3D6 JUMPI DUP1 PUSH1 0x3 NOT CALLDATASIZE ADD SLT PUSH2 0x3D6 JUMPI PUSH2 0xE2E PUSH2 0x2468 JUMP JUMPDEST SWAP1 PUSH2 0xE37 PUSH2 0x2483 JUMP JUMPDEST SWAP2 DUP4 PUSH1 0x44 CALLDATALOAD SWAP3 PUSH1 0x84 CALLDATALOAD SWAP4 PUSH1 0x1 DUP1 PUSH1 0xA0 SHL SUB SWAP4 DUP5 DUP7 AND DUP1 SWAP7 SUB PUSH2 0xA66 JUMPI PUSH1 0xA4 CALLDATALOAD SWAP1 DUP6 DUP3 AND DUP1 SWAP3 SUB PUSH2 0xFFA JUMPI PUSH1 0x40 MLOAD PUSH4 0x6EB1769F PUSH1 0xE1 SHL DUP2 MSTORE PUSH1 0x1 PUSH1 0x1 PUSH1 0xA0 SHL SUB DUP3 AND PUSH1 0x4 DUP3 ADD MSTORE ADDRESS PUSH1 0x24 DUP3 ADD MSTORE PUSH1 0x20 SWAP8 SWAP1 SWAP7 SWAP1 DUP9 DUP9 PUSH1 0x44 DUP2 DUP5 GAS STATICCALL SWAP8 DUP9 ISZERO PUSH2 0xFEF JUMPI DUP8 SWAP9 PUSH2 0xFBA JUMPI JUMPDEST POP PUSH2 0xEAE DUP6 PUSH1 0x7 SWAP10 LT ISZERO PUSH2 0x2F6B JUMP JUMPDEST PUSH2 0x160 SWAP10 DUP11 SLOAD SWAP11 PUSH2 0xEBE DUP13 PUSH2 0x303E JUMP JUMPDEST SWAP1 SSTORE PUSH2 0x166 PUSH1 0x40 MLOAD SWAP11 PUSH2 0xED0 DUP13 PUSH2 0x2506 JUMP JUMPDEST DUP13 DUP13 MSTORE DUP5 DUP2 DUP14 ADD SWAP7 AND DUP7 MSTORE DUP5 PUSH1 0x40 DUP14 ADD SWAP4 AND DUP4 MSTORE PUSH1 0x60 DUP13 ADD SWAP4 DUP5 MSTORE PUSH1 0x80 DUP13 ADD SWAP7 DUP8 MSTORE PUSH1 0xA0 DUP13 ADD SWAP8 DUP9 MSTORE DUP13 PUSH1 0xC0 DUP14 ADD SWAP10 PUSH1 0x64 CALLDATALOAD DUP12 MSTORE DUP14 ADD SWAP11 PUSH1 0xC4 CALLDATALOAD DUP13 MSTORE MSTORE MSTORE PUSH1 0x40 DUP13 KECCAK256 SWAP10 MLOAD DUP11 SSTORE DUP3 PUSH1 0x1 DUP12 ADD SWAP5 MLOAD AND SWAP4 PUSH1 0x1 PUSH1 0x1 PUSH1 0x60 SHL SUB PUSH1 0xA0 SHL SWAP5 DUP6 DUP3 SLOAD AND OR SWAP1 SSTORE DUP3 PUSH1 0x2 DUP12 ADD SWAP2 MLOAD AND DUP5 DUP3 SLOAD AND OR SWAP1 SSTORE DUP2 PUSH1 0x3 DUP11 ADD SWAP2 MLOAD AND DUP4 DUP3 SLOAD AND OR SWAP1 SSTORE PUSH1 0x4 DUP9 ADD SWAP3 MLOAD AND SWAP1 DUP3 SLOAD AND OR SWAP1 SSTORE MLOAD PUSH1 0x5 DUP6 ADD SSTORE MLOAD PUSH1 0x6 DUP5 ADD SSTORE MLOAD SWAP2 ADD SSTORE PUSH2 0x167 DUP1 SLOAD SWAP1 PUSH1 0x1 PUSH1 0x40 SHL DUP3 LT ISZERO PUSH2 0xFA6 JUMPI DUP2 PUSH2 0x923 SWAP2 PUSH1 0x1 PUSH2 0xF94 SWAP6 SWAP5 ADD SWAP1 SSTORE PUSH2 0x25D1 JUMP JUMPDEST PUSH2 0x16D PUSH2 0xFA1 DUP2 SLOAD PUSH2 0x303E JUMP JUMPDEST SWAP1 SSTORE DUP1 RETURN JUMPDEST PUSH4 0x4E487B71 PUSH1 0xE0 SHL DUP5 MSTORE PUSH1 0x41 PUSH1 0x4 MSTORE PUSH1 0x24 DUP5 REVERT JUMPDEST SWAP8 POP DUP9 DUP9 DUP2 RETURNDATASIZE DUP4 GT PUSH2 0xFE8 JUMPI JUMPDEST PUSH2 0xFD1 DUP2 DUP4 PUSH2 0x2593 JUMP JUMPDEST DUP2 ADD SUB SLT PUSH2 0xFE4 JUMPI SWAP7 MLOAD SWAP7 PUSH2 0xEAE PUSH2 0xE9F JUMP JUMPDEST DUP7 DUP1 REVERT JUMPDEST POP RETURNDATASIZE PUSH2 0xFC7 JUMP JUMPDEST PUSH1 0x40 MLOAD RETURNDATASIZE DUP10 DUP3 RETURNDATACOPY RETURNDATASIZE SWAP1 REVERT JUMPDEST DUP5 DUP1 REVERT JUMPDEST SWAP1 POP CALLVALUE PUSH2 0x3D6 JUMPI PUSH1 0x20 CALLDATASIZE PUSH1 0x3 NOT ADD SLT PUSH2 0x3D6 JUMPI PUSH1 0x4 CALLDATALOAD DUP1 DUP4 MSTORE PUSH2 0x166 PUSH1 0x20 MSTORE PUSH1 0x40 DUP4 KECCAK256 PUSH2 0x109E PUSH1 0x40 MLOAD SWAP4 PUSH2 0x1031 DUP6 PUSH2 0x2506 JUMP JUMPDEST DUP3 SLOAD DUP6 MSTORE PUSH1 0x1 DUP1 PUSH1 0xA0 SHL SUB SWAP1 PUSH1 0x1 SWAP6 DUP3 DUP8 DUP7 ADD SLOAD AND SWAP2 DUP3 PUSH1 0x20 DUP4 ADD MSTORE DUP4 PUSH1 0x2 DUP8 ADD SLOAD AND PUSH1 0x40 DUP4 ADD MSTORE PUSH1 0x7 PUSH1 0x3 SWAP7 DUP6 DUP9 DUP3 ADD SLOAD AND PUSH1 0x60 DUP6 ADD MSTORE DUP6 PUSH1 0x4 DUP3 ADD SLOAD AND PUSH1 0x80 DUP6 ADD MSTORE PUSH1 0x5 DUP2 ADD SLOAD PUSH1 0xA0 DUP6 ADD MSTORE PUSH1 0x6 DUP2 ADD SLOAD PUSH1 0xC0 DUP6 ADD MSTORE ADD SLOAD SWAP2 ADD MSTORE CALLER EQ SWAP1 DUP2 ISZERO PUSH2 0x1169 JUMPI JUMPDEST POP PUSH2 0x2FB7 JUMP JUMPDEST DUP2 DUP5 MSTORE PUSH2 0x16C DUP1 PUSH1 0x20 MSTORE PUSH2 0x10B9 PUSH1 0xFF PUSH1 0x40 DUP8 KECCAK256 SLOAD AND ISZERO PUSH2 0x2FF2 JUMP JUMPDEST DUP3 DUP6 MSTORE PUSH1 0x20 MSTORE PUSH1 0x40 DUP5 KECCAK256 DUP1 SLOAD PUSH1 0xFF NOT AND DUP5 OR SWAP1 SSTORE DUP4 DUP4 JUMPDEST PUSH2 0x10DF JUMPI JUMPDEST DUP5 PUSH2 0x44F DUP5 PUSH2 0x308F JUMP JUMPDEST PUSH2 0x167 SLOAD DUP1 DUP3 LT ISZERO PUSH2 0x1163 JUMPI DUP4 PUSH2 0x10F5 DUP4 PUSH2 0x25D1 JUMP JUMPDEST SWAP1 SLOAD SWAP1 DUP6 SHL SHR EQ PUSH2 0x1110 JUMPI POP PUSH2 0x110A SWAP1 PUSH2 0x303E JUMP JUMPDEST DUP4 PUSH2 0x10D0 JUMP JUMPDEST SWAP3 SWAP4 POP SWAP2 PUSH1 0x0 NOT DUP2 ADD SWAP1 DUP2 GT PUSH2 0x114F JUMPI SWAP2 PUSH2 0x923 PUSH2 0x1140 SWAP3 PUSH2 0x1135 PUSH2 0x44F SWAP7 SWAP6 PUSH2 0x25D1 JUMP JUMPDEST SWAP1 SLOAD SWAP2 SHL SHR SWAP2 PUSH2 0x25D1 JUMP JUMPDEST PUSH2 0x1148 PUSH2 0x304D JUMP JUMPDEST CODESIZE DUP1 PUSH2 0x10D5 JUMP JUMPDEST PUSH4 0x4E487B71 PUSH1 0xE0 SHL DUP6 MSTORE PUSH1 0x11 PUSH1 0x4 MSTORE PUSH1 0x24 DUP6 REVERT JUMPDEST POP PUSH2 0x10D5 JUMP JUMPDEST SWAP1 POP PUSH1 0xC9 SLOAD AND CALLER EQ CODESIZE PUSH2 0x1098 JUMP JUMPDEST SWAP1 POP CALLVALUE PUSH2 0x3D6 JUMPI PUSH1 0x20 CALLDATASIZE PUSH1 0x3 NOT ADD SLT PUSH2 0x3D6 JUMPI PUSH1 0x40 PUSH2 0x100 SWAP3 PUSH1 0x4 CALLDATALOAD DUP2 MSTORE PUSH2 0x166 PUSH1 0x20 MSTORE KECCAK256 DUP1 SLOAD SWAP2 PUSH1 0x1 DUP1 PUSH1 0xA0 SHL SUB SWAP2 DUP3 PUSH1 0x1 DUP3 ADD SLOAD AND SWAP3 DUP1 PUSH1 0x2 DUP4 ADD SLOAD AND SWAP1 DUP1 PUSH1 0x3 DUP5 ADD SLOAD AND SWAP1 PUSH1 0x4 DUP5 ADD SLOAD AND SWAP1 PUSH1 0x5 DUP5 ADD SLOAD SWAP3 PUSH1 0x7 PUSH1 0x6 DUP7 ADD SLOAD SWAP6 ADD SLOAD SWAP7 PUSH1 0x40 MLOAD SWAP9 DUP10 MSTORE PUSH1 0x20 DUP10 ADD MSTORE PUSH1 0x40 DUP9 ADD MSTORE PUSH1 0x60 DUP8 ADD MSTORE PUSH1 0x80 DUP7 ADD MSTORE PUSH1 0xA0 DUP6 ADD MSTORE PUSH1 0xC0 DUP5 ADD MSTORE DUP3 ADD MSTORE RETURN JUMPDEST DUP3 CALLVALUE PUSH2 0x2AF JUMPI DUP1 PUSH1 0x3 NOT CALLDATASIZE ADD SLT PUSH2 0x2AF JUMPI PUSH1 0x20 SWAP1 PUSH1 0x40 MLOAD SWAP1 DUP2 MSTORE RETURN JUMPDEST DUP3 CALLVALUE PUSH2 0x2AF JUMPI DUP1 PUSH1 0x3 NOT CALLDATASIZE ADD SLT PUSH2 0x2AF JUMPI PUSH1 0x20 PUSH2 0x15F SLOAD PUSH1 0x40 MLOAD SWAP1 DUP2 MSTORE RETURN JUMPDEST DUP3 CALLVALUE PUSH2 0x2AF JUMPI PUSH1 0x40 CALLDATASIZE PUSH1 0x3 NOT ADD SLT PUSH2 0x2AF JUMPI PUSH1 0xFF PUSH1 0x40 PUSH1 0x20 SWAP3 PUSH2 0x125C PUSH2 0x2483 JUMP JUMPDEST PUSH1 0x4 CALLDATALOAD DUP3 MSTORE PUSH1 0x97 DUP6 MSTORE DUP3 DUP3 KECCAK256 PUSH1 0x1 PUSH1 0x1 PUSH1 0xA0 SHL SUB SWAP1 SWAP2 AND DUP3 MSTORE DUP5 MSTORE KECCAK256 SLOAD PUSH1 0x40 MLOAD SWAP2 AND ISZERO ISZERO DUP2 MSTORE RETURN JUMPDEST DUP3 CALLVALUE PUSH2 0x2AF JUMPI DUP1 PUSH1 0x3 NOT CALLDATASIZE ADD SLT PUSH2 0x2AF JUMPI PUSH1 0xC9 SLOAD PUSH1 0x40 MLOAD PUSH1 0x1 PUSH1 0x1 PUSH1 0xA0 SHL SUB SWAP1 SWAP2 AND DUP2 MSTORE PUSH1 0x20 SWAP1 RETURN JUMPDEST DUP3 CALLVALUE PUSH2 0x2AF JUMPI PUSH1 0x20 CALLDATASIZE PUSH1 0x3 NOT ADD SLT PUSH2 0x2AF JUMPI PUSH2 0x12C7 PUSH2 0x2B48 JUMP JUMPDEST PUSH1 0x4 CALLDATALOAD PUSH2 0x164 SSTORE DUP1 RETURN JUMPDEST DUP3 CALLVALUE PUSH2 0x2AF JUMPI DUP1 PUSH1 0x3 NOT CALLDATASIZE ADD SLT PUSH2 0x2AF JUMPI PUSH2 0x12EA PUSH2 0x2850 JUMP JUMPDEST PUSH1 0x33 SLOAD PUSH1 0xFF DUP2 AND PUSH2 0x132D JUMPI PUSH1 0x1 SWAP1 PUSH1 0xFF NOT AND OR PUSH1 0x33 SSTORE PUSH32 0x62E78CEA01BEE320CD4E420270B5EA74000D11B0C9F74754EBDBFC544B05A258 PUSH1 0x20 PUSH1 0x40 MLOAD CALLER DUP2 MSTORE LOG1 DUP1 RETURN JUMPDEST PUSH1 0x40 MLOAD PUSH3 0x461BCD PUSH1 0xE5 SHL DUP2 MSTORE PUSH1 0x20 PUSH1 0x4 DUP3 ADD MSTORE PUSH1 0x10 PUSH1 0x24 DUP3 ADD MSTORE PUSH16 0x14185D5CD8589B194E881C185D5CD959 PUSH1 0x82 SHL PUSH1 0x44 DUP3 ADD MSTORE PUSH1 0x64 SWAP1 REVERT JUMPDEST DUP3 CALLVALUE PUSH2 0x2AF JUMPI PUSH1 0x20 CALLDATASIZE PUSH1 0x3 NOT ADD SLT PUSH2 0x2AF JUMPI PUSH1 0x4 CALLDATALOAD PUSH3 0xFFFFFF DUP2 AND DUP2 SUB PUSH2 0x3D6 JUMPI PUSH2 0x138E PUSH2 0x2B48 JUMP JUMPDEST PUSH2 0x163 DUP1 SLOAD PUSH3 0xFFFFFF PUSH1 0xA0 SHL NOT AND PUSH1 0xA0 SWAP3 SWAP1 SWAP3 SHL PUSH3 0xFFFFFF PUSH1 0xA0 SHL AND SWAP2 SWAP1 SWAP2 OR SWAP1 SSTORE DUP1 RETURN JUMPDEST DUP3 CALLVALUE PUSH2 0x2AF JUMPI DUP1 PUSH1 0x3 NOT CALLDATASIZE ADD SLT PUSH2 0x2AF JUMPI PUSH2 0x13CC PUSH2 0x2B48 JUMP JUMPDEST PUSH1 0xC9 DUP1 SLOAD PUSH1 0x1 PUSH1 0x1 PUSH1 0xA0 SHL SUB NOT DUP2 AND SWAP1 SWAP2 SSTORE DUP2 SWAP1 PUSH1 0x1 PUSH1 0x1 PUSH1 0xA0 SHL SUB AND PUSH32 0x8BE0079C531659141344CD1FD0A4F28419497F9722A3DAAFE3B4186F6B6457E0 DUP3 DUP1 LOG3 DUP1 RETURN JUMPDEST DUP3 CALLVALUE PUSH2 0x2AF JUMPI DUP1 PUSH1 0x3 NOT CALLDATASIZE ADD SLT PUSH2 0x2AF JUMPI PUSH1 0x20 PUSH2 0x160 SLOAD PUSH1 0x40 MLOAD SWAP1 DUP2 MSTORE RETURN JUMPDEST DUP3 CALLVALUE PUSH2 0x2AF JUMPI DUP1 PUSH1 0x3 NOT CALLDATASIZE ADD SLT PUSH2 0x2AF JUMPI PUSH2 0x1448 PUSH2 0x2B48 JUMP JUMPDEST PUSH2 0x1453 PUSH1 0x40 MLOAD PUSH2 0x2523 JUMP JUMPDEST PUSH2 0x167 DUP2 DUP2 SLOAD SWAP2 SSTORE DUP1 PUSH2 0x146A JUMPI JUMPDEST POP DUP1 PUSH2 0x16D SSTORE DUP1 RETURN JUMPDEST PUSH32 0x25F925B23C02F7114773957B1A876F2AF957C14A29118DC622648C445020DCF SWAP1 DUP2 ADD SWAP1 JUMPDEST DUP2 DUP2 LT PUSH2 0x149D JUMPI POP PUSH2 0x1461 JUMP JUMPDEST DUP3 DUP2 SSTORE PUSH1 0x1 ADD PUSH2 0x1490 JUMP JUMPDEST DUP3 CALLVALUE PUSH2 0x2AF JUMPI PUSH1 0x20 CALLDATASIZE PUSH1 0x3 NOT ADD SLT PUSH2 0x2AF JUMPI PUSH1 0x4 CALLDATALOAD SWAP1 PUSH2 0x167 SLOAD DUP3 LT ISZERO PUSH2 0x2AF JUMPI PUSH1 0x20 PUSH2 0x31A DUP4 PUSH2 0x25D1 JUMP JUMPDEST DUP3 CALLVALUE PUSH2 0x2AF JUMPI DUP1 PUSH1 0x3 NOT CALLDATASIZE ADD SLT PUSH2 0x2AF JUMPI PUSH1 0x20 PUSH1 0xFF PUSH1 0x33 SLOAD AND PUSH1 0x40 MLOAD SWAP1 ISZERO ISZERO DUP2 MSTORE RETURN JUMPDEST DUP3 CALLVALUE PUSH2 0x2AF JUMPI PUSH1 0x20 CALLDATASIZE PUSH1 0x3 NOT ADD SLT PUSH2 0x2AF JUMPI PUSH2 0x1511 PUSH2 0x2468 JUMP JUMPDEST PUSH2 0x1519 PUSH2 0x2B48 JUMP JUMPDEST PUSH2 0x163 DUP1 SLOAD PUSH1 0x1 PUSH1 0x1 PUSH1 0xA0 SHL SUB NOT AND PUSH1 0x1 PUSH1 0x1 PUSH1 0xA0 SHL SUB SWAP1 SWAP3 AND SWAP2 SWAP1 SWAP2 OR SWAP1 SSTORE DUP1 RETURN JUMPDEST DUP3 CALLVALUE PUSH2 0x2AF JUMPI DUP1 PUSH1 0x3 NOT CALLDATASIZE ADD SLT PUSH2 0x2AF JUMPI PUSH32 0x0 PUSH1 0x1 PUSH1 0x1 PUSH1 0xA0 SHL SUB AND ADDRESS SUB PUSH2 0x1595 JUMPI PUSH1 0x20 PUSH1 0x40 MLOAD PUSH1 0x0 DUP1 MLOAD PUSH1 0x20 PUSH2 0x31DA DUP4 CODECOPY DUP2 MLOAD SWAP2 MSTORE DUP2 MSTORE RETURN JUMPDEST PUSH1 0x40 MLOAD PUSH3 0x461BCD PUSH1 0xE5 SHL DUP2 MSTORE PUSH1 0x20 PUSH1 0x4 DUP3 ADD MSTORE PUSH1 0x38 PUSH1 0x24 DUP3 ADD MSTORE PUSH32 0x555550535570677261646561626C653A206D757374206E6F742062652063616C PUSH1 0x44 DUP3 ADD MSTORE PUSH32 0x6C6564207468726F7567682064656C656761746563616C6C0000000000000000 PUSH1 0x64 DUP3 ADD MSTORE PUSH1 0x84 SWAP1 REVERT JUMPDEST DUP3 PUSH1 0x40 CALLDATASIZE PUSH1 0x3 NOT ADD SLT PUSH2 0x2AF JUMPI PUSH2 0x1615 PUSH2 0x2468 JUMP JUMPDEST PUSH1 0x24 CALLDATALOAD SWAP1 PUSH8 0xFFFFFFFFFFFFFFFF DUP3 GT PUSH2 0x2AB JUMPI CALLDATASIZE PUSH1 0x23 DUP4 ADD SLT ISZERO PUSH2 0x2AB JUMPI DUP2 PUSH1 0x4 ADD CALLDATALOAD PUSH2 0x1641 DUP2 PUSH2 0x25B5 JUMP JUMPDEST PUSH2 0x164E PUSH1 0x40 MLOAD SWAP2 DUP3 PUSH2 0x2593 JUMP JUMPDEST DUP2 DUP2 MSTORE DUP5 PUSH1 0x20 SWAP5 DUP6 DUP4 ADD SWAP4 CALLDATASIZE PUSH1 0x24 DUP3 DUP5 ADD ADD GT PUSH2 0x2AB JUMPI DUP1 PUSH1 0x24 DUP9 SWAP4 ADD DUP7 CALLDATACOPY DUP4 ADD ADD MSTORE PUSH1 0x1 PUSH1 0x1 PUSH1 0xA0 SHL SUB PUSH32 0x0 DUP2 AND SWAP1 PUSH2 0x16A9 ADDRESS DUP4 EQ ISZERO PUSH2 0x2BE9 JUMP JUMPDEST PUSH2 0x16C6 PUSH1 0x0 DUP1 MLOAD PUSH1 0x20 PUSH2 0x31DA DUP4 CODECOPY DUP2 MLOAD SWAP2 MSTORE SWAP3 DUP3 DUP5 SLOAD AND EQ PUSH2 0x2C4A JUMP JUMPDEST PUSH2 0x16CE PUSH2 0x2636 JUMP JUMPDEST PUSH32 0x4910FDFA16FED3260ED0E7147F7CC6DA11A60208B5B9406D12A635614FFD9143 SLOAD PUSH1 0xFF AND ISZERO PUSH2 0x1706 JUMPI POP POP POP POP PUSH2 0x44F SWAP2 POP PUSH2 0x2CAB JUMP JUMPDEST DUP5 SWAP3 SWAP4 SWAP5 AND SWAP1 PUSH1 0x40 MLOAD PUSH4 0x52D1902D PUSH1 0xE0 SHL DUP2 MSTORE DUP7 DUP2 PUSH1 0x4 DUP2 DUP7 GAS STATICCALL DUP9 SWAP2 DUP2 PUSH2 0x18C9 JUMPI JUMPDEST POP PUSH2 0x178A JUMPI PUSH1 0x40 MLOAD PUSH3 0x461BCD PUSH1 0xE5 SHL DUP2 MSTORE PUSH1 0x4 DUP2 ADD DUP9 SWAP1 MSTORE PUSH1 0x2E PUSH1 0x24 DUP3 ADD MSTORE PUSH32 0x45524331393637557067726164653A206E657720696D706C656D656E74617469 PUSH1 0x44 DUP3 ADD MSTORE PUSH14 0x6F6E206973206E6F742055555053 PUSH1 0x90 SHL PUSH1 0x64 DUP3 ADD MSTORE PUSH1 0x84 SWAP1 REVERT JUMPDEST SWAP6 SWAP4 SWAP5 SWAP6 SUB PUSH2 0x1872 JUMPI PUSH2 0x179C DUP3 PUSH2 0x2CAB JUMP JUMPDEST PUSH32 0xBC7CD75A20EE27FD9ADEBAB32041F755214DBC6BFFA90CC0225B39DA2E5C2D3B DUP7 DUP1 LOG2 DUP5 DUP4 MLOAD ISZERO DUP1 ISZERO SWAP1 PUSH2 0x186A JUMPI JUMPDEST PUSH2 0x17D9 JUMPI JUMPDEST POP POP POP POP POP DUP1 RETURN JUMPDEST DUP1 PUSH2 0x1856 SWAP6 PUSH1 0x40 MLOAD SWAP6 PUSH2 0x17EB DUP8 PUSH2 0x253F JUMP JUMPDEST PUSH1 0x27 DUP8 MSTORE PUSH32 0x416464726573733A206C6F772D6C6576656C2064656C65676174652063616C6C DUP7 DUP9 ADD MSTORE PUSH7 0x819985A5B1959 PUSH1 0xCA SHL PUSH1 0x40 DUP9 ADD MSTORE MLOAD SWAP1 DUP5 GAS DELEGATECALL SWAP1 RETURNDATASIZE ISZERO PUSH2 0x1861 JUMPI RETURNDATASIZE PUSH2 0x183A DUP2 PUSH2 0x25B5 JUMP JUMPDEST SWAP1 PUSH2 0x1848 PUSH1 0x40 MLOAD SWAP3 DUP4 PUSH2 0x2593 JUMP JUMPDEST DUP2 MSTORE DUP7 DUP2 SWAP5 RETURNDATASIZE SWAP3 ADD RETURNDATACOPY PUSH2 0x2D3B JUMP JUMPDEST POP DUP2 DUP1 DUP1 DUP1 DUP5 PUSH2 0x17D1 JUMP JUMPDEST PUSH1 0x60 SWAP3 POP PUSH2 0x2D3B JUMP JUMPDEST POP PUSH1 0x1 PUSH2 0x17CC JUMP JUMPDEST PUSH1 0x40 MLOAD PUSH3 0x461BCD PUSH1 0xE5 SHL DUP2 MSTORE PUSH1 0x4 DUP2 ADD DUP5 SWAP1 MSTORE PUSH1 0x29 PUSH1 0x24 DUP3 ADD MSTORE PUSH32 0x45524331393637557067726164653A20756E737570706F727465642070726F78 PUSH1 0x44 DUP3 ADD MSTORE PUSH9 0x1A58589B1955555251 PUSH1 0xBA SHL PUSH1 0x64 DUP3 ADD MSTORE PUSH1 0x84 SWAP1 REVERT JUMPDEST SWAP1 SWAP2 POP DUP8 DUP2 DUP2 RETURNDATASIZE DUP4 GT PUSH2 0x18F5 JUMPI JUMPDEST PUSH2 0x18E1 DUP2 DUP4 PUSH2 0x2593 JUMP JUMPDEST DUP2 ADD SUB SLT PUSH2 0x18F1 JUMPI MLOAD SWAP1 DUP10 PUSH2 0x1729 JUMP JUMPDEST DUP9 DUP1 REVERT JUMPDEST POP RETURNDATASIZE PUSH2 0x18D7 JUMP JUMPDEST DUP3 CALLVALUE PUSH2 0x2AF JUMPI PUSH1 0x20 CALLDATASIZE PUSH1 0x3 NOT ADD SLT PUSH2 0x2AF JUMPI PUSH1 0x4 CALLDATALOAD DUP1 ISZERO ISZERO DUP1 SWAP2 SUB PUSH2 0x3D6 JUMPI PUSH2 0x1923 PUSH2 0x2B48 JUMP JUMPDEST PUSH2 0x165 SWAP1 PUSH1 0xFF DUP1 NOT DUP4 SLOAD AND SWAP2 AND OR SWAP1 SSTORE DUP1 RETURN JUMPDEST DUP3 CALLVALUE PUSH2 0x2AF JUMPI PUSH1 0x20 CALLDATASIZE PUSH1 0x3 NOT ADD SLT PUSH2 0x2AF JUMPI PUSH2 0x1950 PUSH2 0x2468 JUMP JUMPDEST PUSH2 0x1958 PUSH2 0x2B48 JUMP JUMPDEST PUSH2 0x162 DUP1 SLOAD PUSH1 0x1 PUSH1 0x1 PUSH1 0xA0 SHL SUB NOT AND PUSH1 0x1 PUSH1 0x1 PUSH1 0xA0 SHL SUB SWAP1 SWAP3 AND SWAP2 SWAP1 SWAP2 OR SWAP1 SSTORE DUP1 RETURN JUMPDEST DUP3 CALLVALUE PUSH2 0x2AF JUMPI DUP1 PUSH1 0x3 NOT CALLDATASIZE ADD SLT PUSH2 0x2AF JUMPI PUSH2 0x161 SLOAD PUSH1 0x40 MLOAD PUSH1 0x1 PUSH1 0x1 PUSH1 0xA0 SHL SUB SWAP1 SWAP2 AND DUP2 MSTORE PUSH1 0x20 SWAP1 RETURN JUMPDEST DUP3 CALLVALUE PUSH2 0x2AF JUMPI DUP1 PUSH1 0x3 NOT CALLDATASIZE ADD SLT PUSH2 0x2AF JUMPI PUSH2 0x19BE PUSH2 0x2850 JUMP JUMPDEST PUSH1 0x33 SLOAD PUSH1 0xFF DUP2 AND ISZERO PUSH2 0x19FE JUMPI PUSH1 0xFF NOT AND PUSH1 0x33 SSTORE PUSH32 0x5DB9EE0A495BF2E6FF9C91A7834C1BA4FDD244A5E8AA4E537BD38AEAE4B073AA PUSH1 0x20 PUSH1 0x40 MLOAD CALLER DUP2 MSTORE LOG1 DUP1 RETURN JUMPDEST PUSH1 0x40 MLOAD PUSH3 0x461BCD PUSH1 0xE5 SHL DUP2 MSTORE PUSH1 0x20 PUSH1 0x4 DUP3 ADD MSTORE PUSH1 0x14 PUSH1 0x24 DUP3 ADD MSTORE PUSH20 0x14185D5CD8589B194E881B9BDD081C185D5CD959 PUSH1 0x62 SHL PUSH1 0x44 DUP3 ADD MSTORE PUSH1 0x64 SWAP1 REVERT JUMPDEST DUP3 CALLVALUE PUSH2 0x2AF JUMPI DUP1 PUSH1 0x3 NOT CALLDATASIZE ADD SLT PUSH2 0x2AF JUMPI PUSH1 0x40 MLOAD PUSH2 0x167 DUP1 SLOAD DUP1 DUP4 MSTORE SWAP1 DUP4 MSTORE PUSH1 0x20 DUP1 DUP4 ADD SWAP4 PUSH32 0x25F925B23C02F7114773957B1A876F2AF957C14A29118DC622648C445020DCF SWAP3 SWAP2 JUMPDEST DUP3 DUP3 LT PUSH2 0x1A9A JUMPI PUSH2 0x3BB DUP6 PUSH2 0x3AF DUP2 DUP10 SUB DUP3 PUSH2 0x2593 JUMP JUMPDEST DUP4 SLOAD DUP7 MSTORE SWAP5 DUP6 ADD SWAP5 PUSH1 0x1 SWAP4 DUP5 ADD SWAP4 SWAP1 SWAP2 ADD SWAP1 PUSH2 0x1A83 JUMP JUMPDEST DUP3 CALLVALUE PUSH2 0x2AF JUMPI PUSH1 0x20 DUP1 PUSH1 0x3 NOT CALLDATASIZE ADD SLT PUSH2 0x3D6 JUMPI PUSH2 0x1ACC PUSH2 0x2468 JUMP JUMPDEST PUSH1 0x1 PUSH1 0x1 PUSH1 0xA0 SHL SUB PUSH32 0x0 DUP2 AND PUSH2 0x1B03 ADDRESS DUP3 EQ ISZERO PUSH2 0x2BE9 JUMP JUMPDEST PUSH2 0x1B20 PUSH1 0x0 DUP1 MLOAD PUSH1 0x20 PUSH2 0x31DA DUP4 CODECOPY DUP2 MLOAD SWAP2 MSTORE SWAP2 DUP4 DUP4 SLOAD AND EQ PUSH2 0x2C4A JUMP JUMPDEST PUSH2 0x1B28 PUSH2 0x2636 JUMP JUMPDEST PUSH1 0x40 MLOAD SWAP2 PUSH2 0x1B35 DUP4 PUSH2 0x2523 JUMP JUMPDEST DUP6 DUP4 MSTORE PUSH32 0x4910FDFA16FED3260ED0E7147F7CC6DA11A60208B5B9406D12A635614FFD9143 SLOAD PUSH1 0xFF AND ISZERO PUSH2 0x1B6F JUMPI POP POP POP PUSH2 0x44F SWAP2 POP PUSH2 0x2CAB JUMP JUMPDEST DUP4 AND SWAP1 PUSH1 0x40 MLOAD PUSH4 0x52D1902D PUSH1 0xE0 SHL DUP2 MSTORE DUP6 DUP2 PUSH1 0x4 DUP2 DUP7 GAS STATICCALL DUP8 SWAP2 DUP2 PUSH2 0x1D08 JUMPI JUMPDEST POP PUSH2 0x1BF0 JUMPI PUSH1 0x40 MLOAD PUSH3 0x461BCD PUSH1 0xE5 SHL DUP2 MSTORE PUSH1 0x4 DUP2 ADD DUP8 SWAP1 MSTORE PUSH1 0x2E PUSH1 0x24 DUP3 ADD MSTORE PUSH32 0x45524331393637557067726164653A206E657720696D706C656D656E74617469 PUSH1 0x44 DUP3 ADD MSTORE PUSH14 0x6F6E206973206E6F742055555053 PUSH1 0x90 SHL PUSH1 0x64 DUP3 ADD MSTORE PUSH1 0x84 SWAP1 REVERT JUMPDEST SWAP5 SWAP3 SWAP4 SWAP5 SUB PUSH2 0x1CB1 JUMPI PUSH2 0x1C02 DUP5 PUSH2 0x2CAB JUMP JUMPDEST PUSH32 0xBC7CD75A20EE27FD9ADEBAB32041F755214DBC6BFFA90CC0225B39DA2E5C2D3B DUP6 DUP1 LOG2 DUP2 MLOAD ISZERO DUP1 ISZERO SWAP1 PUSH2 0x1CAA JUMPI JUMPDEST PUSH2 0x1C3C JUMPI JUMPDEST POP POP POP DUP1 RETURN JUMPDEST PUSH2 0x1CA1 SWAP3 DUP5 DUP1 PUSH1 0x40 MLOAD SWAP5 PUSH2 0x1C4F DUP7 PUSH2 0x253F JUMP JUMPDEST PUSH1 0x27 DUP7 MSTORE PUSH32 0x416464726573733A206C6F772D6C6576656C2064656C65676174652063616C6C DUP6 DUP8 ADD MSTORE PUSH7 0x819985A5B1959 PUSH1 0xCA SHL PUSH1 0x40 DUP8 ADD MSTORE DUP5 DUP2 MLOAD SWAP2 ADD DUP5 GAS DELEGATECALL SWAP1 RETURNDATASIZE ISZERO PUSH2 0x1861 JUMPI RETURNDATASIZE PUSH2 0x183A DUP2 PUSH2 0x25B5 JUMP JUMPDEST POP DUP2 DUP1 DUP1 PUSH2 0x1C36 JUMP JUMPDEST POP DUP4 PUSH2 0x1C31 JUMP JUMPDEST PUSH1 0x40 MLOAD PUSH3 0x461BCD PUSH1 0xE5 SHL DUP2 MSTORE PUSH1 0x4 DUP2 ADD DUP4 SWAP1 MSTORE PUSH1 0x29 PUSH1 0x24 DUP3 ADD MSTORE PUSH32 0x45524331393637557067726164653A20756E737570706F727465642070726F78 PUSH1 0x44 DUP3 ADD MSTORE PUSH9 0x1A58589B1955555251 PUSH1 0xBA SHL PUSH1 0x64 DUP3 ADD MSTORE PUSH1 0x84 SWAP1 REVERT JUMPDEST SWAP1 SWAP2 POP DUP7 DUP2 DUP2 RETURNDATASIZE DUP4 GT PUSH2 0x1D34 JUMPI JUMPDEST PUSH2 0x1D20 DUP2 DUP4 PUSH2 0x2593 JUMP JUMPDEST DUP2 ADD SUB SLT PUSH2 0x1D30 JUMPI MLOAD SWAP1 DUP9 PUSH2 0x1B8F JUMP JUMPDEST DUP8 DUP1 REVERT JUMPDEST POP RETURNDATASIZE PUSH2 0x1D16 JUMP JUMPDEST DUP3 CALLVALUE PUSH2 0x2AF JUMPI PUSH1 0x40 CALLDATASIZE PUSH1 0x3 NOT ADD SLT PUSH2 0x2AF JUMPI PUSH2 0x1D55 PUSH2 0x2483 JUMP JUMPDEST CALLER PUSH1 0x1 PUSH1 0x1 PUSH1 0xA0 SHL SUB DUP3 AND SUB PUSH2 0x1D71 JUMPI PUSH2 0x44F SWAP1 PUSH1 0x4 CALLDATALOAD PUSH2 0x2AD2 JUMP JUMPDEST PUSH1 0x40 MLOAD PUSH3 0x461BCD PUSH1 0xE5 SHL DUP2 MSTORE PUSH1 0x20 PUSH1 0x4 DUP3 ADD MSTORE PUSH1 0x2F PUSH1 0x24 DUP3 ADD MSTORE PUSH32 0x416363657373436F6E74726F6C3A2063616E206F6E6C792072656E6F756E6365 PUSH1 0x44 DUP3 ADD MSTORE PUSH15 0x103937B632B9903337B91039B2B633 PUSH1 0x89 SHL PUSH1 0x64 DUP3 ADD MSTORE PUSH1 0x84 SWAP1 REVERT JUMPDEST DUP3 CALLVALUE PUSH2 0x2AF JUMPI PUSH1 0x40 CALLDATASIZE PUSH1 0x3 NOT ADD SLT PUSH2 0x2AF JUMPI PUSH1 0x4 CALLDATALOAD PUSH2 0x1DEB PUSH2 0x2483 JUMP JUMPDEST DUP2 DUP4 MSTORE PUSH1 0x97 PUSH1 0x20 MSTORE PUSH2 0x1E03 PUSH1 0x1 PUSH1 0x40 DUP6 KECCAK256 ADD SLOAD PUSH2 0x298A JUMP JUMPDEST DUP2 DUP4 MSTORE PUSH1 0x97 PUSH1 0x20 MSTORE PUSH1 0x40 DUP4 KECCAK256 SWAP1 PUSH1 0x1 DUP1 PUSH1 0xA0 SHL SUB AND SWAP1 DUP2 DUP5 MSTORE PUSH1 0x20 MSTORE PUSH1 0xFF PUSH1 0x40 DUP5 KECCAK256 SLOAD AND ISZERO PUSH2 0x1E30 JUMPI DUP3 DUP1 RETURN JUMPDEST DUP2 DUP4 MSTORE PUSH1 0x97 PUSH1 0x20 MSTORE PUSH1 0x40 DUP4 KECCAK256 DUP2 DUP5 MSTORE PUSH1 0x20 MSTORE PUSH1 0x40 DUP4 KECCAK256 PUSH1 0x1 PUSH1 0xFF NOT DUP3 SLOAD AND OR SWAP1 SSTORE CALLER SWAP2 PUSH1 0x0 DUP1 MLOAD PUSH1 0x20 PUSH2 0x31BA DUP4 CODECOPY DUP2 MLOAD SWAP2 MSTORE DUP5 DUP1 LOG4 DUP2 DUP1 DUP3 DUP1 RETURN JUMPDEST DUP3 CALLVALUE PUSH2 0x2AF JUMPI PUSH1 0x20 CALLDATASIZE PUSH1 0x3 NOT ADD SLT PUSH2 0x2AF JUMPI PUSH1 0x40 PUSH1 0xA0 SWAP2 PUSH1 0x4 CALLDATALOAD DUP2 MSTORE PUSH2 0x16A PUSH1 0x20 MSTORE KECCAK256 DUP1 SLOAD SWAP1 PUSH1 0x1 DUP1 DUP5 SHL SUB SWAP1 DUP2 PUSH1 0x1 DUP3 ADD SLOAD AND SWAP2 PUSH1 0x2 DUP3 ADD SLOAD AND PUSH1 0x4 PUSH1 0x3 DUP4 ADD SLOAD SWAP3 ADD SLOAD SWAP3 PUSH1 0x40 MLOAD SWAP5 DUP6 MSTORE PUSH1 0x20 DUP6 ADD MSTORE PUSH1 0x40 DUP5 ADD MSTORE PUSH1 0x60 DUP4 ADD MSTORE PUSH1 0x80 DUP3 ADD MSTORE RETURN JUMPDEST DUP3 CALLVALUE PUSH2 0x2AF JUMPI PUSH1 0x20 CALLDATASIZE PUSH1 0x3 NOT ADD SLT PUSH2 0x2AF JUMPI PUSH1 0x1 PUSH1 0x40 PUSH1 0x20 SWAP3 PUSH1 0x4 CALLDATALOAD DUP2 MSTORE PUSH1 0x97 DUP5 MSTORE KECCAK256 ADD SLOAD PUSH1 0x40 MLOAD SWAP1 DUP2 MSTORE RETURN JUMPDEST DUP3 CALLVALUE PUSH2 0x2AF JUMPI PUSH1 0xA0 CALLDATASIZE PUSH1 0x3 NOT ADD SLT PUSH2 0x2AF JUMPI PUSH2 0x1F14 PUSH2 0x2468 JUMP JUMPDEST PUSH2 0x1F1C PUSH2 0x2483 JUMP JUMPDEST PUSH1 0x44 CALLDATALOAD PUSH1 0x1 PUSH1 0x1 PUSH1 0xA0 SHL SUB DUP2 AND DUP2 SUB PUSH2 0xA66 JUMPI PUSH1 0x64 CALLDATALOAD SWAP2 PUSH1 0x1 PUSH1 0x1 PUSH1 0xA0 SHL SUB DUP4 AND DUP4 SUB PUSH2 0xFFA JUMPI PUSH3 0xFFFFFF PUSH1 0x84 CALLDATALOAD AND PUSH1 0x84 CALLDATALOAD SUB PUSH2 0xFFA JUMPI DUP5 SLOAD SWAP4 PUSH1 0xFF DUP6 PUSH1 0x8 SHR AND ISZERO SWAP5 DUP6 DUP1 SWAP7 PUSH2 0x2283 JUMPI JUMPDEST DUP1 ISZERO PUSH2 0x226C JUMPI JUMPDEST ISZERO PUSH2 0x2210 JUMPI PUSH1 0xFF NOT DUP2 AND PUSH1 0x1 OR DUP8 SSTORE DUP6 PUSH2 0x21FF JUMPI JUMPDEST POP PUSH2 0x1FCB PUSH1 0xFF DUP8 SLOAD PUSH1 0x8 SHR AND PUSH2 0x1F98 DUP2 PUSH2 0x2EF1 JUMP JUMPDEST PUSH2 0x1FA1 DUP2 PUSH2 0x2EF1 JUMP JUMPDEST PUSH1 0xFF NOT PUSH1 0x33 SLOAD AND PUSH1 0x33 SSTORE PUSH2 0x1FB4 DUP2 PUSH2 0x2EF1 JUMP JUMPDEST PUSH2 0x1FBD DUP2 PUSH2 0x2EF1 JUMP JUMPDEST PUSH2 0x1FC6 DUP2 PUSH2 0x2EF1 JUMP JUMPDEST PUSH2 0x2EF1 JUMP JUMPDEST PUSH2 0x1FD4 CALLER PUSH2 0x2BA0 JUMP JUMPDEST DUP6 DUP1 MSTORE PUSH1 0x97 PUSH1 0x20 DUP2 DUP2 MSTORE PUSH1 0x40 DUP1 DUP10 KECCAK256 PUSH1 0x1 PUSH1 0x1 PUSH1 0xA0 SHL SUB DUP6 AND DUP1 DUP12 MSTORE SWAP3 MSTORE DUP9 KECCAK256 SLOAD SWAP1 SWAP2 SWAP1 PUSH1 0xFF AND ISZERO PUSH2 0x21C5 JUMPI JUMPDEST PUSH32 0x65D7A28E3265B37A6474929F336521B332C1681B933F6CB9F3376673440D862A DUP1 DUP10 MSTORE DUP2 PUSH1 0x20 MSTORE PUSH1 0x40 DUP10 KECCAK256 DUP4 DUP11 MSTORE PUSH1 0x20 MSTORE PUSH1 0xFF PUSH1 0x40 DUP11 KECCAK256 SLOAD AND ISZERO PUSH2 0x218A JUMPI JUMPDEST POP PUSH32 0x189AB7A9244DF0848122154315AF71FE140F3DB0FE014031783B0946B8C9D2E3 SWAP1 DUP2 DUP10 MSTORE DUP1 PUSH1 0x20 MSTORE PUSH1 0x40 DUP10 KECCAK256 DUP4 DUP11 MSTORE PUSH1 0x20 MSTORE PUSH1 0xFF PUSH1 0x40 DUP11 KECCAK256 SLOAD AND ISZERO PUSH2 0x214F JUMPI JUMPDEST POP POP PUSH2 0x208D PUSH2 0x2B48 JUMP JUMPDEST ISZERO PUSH2 0x452 JUMPI PUSH2 0x209B SWAP1 PUSH2 0x2BA0 JUMP JUMPDEST PUSH2 0x161 DUP1 SLOAD PUSH1 0x1 PUSH1 0x1 PUSH1 0xA0 SHL SUB NOT SWAP1 DUP2 AND PUSH1 0x1 PUSH1 0x1 PUSH1 0xA0 SHL SUB SWAP4 DUP5 AND OR SWAP1 SWAP2 SSTORE PUSH2 0x162 DUP1 SLOAD SWAP1 SWAP2 AND SWAP3 DUP3 AND SWAP3 SWAP1 SWAP3 OR SWAP1 SWAP2 SSTORE PUSH2 0x163 DUP1 SLOAD PUSH1 0x1 PUSH1 0x1 PUSH1 0xB8 SHL SUB NOT AND SWAP3 SWAP1 SWAP2 AND SWAP2 SWAP1 SWAP2 OR PUSH1 0x84 CALLDATALOAD PUSH1 0xA0 SHL PUSH3 0xFFFFFF PUSH1 0xA0 SHL AND OR SWAP1 SSTORE PUSH3 0x30D40 PUSH2 0x15F SSTORE PUSH1 0xA PUSH2 0x164 SSTORE PUSH2 0x165 DUP1 SLOAD PUSH1 0xFF NOT AND PUSH1 0x1 OR SWAP1 SSTORE PUSH2 0x2118 JUMPI DUP1 RETURN JUMPDEST PUSH2 0xFF00 NOT DUP2 SLOAD AND DUP2 SSTORE PUSH32 0x7F26B83FF96E1F2B6A682F133852F6798A09C465DA95921460CEFB3847402498 PUSH1 0x20 PUSH1 0x40 MLOAD PUSH1 0x1 DUP2 MSTORE LOG1 DUP1 RETURN JUMPDEST DUP2 DUP10 MSTORE PUSH1 0x20 MSTORE PUSH1 0x40 DUP9 KECCAK256 DUP3 DUP10 MSTORE PUSH1 0x20 MSTORE PUSH1 0x40 DUP9 KECCAK256 PUSH1 0x1 PUSH1 0xFF NOT DUP3 SLOAD AND OR SWAP1 SSTORE DUP2 CALLER SWAP2 PUSH1 0x0 DUP1 MLOAD PUSH1 0x20 PUSH2 0x31BA DUP4 CODECOPY DUP2 MLOAD SWAP2 MSTORE DUP11 DUP1 LOG4 DUP8 DUP1 PUSH2 0x2083 JUMP JUMPDEST DUP1 DUP10 MSTORE DUP2 PUSH1 0x20 MSTORE PUSH1 0x40 DUP10 KECCAK256 DUP4 DUP11 MSTORE PUSH1 0x20 MSTORE PUSH1 0x40 DUP10 KECCAK256 PUSH1 0x1 PUSH1 0xFF NOT DUP3 SLOAD AND OR SWAP1 SSTORE DUP3 CALLER SWAP2 PUSH1 0x0 DUP1 MLOAD PUSH1 0x20 PUSH2 0x31BA DUP4 CODECOPY DUP2 MLOAD SWAP2 MSTORE DUP12 DUP1 LOG4 DUP9 PUSH2 0x2041 JUMP JUMPDEST DUP8 DUP1 MSTORE DUP1 PUSH1 0x20 MSTORE PUSH1 0x40 DUP9 KECCAK256 DUP3 DUP10 MSTORE PUSH1 0x20 MSTORE PUSH1 0x40 DUP9 KECCAK256 PUSH1 0x1 PUSH1 0xFF NOT DUP3 SLOAD AND OR SWAP1 SSTORE CALLER DUP3 DUP10 PUSH1 0x0 DUP1 MLOAD PUSH1 0x20 PUSH2 0x31BA DUP4 CODECOPY DUP2 MLOAD SWAP2 MSTORE DUP2 DUP1 LOG4 PUSH2 0x2001 JUMP JUMPDEST PUSH2 0xFFFF NOT AND PUSH2 0x101 OR DUP7 SSTORE DUP7 PUSH2 0x1F83 JUMP JUMPDEST PUSH1 0x40 MLOAD PUSH3 0x461BCD PUSH1 0xE5 SHL DUP2 MSTORE PUSH1 0x20 PUSH1 0x4 DUP3 ADD MSTORE PUSH1 0x2E PUSH1 0x24 DUP3 ADD MSTORE PUSH32 0x496E697469616C697A61626C653A20636F6E747261637420697320616C726561 PUSH1 0x44 DUP3 ADD MSTORE PUSH14 0x191E481A5B9A5D1A585B1A5E9959 PUSH1 0x92 SHL PUSH1 0x64 DUP3 ADD MSTORE PUSH1 0x84 SWAP1 REVERT JUMPDEST POP ADDRESS EXTCODESIZE ISZERO DUP1 ISZERO PUSH2 0x1F6E JUMPI POP PUSH1 0x1 PUSH1 0xFF DUP3 AND EQ PUSH2 0x1F6E JUMP JUMPDEST POP PUSH1 0x1 PUSH1 0xFF DUP3 AND LT PUSH2 0x1F67 JUMP JUMPDEST DUP3 CALLVALUE PUSH2 0x2AF JUMPI PUSH1 0x20 CALLDATASIZE PUSH1 0x3 NOT ADD SLT PUSH2 0x2AF JUMPI PUSH1 0x4 CALLDATALOAD DUP2 MSTORE PUSH2 0x16A PUSH1 0x20 MSTORE PUSH1 0x40 DUP2 KECCAK256 PUSH1 0x40 MLOAD SWAP1 PUSH2 0x22BE DUP3 PUSH2 0x24D4 JUMP JUMPDEST DUP1 SLOAD DUP3 MSTORE PUSH1 0x1 DUP1 PUSH1 0xA0 SHL SUB SWAP2 DUP3 PUSH1 0x1 DUP4 ADD SLOAD AND SWAP3 PUSH1 0x20 DUP3 ADD SWAP2 DUP5 DUP4 MSTORE PUSH2 0x230B DUP3 PUSH1 0x2 DUP7 ADD SLOAD AND SWAP6 PUSH1 0x40 DUP4 ADD SWAP7 DUP8 MSTORE PUSH1 0x80 PUSH1 0x4 PUSH1 0x3 DUP9 ADD SLOAD SWAP8 PUSH1 0x60 DUP7 ADD SWAP9 DUP10 MSTORE ADD SLOAD SWAP4 ADD SWAP3 DUP4 MSTORE CALLER EQ PUSH2 0x2FB7 JUMP JUMPDEST MLOAD TIMESTAMP GT ISZERO PUSH2 0x2362 JUMPI DUP1 DUP6 SWAP5 MLOAD AND SWAP2 DUP3 ISZERO PUSH1 0x0 EQ PUSH2 0x2352 JUMPI POP POP POP DUP2 DUP1 DUP1 SWAP3 MLOAD DUP2 DUP2 ISZERO PUSH2 0x2349 JUMPI JUMPDEST CALLER SWAP1 CALL ISZERO PUSH2 0x233D JUMPI DUP1 RETURN JUMPDEST PUSH1 0x40 MLOAD SWAP1 RETURNDATASIZE SWAP1 DUP3 RETURNDATACOPY RETURNDATASIZE SWAP1 REVERT JUMPDEST POP PUSH2 0x8FC PUSH2 0x2332 JUMP JUMPDEST PUSH2 0x44F SWAP5 POP MLOAD AND SWAP2 MLOAD SWAP2 ADDRESS PUSH2 0x30FC JUMP JUMPDEST PUSH1 0x40 MLOAD PUSH3 0x461BCD PUSH1 0xE5 SHL DUP2 MSTORE PUSH1 0x20 PUSH1 0x4 DUP3 ADD MSTORE PUSH1 0x14 PUSH1 0x24 DUP3 ADD MSTORE PUSH20 0x111958591B1A5B99481B9BDD081C995858DA1959 PUSH1 0x62 SHL PUSH1 0x44 DUP3 ADD MSTORE PUSH1 0x64 SWAP1 REVERT JUMPDEST DUP3 CALLVALUE PUSH2 0x2AF JUMPI PUSH1 0x20 CALLDATASIZE PUSH1 0x3 NOT ADD SLT PUSH2 0x2AF JUMPI PUSH1 0xFF PUSH1 0x40 PUSH1 0x20 SWAP3 PUSH1 0x4 CALLDATALOAD DUP2 MSTORE PUSH2 0x16C DUP5 MSTORE KECCAK256 SLOAD AND PUSH1 0x40 MLOAD SWAP1 ISZERO ISZERO DUP2 MSTORE RETURN JUMPDEST DUP3 CALLVALUE PUSH2 0x2AF JUMPI PUSH1 0x20 CALLDATASIZE PUSH1 0x3 NOT ADD SLT PUSH2 0x2AF JUMPI PUSH2 0x23E8 PUSH2 0x2468 JUMP JUMPDEST PUSH2 0x23F0 PUSH2 0x2B48 JUMP JUMPDEST PUSH2 0x161 DUP1 SLOAD PUSH1 0x1 PUSH1 0x1 PUSH1 0xA0 SHL SUB NOT AND PUSH1 0x1 PUSH1 0x1 PUSH1 0xA0 SHL SUB SWAP1 SWAP3 AND SWAP2 SWAP1 SWAP2 OR SWAP1 SSTORE DUP1 RETURN JUMPDEST DUP4 SWAP1 CALLVALUE PUSH2 0x3D6 JUMPI PUSH1 0x20 CALLDATASIZE PUSH1 0x3 NOT ADD SLT PUSH2 0x3D6 JUMPI PUSH1 0x4 CALLDATALOAD PUSH4 0xFFFFFFFF PUSH1 0xE0 SHL DUP2 AND DUP1 SWAP2 SUB PUSH2 0x2AB JUMPI PUSH1 0x20 SWAP3 POP PUSH4 0x7965DB0B PUSH1 0xE0 SHL DUP2 EQ SWAP1 DUP2 ISZERO PUSH2 0x2457 JUMPI JUMPDEST POP ISZERO ISZERO DUP2 MSTORE RETURN JUMPDEST PUSH4 0x1FFC9A7 PUSH1 0xE0 SHL EQ SWAP1 POP DUP4 PUSH2 0x2450 JUMP JUMPDEST PUSH1 0x4 CALLDATALOAD SWAP1 PUSH1 0x1 PUSH1 0x1 PUSH1 0xA0 SHL SUB DUP3 AND DUP3 SUB PUSH2 0x247E JUMPI JUMP JUMPDEST PUSH1 0x0 DUP1 REVERT JUMPDEST PUSH1 0x24 CALLDATALOAD SWAP1 PUSH1 0x1 PUSH1 0x1 PUSH1 0xA0 SHL SUB DUP3 AND DUP3 SUB PUSH2 0x247E JUMPI JUMP JUMPDEST PUSH1 0x20 SWAP1 DUP2 PUSH1 0x40 DUP2 DUP4 ADD SWAP3 DUP3 DUP2 MSTORE DUP6 MLOAD DUP1 SWAP5 MSTORE ADD SWAP4 ADD SWAP2 PUSH1 0x0 JUMPDEST DUP3 DUP2 LT PUSH2 0x24C0 JUMPI POP POP POP POP SWAP1 JUMP JUMPDEST DUP4 MLOAD DUP6 MSTORE SWAP4 DUP2 ADD SWAP4 SWAP3 DUP2 ADD SWAP3 PUSH1 0x1 ADD PUSH2 0x24B2 JUMP JUMPDEST PUSH1 0xA0 DUP2 ADD SWAP1 DUP2 LT PUSH8 0xFFFFFFFFFFFFFFFF DUP3 GT OR PUSH2 0x24F0 JUMPI PUSH1 0x40 MSTORE JUMP JUMPDEST PUSH4 0x4E487B71 PUSH1 0xE0 SHL PUSH1 0x0 MSTORE PUSH1 0x41 PUSH1 0x4 MSTORE PUSH1 0x24 PUSH1 0x0 REVERT JUMPDEST PUSH2 0x100 DUP2 ADD SWAP1 DUP2 LT PUSH8 0xFFFFFFFFFFFFFFFF DUP3 GT OR PUSH2 0x24F0 JUMPI PUSH1 0x40 MSTORE JUMP JUMPDEST PUSH1 0x20 DUP2 ADD SWAP1 DUP2 LT PUSH8 0xFFFFFFFFFFFFFFFF DUP3 GT OR PUSH2 0x24F0 JUMPI PUSH1 0x40 MSTORE JUMP JUMPDEST PUSH1 0x60 DUP2 ADD SWAP1 DUP2 LT PUSH8 0xFFFFFFFFFFFFFFFF DUP3 GT OR PUSH2 0x24F0 JUMPI PUSH1 0x40 MSTORE JUMP JUMPDEST PUSH1 0x40 DUP2 ADD SWAP1 DUP2 LT PUSH8 0xFFFFFFFFFFFFFFFF DUP3 GT OR PUSH2 0x24F0 JUMPI PUSH1 0x40 MSTORE JUMP JUMPDEST PUSH1 0x80 DUP2 ADD SWAP1 DUP2 LT PUSH8 0xFFFFFFFFFFFFFFFF DUP3 GT OR PUSH2 0x24F0 JUMPI PUSH1 0x40 MSTORE JUMP JUMPDEST SWAP1 PUSH1 0x1F DUP1 NOT SWAP2 ADD AND DUP2 ADD SWAP1 DUP2 LT PUSH8 0xFFFFFFFFFFFFFFFF DUP3 GT OR PUSH2 0x24F0 JUMPI PUSH1 0x40 MSTORE JUMP JUMPDEST PUSH8 0xFFFFFFFFFFFFFFFF DUP2 GT PUSH2 0x24F0 JUMPI PUSH1 0x1F ADD PUSH1 0x1F NOT AND PUSH1 0x20 ADD SWAP1 JUMP JUMPDEST PUSH2 0x167 DUP1 SLOAD DUP3 LT ISZERO PUSH2 0x2608 JUMPI PUSH1 0x0 MSTORE PUSH32 0x25F925B23C02F7114773957B1A876F2AF957C14A29118DC622648C445020DCF ADD SWAP1 PUSH1 0x0 SWAP1 JUMP JUMPDEST PUSH4 0x4E487B71 PUSH1 0xE0 SHL PUSH1 0x0 MSTORE PUSH1 0x32 PUSH1 0x4 MSTORE PUSH1 0x24 PUSH1 0x0 REVERT JUMPDEST DUP1 SLOAD DUP3 LT ISZERO PUSH2 0x2608 JUMPI PUSH1 0x0 MSTORE PUSH1 0x20 PUSH1 0x0 KECCAK256 ADD SWAP1 PUSH1 0x0 SWAP1 JUMP JUMPDEST CALLER PUSH1 0x0 SWAP1 DUP2 MSTORE PUSH32 0x75EF4A815C49ED748E152E890233829ACB868956B95BDA132B61406C3628008C PUSH1 0x20 SWAP1 DUP2 MSTORE PUSH1 0x40 DUP1 DUP4 KECCAK256 SLOAD SWAP1 SWAP3 PUSH32 0x189AB7A9244DF0848122154315AF71FE140F3DB0FE014031783B0946B8C9D2E3 SWAP2 PUSH1 0xFF AND ISZERO PUSH2 0x269A JUMPI POP POP POP POP JUMP JUMPDEST PUSH2 0x26A3 CALLER PUSH2 0x2E08 JUMP JUMPDEST SWAP2 DUP5 MLOAD SWAP1 PUSH2 0x26B0 DUP3 PUSH2 0x2577 JUMP JUMPDEST PUSH1 0x42 DUP3 MSTORE DUP5 DUP3 ADD SWAP3 PUSH1 0x60 CALLDATASIZE DUP6 CALLDATACOPY DUP3 MLOAD ISZERO PUSH2 0x283C JUMPI PUSH1 0x30 DUP5 MSTORE8 DUP3 MLOAD PUSH1 0x1 SWAP1 DUP2 LT ISZERO PUSH2 0x2828 JUMPI SWAP1 PUSH1 0x78 PUSH1 0x21 DUP6 ADD MSTORE8 PUSH1 0x41 SWAP2 JUMPDEST DUP1 DUP4 GT PUSH2 0x27CE JUMPI POP POP POP PUSH2 0x278C JUMPI PUSH1 0x48 PUSH2 0x2788 SWAP4 DUP7 SWAP4 PUSH2 0x276C SWAP4 PUSH2 0x275D SWAP9 MLOAD SWAP9 DUP10 SWAP4 PUSH23 0x20B1B1B2B9B9A1B7B73A3937B61D1030B1B1B7BAB73A1 PUSH1 0x4D SHL DUP11 DUP7 ADD MSTORE PUSH2 0x2734 DUP2 MLOAD DUP1 SWAP3 DUP13 PUSH1 0x37 DUP10 ADD SWAP2 ADD PUSH2 0x2A8A JUMP JUMPDEST DUP5 ADD SWAP2 PUSH17 0x1034B99036B4B9B9B4B733903937B6329 PUSH1 0x7D SHL PUSH1 0x37 DUP5 ADD MSTORE MLOAD DUP1 SWAP4 DUP7 DUP5 ADD SWAP1 PUSH2 0x2A8A JUMP JUMPDEST ADD SUB PUSH1 0x28 DUP2 ADD DUP8 MSTORE ADD DUP6 PUSH2 0x2593 JUMP JUMPDEST MLOAD SWAP3 DUP4 SWAP3 PUSH3 0x461BCD PUSH1 0xE5 SHL DUP5 MSTORE PUSH1 0x4 DUP5 ADD MSTORE PUSH1 0x24 DUP4 ADD SWAP1 PUSH2 0x2AAD JUMP JUMPDEST SUB SWAP1 REVERT JUMPDEST PUSH1 0x64 DUP5 DUP7 MLOAD SWAP1 PUSH3 0x461BCD PUSH1 0xE5 SHL DUP3 MSTORE DUP1 PUSH1 0x4 DUP4 ADD MSTORE PUSH1 0x24 DUP3 ADD MSTORE PUSH32 0x537472696E67733A20686578206C656E67746820696E73756666696369656E74 PUSH1 0x44 DUP3 ADD MSTORE REVERT JUMPDEST SWAP1 SWAP2 SWAP3 PUSH1 0xF DUP2 AND PUSH1 0x10 DUP2 LT ISZERO PUSH2 0x2814 JUMPI PUSH2 0x280D SWAP2 SWAP1 PUSH16 0x181899199A1A9B1B9C1CB0B131B232B3 PUSH1 0x81 SHL SWAP1 BYTE PUSH2 0x2803 DUP7 DUP9 PUSH2 0x2DD4 JUMP JUMPDEST MSTORE8 PUSH1 0x4 SHR SWAP4 PUSH2 0x2DE5 JUMP JUMPDEST SWAP2 SWAP1 PUSH2 0x26E0 JUMP JUMPDEST PUSH4 0x4E487B71 PUSH1 0xE0 SHL DUP5 MSTORE PUSH1 0x32 PUSH1 0x4 MSTORE PUSH1 0x24 DUP5 REVERT JUMPDEST PUSH4 0x4E487B71 PUSH1 0xE0 SHL DUP3 MSTORE PUSH1 0x32 PUSH1 0x4 MSTORE PUSH1 0x24 DUP3 REVERT JUMPDEST PUSH4 0x4E487B71 PUSH1 0xE0 SHL DUP2 MSTORE PUSH1 0x32 PUSH1 0x4 MSTORE PUSH1 0x24 SWAP1 REVERT JUMPDEST CALLER PUSH1 0x0 SWAP1 DUP2 MSTORE PUSH32 0x793844DA0378CA0230B21A4013EF02CF55735B90B39C85241478FF94B5ECEB28 PUSH1 0x20 SWAP1 DUP2 MSTORE PUSH1 0x40 DUP1 DUP4 KECCAK256 SLOAD SWAP1 SWAP3 PUSH32 0x65D7A28E3265B37A6474929F336521B332C1681B933F6CB9F3376673440D862A SWAP2 PUSH1 0xFF AND ISZERO PUSH2 0x28B4 JUMPI POP POP POP POP JUMP JUMPDEST PUSH2 0x28BD CALLER PUSH2 0x2E08 JUMP JUMPDEST SWAP2 DUP5 MLOAD SWAP1 PUSH2 0x28CA DUP3 PUSH2 0x2577 JUMP JUMPDEST PUSH1 0x42 DUP3 MSTORE DUP5 DUP3 ADD SWAP3 PUSH1 0x60 CALLDATASIZE DUP6 CALLDATACOPY DUP3 MLOAD ISZERO PUSH2 0x283C JUMPI PUSH1 0x30 DUP5 MSTORE8 DUP3 MLOAD PUSH1 0x1 SWAP1 DUP2 LT ISZERO PUSH2 0x2828 JUMPI SWAP1 PUSH1 0x78 PUSH1 0x21 DUP6 ADD MSTORE8 PUSH1 0x41 SWAP2 JUMPDEST DUP1 DUP4 GT PUSH2 0x294E JUMPI POP POP POP PUSH2 0x278C JUMPI PUSH1 0x48 PUSH2 0x2788 SWAP4 DUP7 SWAP4 PUSH2 0x276C SWAP4 PUSH2 0x275D SWAP9 MLOAD SWAP9 DUP10 SWAP4 PUSH23 0x20B1B1B2B9B9A1B7B73A3937B61D1030B1B1B7BAB73A1 PUSH1 0x4D SHL DUP11 DUP7 ADD MSTORE PUSH2 0x2734 DUP2 MLOAD DUP1 SWAP3 DUP13 PUSH1 0x37 DUP10 ADD SWAP2 ADD PUSH2 0x2A8A JUMP JUMPDEST SWAP1 SWAP2 SWAP3 PUSH1 0xF DUP2 AND PUSH1 0x10 DUP2 LT ISZERO PUSH2 0x2814 JUMPI PUSH2 0x2983 SWAP2 SWAP1 PUSH16 0x181899199A1A9B1B9C1CB0B131B232B3 PUSH1 0x81 SHL SWAP1 BYTE PUSH2 0x2803 DUP7 DUP9 PUSH2 0x2DD4 JUMP JUMPDEST SWAP2 SWAP1 PUSH2 0x28FA JUMP JUMPDEST PUSH1 0x0 SWAP1 DUP1 DUP3 MSTORE PUSH1 0x20 SWAP1 PUSH1 0x97 DUP3 MSTORE PUSH1 0x40 SWAP3 DUP4 DUP2 KECCAK256 CALLER DUP3 MSTORE DUP4 MSTORE PUSH1 0xFF DUP5 DUP3 KECCAK256 SLOAD AND ISZERO PUSH2 0x29B4 JUMPI POP POP POP POP JUMP JUMPDEST PUSH2 0x29BD CALLER PUSH2 0x2E08 JUMP JUMPDEST SWAP2 DUP5 MLOAD SWAP1 PUSH2 0x29CA DUP3 PUSH2 0x2577 JUMP JUMPDEST PUSH1 0x42 DUP3 MSTORE DUP5 DUP3 ADD SWAP3 PUSH1 0x60 CALLDATASIZE DUP6 CALLDATACOPY DUP3 MLOAD ISZERO PUSH2 0x283C JUMPI PUSH1 0x30 DUP5 MSTORE8 DUP3 MLOAD PUSH1 0x1 SWAP1 DUP2 LT ISZERO PUSH2 0x2828 JUMPI SWAP1 PUSH1 0x78 PUSH1 0x21 DUP6 ADD MSTORE8 PUSH1 0x41 SWAP2 JUMPDEST DUP1 DUP4 GT PUSH2 0x2A4E JUMPI POP POP POP PUSH2 0x278C JUMPI PUSH1 0x48 PUSH2 0x2788 SWAP4 DUP7 SWAP4 PUSH2 0x276C SWAP4 PUSH2 0x275D SWAP9 MLOAD SWAP9 DUP10 SWAP4 PUSH23 0x20B1B1B2B9B9A1B7B73A3937B61D1030B1B1B7BAB73A1 PUSH1 0x4D SHL DUP11 DUP7 ADD MSTORE PUSH2 0x2734 DUP2 MLOAD DUP1 SWAP3 DUP13 PUSH1 0x37 DUP10 ADD SWAP2 ADD PUSH2 0x2A8A JUMP JUMPDEST SWAP1 SWAP2 SWAP3 PUSH1 0xF DUP2 AND PUSH1 0x10 DUP2 LT ISZERO PUSH2 0x2814 JUMPI PUSH2 0x2A83 SWAP2 SWAP1 PUSH16 0x181899199A1A9B1B9C1CB0B131B232B3 PUSH1 0x81 SHL SWAP1 BYTE PUSH2 0x2803 DUP7 DUP9 PUSH2 0x2DD4 JUMP JUMPDEST SWAP2 SWAP1 PUSH2 0x29FA JUMP JUMPDEST PUSH1 0x0 JUMPDEST DUP4 DUP2 LT PUSH2 0x2A9D JUMPI POP POP PUSH1 0x0 SWAP2 ADD MSTORE JUMP JUMPDEST DUP2 DUP2 ADD MLOAD DUP4 DUP3 ADD MSTORE PUSH1 0x20 ADD PUSH2 0x2A8D JUMP JUMPDEST SWAP1 PUSH1 0x20 SWAP2 PUSH2 0x2AC6 DUP2 MLOAD DUP1 SWAP3 DUP2 DUP6 MSTORE DUP6 DUP1 DUP7 ADD SWAP2 ADD PUSH2 0x2A8A JUMP JUMPDEST PUSH1 0x1F ADD PUSH1 0x1F NOT AND ADD ADD SWAP1 JUMP JUMPDEST SWAP1 PUSH1 0x0 SWAP2 DUP1 DUP4 MSTORE PUSH1 0x97 PUSH1 0x20 MSTORE PUSH1 0x40 DUP4 KECCAK256 SWAP2 PUSH1 0x1 DUP1 PUSH1 0xA0 SHL SUB AND SWAP2 DUP3 DUP5 MSTORE PUSH1 0x20 MSTORE PUSH1 0xFF PUSH1 0x40 DUP5 KECCAK256 SLOAD AND PUSH2 0x2B03 JUMPI POP POP POP JUMP JUMPDEST DUP1 DUP4 MSTORE PUSH1 0x97 PUSH1 0x20 MSTORE PUSH1 0x40 DUP4 KECCAK256 DUP3 DUP5 MSTORE PUSH1 0x20 MSTORE PUSH1 0x40 DUP4 KECCAK256 PUSH1 0xFF NOT DUP2 SLOAD AND SWAP1 SSTORE PUSH32 0xF6391F5C32D9C69D2A47EA670B442974B53935D1EDC7FD64EB21E047A839171B CALLER SWAP4 DUP1 LOG4 JUMP JUMPDEST PUSH1 0xC9 SLOAD PUSH1 0x1 PUSH1 0x1 PUSH1 0xA0 SHL SUB AND CALLER SUB PUSH2 0x2B5C JUMPI JUMP JUMPDEST PUSH1 0x64 PUSH1 0x40 MLOAD PUSH3 0x461BCD PUSH1 0xE5 SHL DUP2 MSTORE PUSH1 0x20 PUSH1 0x4 DUP3 ADD MSTORE PUSH1 0x20 PUSH1 0x24 DUP3 ADD MSTORE PUSH32 0x4F776E61626C653A2063616C6C6572206973206E6F7420746865206F776E6572 PUSH1 0x44 DUP3 ADD MSTORE REVERT JUMPDEST PUSH1 0xC9 DUP1 SLOAD PUSH1 0x1 PUSH1 0x1 PUSH1 0xA0 SHL SUB SWAP3 DUP4 AND PUSH1 0x1 PUSH1 0x1 PUSH1 0xA0 SHL SUB NOT DUP3 AND DUP2 OR SWAP1 SWAP3 SSTORE SWAP1 SWAP2 AND PUSH32 0x8BE0079C531659141344CD1FD0A4F28419497F9722A3DAAFE3B4186F6B6457E0 PUSH1 0x0 DUP1 LOG3 JUMP JUMPDEST ISZERO PUSH2 0x2BF0 JUMPI JUMP JUMPDEST PUSH1 0x40 MLOAD PUSH3 0x461BCD PUSH1 0xE5 SHL DUP2 MSTORE PUSH1 0x20 PUSH1 0x4 DUP3 ADD MSTORE PUSH1 0x2C PUSH1 0x24 DUP3 ADD MSTORE PUSH32 0x46756E6374696F6E206D7573742062652063616C6C6564207468726F75676820 PUSH1 0x44 DUP3 ADD MSTORE PUSH12 0x19195B1959D85D1958D85B1B PUSH1 0xA2 SHL PUSH1 0x64 DUP3 ADD MSTORE PUSH1 0x84 SWAP1 REVERT JUMPDEST ISZERO PUSH2 0x2C51 JUMPI JUMP JUMPDEST PUSH1 0x40 MLOAD PUSH3 0x461BCD PUSH1 0xE5 SHL DUP2 MSTORE PUSH1 0x20 PUSH1 0x4 DUP3 ADD MSTORE PUSH1 0x2C PUSH1 0x24 DUP3 ADD MSTORE PUSH32 0x46756E6374696F6E206D7573742062652063616C6C6564207468726F75676820 PUSH1 0x44 DUP3 ADD MSTORE PUSH12 0x6163746976652070726F7879 PUSH1 0xA0 SHL PUSH1 0x64 DUP3 ADD MSTORE PUSH1 0x84 SWAP1 REVERT JUMPDEST DUP1 EXTCODESIZE ISZERO PUSH2 0x2CE0 JUMPI PUSH1 0x0 DUP1 MLOAD PUSH1 0x20 PUSH2 0x31DA DUP4 CODECOPY DUP2 MLOAD SWAP2 MSTORE DUP1 SLOAD PUSH1 0x1 PUSH1 0x1 PUSH1 0xA0 SHL SUB NOT AND PUSH1 0x1 PUSH1 0x1 PUSH1 0xA0 SHL SUB SWAP1 SWAP3 AND SWAP2 SWAP1 SWAP2 OR SWAP1 SSTORE JUMP JUMPDEST PUSH1 0x40 MLOAD PUSH3 0x461BCD PUSH1 0xE5 SHL DUP2 MSTORE PUSH1 0x20 PUSH1 0x4 DUP3 ADD MSTORE PUSH1 0x2D PUSH1 0x24 DUP3 ADD MSTORE PUSH32 0x455243313936373A206E657720696D706C656D656E746174696F6E206973206E PUSH1 0x44 DUP3 ADD MSTORE PUSH13 0x1BDD08184818DBDB9D1C9858DD PUSH1 0x9A SHL PUSH1 0x64 DUP3 ADD MSTORE PUSH1 0x84 SWAP1 REVERT JUMPDEST SWAP2 SWAP3 SWAP1 ISZERO PUSH2 0x2D9D JUMPI POP DUP2 MLOAD ISZERO PUSH2 0x2D4F JUMPI POP SWAP1 JUMP JUMPDEST EXTCODESIZE ISZERO PUSH2 0x2D58 JUMPI SWAP1 JUMP JUMPDEST PUSH1 0x40 MLOAD PUSH3 0x461BCD PUSH1 0xE5 SHL DUP2 MSTORE PUSH1 0x20 PUSH1 0x4 DUP3 ADD MSTORE PUSH1 0x1D PUSH1 0x24 DUP3 ADD MSTORE PUSH32 0x416464726573733A2063616C6C20746F206E6F6E2D636F6E7472616374000000 PUSH1 0x44 DUP3 ADD MSTORE PUSH1 0x64 SWAP1 REVERT JUMPDEST DUP3 MLOAD SWAP1 SWAP2 POP ISZERO PUSH2 0x2DB0 JUMPI POP DUP1 MLOAD SWAP1 PUSH1 0x20 ADD REVERT JUMPDEST PUSH1 0x40 MLOAD PUSH3 0x461BCD PUSH1 0xE5 SHL DUP2 MSTORE PUSH1 0x20 PUSH1 0x4 DUP3 ADD MSTORE SWAP1 DUP2 SWAP1 PUSH2 0x2788 SWAP1 PUSH1 0x24 DUP4 ADD SWAP1 PUSH2 0x2AAD JUMP JUMPDEST SWAP1 DUP2 MLOAD DUP2 LT ISZERO PUSH2 0x2608 JUMPI ADD PUSH1 0x20 ADD SWAP1 JUMP JUMPDEST DUP1 ISZERO PUSH2 0x2DF2 JUMPI PUSH1 0x0 NOT ADD SWAP1 JUMP JUMPDEST PUSH4 0x4E487B71 PUSH1 0xE0 SHL PUSH1 0x0 MSTORE PUSH1 0x11 PUSH1 0x4 MSTORE PUSH1 0x24 PUSH1 0x0 REVERT JUMPDEST PUSH1 0x40 MLOAD SWAP1 PUSH2 0x2E15 DUP3 PUSH2 0x253F JUMP JUMPDEST PUSH1 0x2A DUP3 MSTORE PUSH1 0x20 DUP3 ADD PUSH1 0x40 CALLDATASIZE DUP3 CALLDATACOPY DUP3 MLOAD ISZERO PUSH2 0x2608 JUMPI PUSH1 0x30 SWAP1 MSTORE8 DUP2 MLOAD PUSH1 0x1 SWAP1 DUP2 LT ISZERO PUSH2 0x2608 JUMPI PUSH1 0x78 PUSH1 0x21 DUP5 ADD MSTORE8 PUSH1 0x29 SWAP1 JUMPDEST DUP1 DUP3 GT PUSH2 0x2E98 JUMPI POP POP PUSH2 0x2E54 JUMPI SWAP1 JUMP JUMPDEST PUSH1 0x64 PUSH1 0x40 MLOAD PUSH3 0x461BCD PUSH1 0xE5 SHL DUP2 MSTORE PUSH1 0x20 PUSH1 0x4 DUP3 ADD MSTORE PUSH1 0x20 PUSH1 0x24 DUP3 ADD MSTORE PUSH32 0x537472696E67733A20686578206C656E67746820696E73756666696369656E74 PUSH1 0x44 DUP3 ADD MSTORE REVERT JUMPDEST SWAP1 SWAP2 PUSH1 0xF DUP2 AND SWAP1 PUSH1 0x10 DUP3 LT ISZERO PUSH2 0x2EDC JUMPI PUSH2 0x2ED6 SWAP2 PUSH16 0x181899199A1A9B1B9C1CB0B131B232B3 PUSH1 0x81 SHL SWAP1 BYTE PUSH2 0x2ECC DUP6 DUP8 PUSH2 0x2DD4 JUMP JUMPDEST MSTORE8 PUSH1 0x4 SHR SWAP3 PUSH2 0x2DE5 JUMP JUMPDEST SWAP1 PUSH2 0x2E44 JUMP JUMPDEST PUSH1 0x24 PUSH1 0x0 PUSH4 0x4E487B71 PUSH1 0xE0 SHL DUP2 MSTORE PUSH1 0x32 PUSH1 0x4 MSTORE REVERT JUMPDEST ISZERO PUSH2 0x2EF8 JUMPI JUMP JUMPDEST PUSH1 0x40 MLOAD PUSH3 0x461BCD PUSH1 0xE5 SHL DUP2 MSTORE PUSH1 0x20 PUSH1 0x4 DUP3 ADD MSTORE PUSH1 0x2B PUSH1 0x24 DUP3 ADD MSTORE PUSH32 0x496E697469616C697A61626C653A20636F6E7472616374206973206E6F742069 PUSH1 0x44 DUP3 ADD MSTORE PUSH11 0x6E697469616C697A696E67 PUSH1 0xA8 SHL PUSH1 0x64 DUP3 ADD MSTORE PUSH1 0x84 SWAP1 REVERT JUMPDEST PUSH2 0x165 SLOAD PUSH1 0xFF AND ISZERO PUSH2 0x2F64 JUMPI PUSH2 0x164 SLOAD SWAP1 JUMP JUMPDEST PUSH2 0x164 SLOAD SWAP1 JUMP JUMPDEST ISZERO PUSH2 0x2F72 JUMPI JUMP JUMPDEST PUSH1 0x40 MLOAD PUSH3 0x461BCD PUSH1 0xE5 SHL DUP2 MSTORE PUSH1 0x20 PUSH1 0x4 DUP3 ADD MSTORE PUSH1 0x1C PUSH1 0x24 DUP3 ADD MSTORE PUSH32 0x496E73756666696369656E7420746F6B656E20616C6C6F77616E636500000000 PUSH1 0x44 DUP3 ADD MSTORE PUSH1 0x64 SWAP1 REVERT JUMPDEST ISZERO PUSH2 0x2FBE JUMPI JUMP JUMPDEST PUSH1 0x40 MLOAD PUSH3 0x461BCD PUSH1 0xE5 SHL DUP2 MSTORE PUSH1 0x20 PUSH1 0x4 DUP3 ADD MSTORE PUSH1 0xC PUSH1 0x24 DUP3 ADD MSTORE PUSH12 0x24B73B30B634B2103AB9B2B9 PUSH1 0xA1 SHL PUSH1 0x44 DUP3 ADD MSTORE PUSH1 0x64 SWAP1 REVERT JUMPDEST ISZERO PUSH2 0x2FF9 JUMPI JUMP JUMPDEST PUSH1 0x40 MLOAD PUSH3 0x461BCD PUSH1 0xE5 SHL DUP2 MSTORE PUSH1 0x20 PUSH1 0x4 DUP3 ADD MSTORE PUSH1 0x1C PUSH1 0x24 DUP3 ADD MSTORE PUSH32 0x4C696D6974204F7264657220416C726561647920457865637574656400000000 PUSH1 0x44 DUP3 ADD MSTORE PUSH1 0x64 SWAP1 REVERT JUMPDEST PUSH1 0x0 NOT DUP2 EQ PUSH2 0x2DF2 JUMPI PUSH1 0x1 ADD SWAP1 JUMP JUMPDEST PUSH2 0x167 DUP1 SLOAD SWAP1 DUP2 ISZERO PUSH2 0x3079 JUMPI PUSH1 0x0 NOT SWAP2 DUP3 ADD SWAP2 PUSH2 0x3069 DUP4 PUSH2 0x25D1 JUMP JUMPDEST SWAP1 SWAP2 DUP3 SLOAD SWAP2 PUSH1 0x3 SHL SHL NOT AND SWAP1 SSTORE SSTORE JUMP JUMPDEST PUSH4 0x4E487B71 PUSH1 0xE0 SHL PUSH1 0x0 MSTORE PUSH1 0x31 PUSH1 0x4 MSTORE PUSH1 0x24 PUSH1 0x0 REVERT JUMPDEST PUSH2 0x168 DUP1 SLOAD SWAP1 PUSH1 0x1 PUSH1 0x40 SHL DUP3 LT ISZERO PUSH2 0x24F0 JUMPI PUSH1 0x1 DUP3 ADD DUP1 DUP3 SSTORE DUP3 LT ISZERO PUSH2 0x2608 JUMPI PUSH1 0x0 MSTORE PUSH32 0x8077777AE4769DE06CBFD1C0B8B1F653B51EC156D91A9ACA16A4102F19E03D9E ADD SSTORE JUMP JUMPDEST DUP1 MLOAD ISZERO PUSH2 0x2608 JUMPI PUSH1 0x20 ADD SWAP1 JUMP JUMPDEST SWAP1 DUP2 PUSH1 0x20 SWAP2 SUB SLT PUSH2 0x247E JUMPI MLOAD DUP1 ISZERO ISZERO DUP2 SUB PUSH2 0x247E JUMPI SWAP1 JUMP JUMPDEST PUSH1 0x1 PUSH1 0x1 PUSH1 0xA0 SHL SUB SWAP3 SWAP1 DUP4 AND ADDRESS DUP2 SUB PUSH2 0x317D JUMPI POP DUP3 SWAP2 PUSH1 0x0 PUSH1 0x20 SWAP5 PUSH1 0x44 SWAP4 PUSH1 0x40 MLOAD SWAP8 DUP9 SWAP7 DUP8 SWAP6 PUSH4 0xA9059CBB PUSH1 0xE0 SHL DUP8 MSTORE AND PUSH1 0x4 DUP7 ADD MSTORE PUSH1 0x24 DUP6 ADD MSTORE AND GAS CALL DUP1 ISZERO PUSH2 0x3171 JUMPI PUSH2 0x3147 JUMPI POP JUMP JUMPDEST PUSH2 0x3167 SWAP1 PUSH1 0x20 RETURNDATASIZE DUP2 GT PUSH2 0x316A JUMPI JUMPDEST PUSH2 0x315F DUP2 DUP4 PUSH2 0x2593 JUMP JUMPDEST DUP2 ADD SWAP1 PUSH2 0x30E4 JUMP JUMPDEST POP JUMP JUMPDEST POP RETURNDATASIZE PUSH2 0x3155 JUMP JUMPDEST PUSH1 0x40 MLOAD RETURNDATASIZE PUSH1 0x0 DUP3 RETURNDATACOPY RETURNDATASIZE SWAP1 REVERT JUMPDEST PUSH1 0x0 DUP5 PUSH1 0x64 SWAP4 PUSH1 0x20 SWAP7 SWAP8 PUSH1 0x40 MLOAD SWAP9 DUP10 SWAP8 DUP9 SWAP7 PUSH4 0x23B872DD PUSH1 0xE0 SHL DUP9 MSTORE PUSH1 0x4 DUP9 ADD MSTORE AND PUSH1 0x24 DUP7 ADD MSTORE PUSH1 0x44 DUP6 ADD MSTORE AND GAS CALL DUP1 ISZERO PUSH2 0x3171 JUMPI PUSH2 0x3147 JUMPI POP JUMP INVALID 0x2F DUP8 DUP9 GT PUSH31 0x7EFF1D82E926EC794901D17C78024A50270940304540A733656F0D360894A1 EXTCODESIZE LOG1 LOG3 0x21 MOD PUSH8 0xC828492DB98DCA3E KECCAK256 PUSH23 0xCC3735A920A3CA505D382BBCA264697066735822122036 EXTCODESIZE PUSH13 0xFAC716C2160D804DBE750EF495 MSTORE XOR 0xEF SWAP15 MULMOD SWAP4 DUP6 0xBC LOG1 DUP10 LOG0 DUP12 0xED GASPRICE 0xE7 PUSH2 0x6473 PUSH16 0x6C634300081300330000000000000000 "},"gasEstimates":{"creation":{"codeDepositCost":"2569400","executionCost":"infinite","totalCost":"infinite"},"external":{"DEFAULT_ADMIN_ROLE()":"808","PAUSER_ROLE()":"1092","POOL_FEE()":"3163","UNISWAP_UNIVERSAL_ROUTER()":"3329","UNISWAP_V3_ROUTER()":"2558","UPGRADER_ROLE()":"1158","WETH()":"3042","activeLimitOrders(uint256)":"7007","cancelLimitOrder(uint256)":"infinite","createLimitOrder(address,address,uint256,int256,address,address,uint256)":"infinite","defaultGasLimit()":"2886","dummyExecutionActivated()":"3229","dummyExecutionPrice()":"2996","executeLimitOrder(uint256)":"infinite","getActiveLimitsOrders()":"infinite","getCurrentPrice(address,address)":"5432","getRoleAdmin(bytes32)":"2452","getUserSavings(address)":"infinite","grantRole(bytes32,address)":"infinite","hasRole(bytes32,address)":"3099","inactiveLimitOrders(uint256)":"5513","initialize(address,address,address,address,uint24)":"infinite","limitOrderCounter()":"2732","limitOrderExecuted(uint256)":"2392","limitOrders(uint256)":"17926","owner()":"2866","pause()":"infinite","paused()":"2678","proxiableUUID()":"infinite","renounceOwnership()":"28562","renounceRole(bytes32,address)":"28979","resetActiveOrders()":"infinite","revokeRole(bytes32,address)":"infinite","saveWealth(address,address,uint256,uint256)":"infinite","savings(uint256)":"11003","savingsCounter()":"3085","setDefaultGasLimit(uint256)":"25321","setDummyExecutionActivated(bool)":"26887","setDummyExecutionPrice(int256)":"24968","setPoolFee(uint24)":"27112","setUniswapUniversalRouter(address)":"26934","setUniswapV3Router(address)":"26670","setWETH(address)":"27022","supportsInterface(bytes4)":"285","totalActiveLimitOrders()":"3349","transferOwnership(address)":"29199","unpause()":"infinite","upgradeTo(address)":"infinite","upgradeToAndCall(address,bytes)":"infinite","usersSavings(address,uint256)":"7842","withdrawWealth(uint256)":"infinite"},"internal":{"_authorizeUpgrade(address)":"infinite","_createLimitOrder(address,address,uint256,int256,address,address,uint256)":"infinite","_executeOrder(struct LinkVista.LimitOrder memory)":"infinite","_giveTokenApproval(address,address,uint256)":"infinite","_saveWealth(address,address,uint256,uint256)":"infinite","_swapExactIn(address,address,address,uint256,uint256)":"infinite","_swapExactInUsingUniversalRouter(address,address,address,uint256,uint256)":"infinite","_transferToken(address,address,address,uint256)":"infinite"}},"methodIdentifiers":{"DEFAULT_ADMIN_ROLE()":"a217fddf","PAUSER_ROLE()":"e63ab1e9","POOL_FEE()":"dd1b9c4a","UNISWAP_UNIVERSAL_ROUTER()":"f851b697","UNISWAP_V3_ROUTER()":"41c64a2f","UPGRADER_ROLE()":"f72c0d8b","WETH()":"ad5c4648","activeLimitOrders(uint256)":"61c90153","cancelLimitOrder(uint256)":"a5cdc8fc","createLimitOrder(address,address,uint256,int256,address,address,uint256)":"a8503aee","defaultGasLimit()":"95368d2e","dummyExecutionActivated()":"eec793e3","dummyExecutionPrice()":"aabcd117","executeLimitOrder(uint256)":"c7219460","getActiveLimitsOrders()":"3ad061d1","getCurrentPrice(address,address)":"db16a555","getRoleAdmin(bytes32)":"248a9ca3","getUserSavings(address)":"f80a2057","grantRole(bytes32,address)":"2f2ff15d","hasRole(bytes32,address)":"91d14854","inactiveLimitOrders(uint256)":"ff9905bd","initialize(address,address,address,address,uint24)":"1fa746f8","limitOrderCounter()":"671801f6","limitOrderExecuted(uint256)":"0f26775d","limitOrders(uint256)":"a3e2b495","owner()":"8da5cb5b","pause()":"8456cb59","paused()":"5c975abb","proxiableUUID()":"52d1902d","renounceOwnership()":"715018a6","renounceRole(bytes32,address)":"36568abe","resetActiveOrders()":"62ed4097","revokeRole(bytes32,address)":"d547741f","saveWealth(address,address,uint256,uint256)":"bf700f1c","savings(uint256)":"2621baf9","savingsCounter()":"cfcc6369","setDefaultGasLimit(uint256)":"e32bb67b","setDummyExecutionActivated(bool)":"4c286e4a","setDummyExecutionPrice(int256)":"892df7a3","setPoolFee(uint24)":"73dd250c","setUniswapUniversalRouter(address)":"4bb2497d","setUniswapV3Router(address)":"0e8eec7b","setWETH(address)":"5b769f3c","supportsInterface(bytes4)":"01ffc9a7","totalActiveLimitOrders()":"faaeeb0b","transferOwnership(address)":"f2fde38b","unpause()":"3f4ba83a","upgradeTo(address)":"3659cfe6","upgradeToAndCall(address,bytes)":"4f1ef286","usersSavings(address,uint256)":"f961b9c2","withdrawWealth(uint256)":"10a37f49"}},"storageLayout":{"storage":[{"astId":1080,"contract":"contracts/LinkVista.sol:LinkVista","label":"_initialized","offset":0,"slot":"0","type":"t_uint8"},{"astId":1083,"contract":"contracts/LinkVista.sol:LinkVista","label":"_initializing","offset":1,"slot":"0","type":"t_bool"},{"astId":3653,"contract":"contracts/LinkVista.sol:LinkVista","label":"__gap","offset":0,"slot":"1","type":"t_array(t_uint256)50_storage"},{"astId":1399,"contract":"contracts/LinkVista.sol:LinkVista","label":"_paused","offset":0,"slot":"51","type":"t_bool"},{"astId":1504,"contract":"contracts/LinkVista.sol:LinkVista","label":"__gap","offset":0,"slot":"52","type":"t_array(t_uint256)49_storage"},{"astId":4036,"contract":"contracts/LinkVista.sol:LinkVista","label":"__gap","offset":0,"slot":"101","type":"t_array(t_uint256)50_storage"},{"astId":39,"contract":"contracts/LinkVista.sol:LinkVista","label":"_roles","offset":0,"slot":"151","type":"t_mapping(t_bytes32,t_struct(RoleData)34_storage)"},{"astId":334,"contract":"contracts/LinkVista.sol:LinkVista","label":"__gap","offset":0,"slot":"152","type":"t_array(t_uint256)49_storage"},{"astId":419,"contract":"contracts/LinkVista.sol:LinkVista","label":"_owner","offset":0,"slot":"201","type":"t_address"},{"astId":539,"contract":"contracts/LinkVista.sol:LinkVista","label":"__gap","offset":0,"slot":"202","type":"t_array(t_uint256)49_storage"},{"astId":1062,"contract":"contracts/LinkVista.sol:LinkVista","label":"__gap","offset":0,"slot":"251","type":"t_array(t_uint256)50_storage"},{"astId":1377,"contract":"contracts/LinkVista.sol:LinkVista","label":"__gap","offset":0,"slot":"301","type":"t_array(t_uint256)50_storage"},{"astId":6835,"contract":"contracts/LinkVista.sol:LinkVista","label":"defaultGasLimit","offset":0,"slot":"351","type":"t_uint256"},{"astId":6837,"contract":"contracts/LinkVista.sol:LinkVista","label":"limitOrderCounter","offset":0,"slot":"352","type":"t_uint256"},{"astId":6839,"contract":"contracts/LinkVista.sol:LinkVista","label":"UNISWAP_V3_ROUTER","offset":0,"slot":"353","type":"t_address"},{"astId":6841,"contract":"contracts/LinkVista.sol:LinkVista","label":"UNISWAP_UNIVERSAL_ROUTER","offset":0,"slot":"354","type":"t_address"},{"astId":6843,"contract":"contracts/LinkVista.sol:LinkVista","label":"WETH","offset":0,"slot":"355","type":"t_address"},{"astId":6845,"contract":"contracts/LinkVista.sol:LinkVista","label":"POOL_FEE","offset":20,"slot":"355","type":"t_uint24"},{"astId":6847,"contract":"contracts/LinkVista.sol:LinkVista","label":"dummyExecutionPrice","offset":0,"slot":"356","type":"t_int256"},{"astId":6849,"contract":"contracts/LinkVista.sol:LinkVista","label":"dummyExecutionActivated","offset":0,"slot":"357","type":"t_bool"},{"astId":6871,"contract":"contracts/LinkVista.sol:LinkVista","label":"limitOrders","offset":0,"slot":"358","type":"t_mapping(t_uint256,t_struct(LimitOrder)6866_storage)"},{"astId":6874,"contract":"contracts/LinkVista.sol:LinkVista","label":"activeLimitOrders","offset":0,"slot":"359","type":"t_array(t_uint256)dyn_storage"},{"astId":6877,"contract":"contracts/LinkVista.sol:LinkVista","label":"inactiveLimitOrders","offset":0,"slot":"360","type":"t_array(t_uint256)dyn_storage"},{"astId":6890,"contract":"contracts/LinkVista.sol:LinkVista","label":"savingsCounter","offset":0,"slot":"361","type":"t_uint256"},{"astId":6895,"contract":"contracts/LinkVista.sol:LinkVista","label":"savings","offset":0,"slot":"362","type":"t_mapping(t_uint256,t_struct(Savings)6888_storage)"},{"astId":6900,"contract":"contracts/LinkVista.sol:LinkVista","label":"usersSavings","offset":0,"slot":"363","type":"t_mapping(t_address,t_array(t_uint256)dyn_storage)"},{"astId":6904,"contract":"contracts/LinkVista.sol:LinkVista","label":"limitOrderExecuted","offset":0,"slot":"364","type":"t_mapping(t_uint256,t_bool)"},{"astId":6906,"contract":"contracts/LinkVista.sol:LinkVista","label":"totalActiveLimitOrders","offset":0,"slot":"365","type":"t_uint256"}],"types":{"t_address":{"encoding":"inplace","label":"address","numberOfBytes":"20"},"t_array(t_uint256)49_storage":{"base":"t_uint256","encoding":"inplace","label":"uint256[49]","numberOfBytes":"1568"},"t_array(t_uint256)50_storage":{"base":"t_uint256","encoding":"inplace","label":"uint256[50]","numberOfBytes":"1600"},"t_array(t_uint256)dyn_storage":{"base":"t_uint256","encoding":"dynamic_array","label":"uint256[]","numberOfBytes":"32"},"t_bool":{"encoding":"inplace","label":"bool","numberOfBytes":"1"},"t_bytes32":{"encoding":"inplace","label":"bytes32","numberOfBytes":"32"},"t_int256":{"encoding":"inplace","label":"int256","numberOfBytes":"32"},"t_mapping(t_address,t_array(t_uint256)dyn_storage)":{"encoding":"mapping","key":"t_address","label":"mapping(address => uint256[])","numberOfBytes":"32","value":"t_array(t_uint256)dyn_storage"},"t_mapping(t_address,t_bool)":{"encoding":"mapping","key":"t_address","label":"mapping(address => bool)","numberOfBytes":"32","value":"t_bool"},"t_mapping(t_bytes32,t_struct(RoleData)34_storage)":{"encoding":"mapping","key":"t_bytes32","label":"mapping(bytes32 => struct AccessControlUpgradeable.RoleData)","numberOfBytes":"32","value":"t_struct(RoleData)34_storage"},"t_mapping(t_uint256,t_bool)":{"encoding":"mapping","key":"t_uint256","label":"mapping(uint256 => bool)","numberOfBytes":"32","value":"t_bool"},"t_mapping(t_uint256,t_struct(LimitOrder)6866_storage)":{"encoding":"mapping","key":"t_uint256","label":"mapping(uint256 => struct LinkVista.LimitOrder)","numberOfBytes":"32","value":"t_struct(LimitOrder)6866_storage"},"t_mapping(t_uint256,t_struct(Savings)6888_storage)":{"encoding":"mapping","key":"t_uint256","label":"mapping(uint256 => struct LinkVista.Savings)","numberOfBytes":"32","value":"t_struct(Savings)6888_storage"},"t_struct(LimitOrder)6866_storage":{"encoding":"inplace","label":"struct LinkVista.LimitOrder","members":[{"astId":6851,"contract":"contracts/LinkVista.sol:LinkVista","label":"orderId","offset":0,"slot":"0","type":"t_uint256"},{"astId":6853,"contract":"contracts/LinkVista.sol:LinkVista","label":"from","offset":0,"slot":"1","type":"t_address"},{"astId":6855,"contract":"contracts/LinkVista.sol:LinkVista","label":"to","offset":0,"slot":"2","type":"t_address"},{"astId":6857,"contract":"contracts/LinkVista.sol:LinkVista","label":"fromToken","offset":0,"slot":"3","type":"t_address"},{"astId":6859,"contract":"contracts/LinkVista.sol:LinkVista","label":"toToken","offset":0,"slot":"4","type":"t_address"},{"astId":6861,"contract":"contracts/LinkVista.sol:LinkVista","label":"amount","offset":0,"slot":"5","type":"t_uint256"},{"astId":6863,"contract":"contracts/LinkVista.sol:LinkVista","label":"price","offset":0,"slot":"6","type":"t_int256"},{"astId":6865,"contract":"contracts/LinkVista.sol:LinkVista","label":"toChain","offset":0,"slot":"7","type":"t_uint256"}],"numberOfBytes":"256"},"t_struct(RoleData)34_storage":{"encoding":"inplace","label":"struct AccessControlUpgradeable.RoleData","members":[{"astId":31,"contract":"contracts/LinkVista.sol:LinkVista","label":"members","offset":0,"slot":"0","type":"t_mapping(t_address,t_bool)"},{"astId":33,"contract":"contracts/LinkVista.sol:LinkVista","label":"adminRole","offset":0,"slot":"1","type":"t_bytes32"}],"numberOfBytes":"64"},"t_struct(Savings)6888_storage":{"encoding":"inplace","label":"struct LinkVista.Savings","members":[{"astId":6879,"contract":"contracts/LinkVista.sol:LinkVista","label":"id","offset":0,"slot":"0","type":"t_uint256"},{"astId":6881,"contract":"contracts/LinkVista.sol:LinkVista","label":"depositor","offset":0,"slot":"1","type":"t_address"},{"astId":6883,"contract":"contracts/LinkVista.sol:LinkVista","label":"token","offset":0,"slot":"2","type":"t_address"},{"astId":6885,"contract":"contracts/LinkVista.sol:LinkVista","label":"amount","offset":0,"slot":"3","type":"t_uint256"},{"astId":6887,"contract":"contracts/LinkVista.sol:LinkVista","label":"deadline","offset":0,"slot":"4","type":"t_uint256"}],"numberOfBytes":"160"},"t_uint24":{"encoding":"inplace","label":"uint24","numberOfBytes":"3"},"t_uint256":{"encoding":"inplace","label":"uint256","numberOfBytes":"32"},"t_uint8":{"encoding":"inplace","label":"uint8","numberOfBytes":"1"}}},"userdoc":{"kind":"user","methods":{},"version":1}}}}