{
  "_format": "hh-sol-artifact-1",
  "contractName": "LinkVista",
  "sourceName": "contracts/LinkVista.sol",
  "abi": [
    {
      "inputs": [],
      "stateMutability": "nonpayable",
      "type": "constructor"
    },
    {
      "anonymous": false,
      "inputs": [
        {
          "indexed": false,
          "internalType": "address",
          "name": "previousAdmin",
          "type": "address"
        },
        {
          "indexed": false,
          "internalType": "address",
          "name": "newAdmin",
          "type": "address"
        }
      ],
      "name": "AdminChanged",
      "type": "event"
    },
    {
      "anonymous": false,
      "inputs": [
        {
          "indexed": true,
          "internalType": "address",
          "name": "beacon",
          "type": "address"
        }
      ],
      "name": "BeaconUpgraded",
      "type": "event"
    },
    {
      "anonymous": false,
      "inputs": [
        {
          "indexed": false,
          "internalType": "uint8",
          "name": "version",
          "type": "uint8"
        }
      ],
      "name": "Initialized",
      "type": "event"
    },
    {
      "anonymous": false,
      "inputs": [
        {
          "indexed": false,
          "internalType": "address",
          "name": "from",
          "type": "address"
        },
        {
          "indexed": false,
          "internalType": "address",
          "name": "to",
          "type": "address"
        },
        {
          "indexed": false,
          "internalType": "address",
          "name": "fromToken",
          "type": "address"
        },
        {
          "indexed": false,
          "internalType": "address",
          "name": "toToken",
          "type": "address"
        },
        {
          "indexed": false,
          "internalType": "uint256",
          "name": "amountIn",
          "type": "uint256"
        },
        {
          "indexed": false,
          "internalType": "uint256",
          "name": "amountOut",
          "type": "uint256"
        }
      ],
      "name": "LimitOrderExecuted",
      "type": "event"
    },
    {
      "anonymous": false,
      "inputs": [
        {
          "indexed": true,
          "internalType": "address",
          "name": "previousOwner",
          "type": "address"
        },
        {
          "indexed": true,
          "internalType": "address",
          "name": "newOwner",
          "type": "address"
        }
      ],
      "name": "OwnershipTransferred",
      "type": "event"
    },
    {
      "anonymous": false,
      "inputs": [
        {
          "indexed": false,
          "internalType": "address",
          "name": "account",
          "type": "address"
        }
      ],
      "name": "Paused",
      "type": "event"
    },
    {
      "anonymous": false,
      "inputs": [
        {
          "indexed": true,
          "internalType": "bytes32",
          "name": "role",
          "type": "bytes32"
        },
        {
          "indexed": true,
          "internalType": "bytes32",
          "name": "previousAdminRole",
          "type": "bytes32"
        },
        {
          "indexed": true,
          "internalType": "bytes32",
          "name": "newAdminRole",
          "type": "bytes32"
        }
      ],
      "name": "RoleAdminChanged",
      "type": "event"
    },
    {
      "anonymous": false,
      "inputs": [
        {
          "indexed": true,
          "internalType": "bytes32",
          "name": "role",
          "type": "bytes32"
        },
        {
          "indexed": true,
          "internalType": "address",
          "name": "account",
          "type": "address"
        },
        {
          "indexed": true,
          "internalType": "address",
          "name": "sender",
          "type": "address"
        }
      ],
      "name": "RoleGranted",
      "type": "event"
    },
    {
      "anonymous": false,
      "inputs": [
        {
          "indexed": true,
          "internalType": "bytes32",
          "name": "role",
          "type": "bytes32"
        },
        {
          "indexed": true,
          "internalType": "address",
          "name": "account",
          "type": "address"
        },
        {
          "indexed": true,
          "internalType": "address",
          "name": "sender",
          "type": "address"
        }
      ],
      "name": "RoleRevoked",
      "type": "event"
    },
    {
      "anonymous": false,
      "inputs": [
        {
          "indexed": false,
          "internalType": "address",
          "name": "account",
          "type": "address"
        }
      ],
      "name": "Unpaused",
      "type": "event"
    },
    {
      "anonymous": false,
      "inputs": [
        {
          "indexed": true,
          "internalType": "address",
          "name": "implementation",
          "type": "address"
        }
      ],
      "name": "Upgraded",
      "type": "event"
    },
    {
      "inputs": [],
      "name": "DEFAULT_ADMIN_ROLE",
      "outputs": [
        {
          "internalType": "bytes32",
          "name": "",
          "type": "bytes32"
        }
      ],
      "stateMutability": "view",
      "type": "function"
    },
    {
      "inputs": [],
      "name": "PAUSER_ROLE",
      "outputs": [
        {
          "internalType": "bytes32",
          "name": "",
          "type": "bytes32"
        }
      ],
      "stateMutability": "view",
      "type": "function"
    },
    {
      "inputs": [],
      "name": "POOL_FEE",
      "outputs": [
        {
          "internalType": "uint24",
          "name": "",
          "type": "uint24"
        }
      ],
      "stateMutability": "view",
      "type": "function"
    },
    {
      "inputs": [],
      "name": "UNISWAP_UNIVERSAL_ROUTER",
      "outputs": [
        {
          "internalType": "address",
          "name": "",
          "type": "address"
        }
      ],
      "stateMutability": "view",
      "type": "function"
    },
    {
      "inputs": [],
      "name": "UNISWAP_V3_ROUTER",
      "outputs": [
        {
          "internalType": "address",
          "name": "",
          "type": "address"
        }
      ],
      "stateMutability": "view",
      "type": "function"
    },
    {
      "inputs": [],
      "name": "UPGRADER_ROLE",
      "outputs": [
        {
          "internalType": "bytes32",
          "name": "",
          "type": "bytes32"
        }
      ],
      "stateMutability": "view",
      "type": "function"
    },
    {
      "inputs": [],
      "name": "WETH",
      "outputs": [
        {
          "internalType": "address",
          "name": "",
          "type": "address"
        }
      ],
      "stateMutability": "view",
      "type": "function"
    },
    {
      "inputs": [
        {
          "internalType": "uint256",
          "name": "",
          "type": "uint256"
        }
      ],
      "name": "activeLimitOrders",
      "outputs": [
        {
          "internalType": "uint256",
          "name": "",
          "type": "uint256"
        }
      ],
      "stateMutability": "view",
      "type": "function"
    },
    {
      "inputs": [
        {
          "internalType": "uint256",
          "name": "_orderId",
          "type": "uint256"
        }
      ],
      "name": "cancelLimitOrder",
      "outputs": [],
      "stateMutability": "nonpayable",
      "type": "function"
    },
    {
      "inputs": [
        {
          "internalType": "address",
          "name": "_from",
          "type": "address"
        },
        {
          "internalType": "address",
          "name": "_to",
          "type": "address"
        },
        {
          "internalType": "uint256",
          "name": "_amount",
          "type": "uint256"
        },
        {
          "internalType": "int256",
          "name": "_price",
          "type": "int256"
        },
        {
          "internalType": "address",
          "name": "_fromToken",
          "type": "address"
        },
        {
          "internalType": "address",
          "name": "_toToken",
          "type": "address"
        },
        {
          "internalType": "uint256",
          "name": "_toChain",
          "type": "uint256"
        }
      ],
      "name": "createLimitOrder",
      "outputs": [],
      "stateMutability": "nonpayable",
      "type": "function"
    },
    {
      "inputs": [],
      "name": "defaultGasLimit",
      "outputs": [
        {
          "internalType": "uint256",
          "name": "",
          "type": "uint256"
        }
      ],
      "stateMutability": "view",
      "type": "function"
    },
    {
      "inputs": [],
      "name": "dummyExecutionActivated",
      "outputs": [
        {
          "internalType": "bool",
          "name": "",
          "type": "bool"
        }
      ],
      "stateMutability": "view",
      "type": "function"
    },
    {
      "inputs": [],
      "name": "dummyExecutionPrice",
      "outputs": [
        {
          "internalType": "int256",
          "name": "",
          "type": "int256"
        }
      ],
      "stateMutability": "view",
      "type": "function"
    },
    {
      "inputs": [
        {
          "internalType": "uint256",
          "name": "_orderId",
          "type": "uint256"
        }
      ],
      "name": "executeLimitOrder",
      "outputs": [],
      "stateMutability": "payable",
      "type": "function"
    },
    {
      "inputs": [],
      "name": "getActiveLimitsOrders",
      "outputs": [
        {
          "internalType": "uint256[]",
          "name": "",
          "type": "uint256[]"
        }
      ],
      "stateMutability": "view",
      "type": "function"
    },
    {
      "inputs": [
        {
          "internalType": "address",
          "name": "_fromToken",
          "type": "address"
        },
        {
          "internalType": "address",
          "name": "_toToken",
          "type": "address"
        }
      ],
      "name": "getCurrentPrice",
      "outputs": [
        {
          "internalType": "int256",
          "name": "",
          "type": "int256"
        }
      ],
      "stateMutability": "view",
      "type": "function"
    },
    {
      "inputs": [
        {
          "internalType": "bytes32",
          "name": "role",
          "type": "bytes32"
        }
      ],
      "name": "getRoleAdmin",
      "outputs": [
        {
          "internalType": "bytes32",
          "name": "",
          "type": "bytes32"
        }
      ],
      "stateMutability": "view",
      "type": "function"
    },
    {
      "inputs": [
        {
          "internalType": "address",
          "name": "_user",
          "type": "address"
        }
      ],
      "name": "getUserSavings",
      "outputs": [
        {
          "internalType": "uint256[]",
          "name": "",
          "type": "uint256[]"
        }
      ],
      "stateMutability": "view",
      "type": "function"
    },
    {
      "inputs": [
        {
          "internalType": "bytes32",
          "name": "role",
          "type": "bytes32"
        },
        {
          "internalType": "address",
          "name": "account",
          "type": "address"
        }
      ],
      "name": "grantRole",
      "outputs": [],
      "stateMutability": "nonpayable",
      "type": "function"
    },
    {
      "inputs": [
        {
          "internalType": "bytes32",
          "name": "role",
          "type": "bytes32"
        },
        {
          "internalType": "address",
          "name": "account",
          "type": "address"
        }
      ],
      "name": "hasRole",
      "outputs": [
        {
          "internalType": "bool",
          "name": "",
          "type": "bool"
        }
      ],
      "stateMutability": "view",
      "type": "function"
    },
    {
      "inputs": [
        {
          "internalType": "uint256",
          "name": "",
          "type": "uint256"
        }
      ],
      "name": "inactiveLimitOrders",
      "outputs": [
        {
          "internalType": "uint256",
          "name": "",
          "type": "uint256"
        }
      ],
      "stateMutability": "view",
      "type": "function"
    },
    {
      "inputs": [
        {
          "internalType": "address",
          "name": "defaultAdmin",
          "type": "address"
        },
        {
          "internalType": "address",
          "name": "swapRouterAddress",
          "type": "address"
        },
        {
          "internalType": "address",
          "name": "universalRouterAddress",
          "type": "address"
        },
        {
          "internalType": "address",
          "name": "wethAddress",
          "type": "address"
        },
        {
          "internalType": "uint24",
          "name": "poolFee",
          "type": "uint24"
        }
      ],
      "name": "initialize",
      "outputs": [],
      "stateMutability": "nonpayable",
      "type": "function"
    },
    {
      "inputs": [],
      "name": "limitOrderCounter",
      "outputs": [
        {
          "internalType": "uint256",
          "name": "",
          "type": "uint256"
        }
      ],
      "stateMutability": "view",
      "type": "function"
    },
    {
      "inputs": [
        {
          "internalType": "uint256",
          "name": "",
          "type": "uint256"
        }
      ],
      "name": "limitOrderExecuted",
      "outputs": [
        {
          "internalType": "bool",
          "name": "",
          "type": "bool"
        }
      ],
      "stateMutability": "view",
      "type": "function"
    },
    {
      "inputs": [
        {
          "internalType": "uint256",
          "name": "",
          "type": "uint256"
        }
      ],
      "name": "limitOrders",
      "outputs": [
        {
          "internalType": "uint256",
          "name": "orderId",
          "type": "uint256"
        },
        {
          "internalType": "address",
          "name": "from",
          "type": "address"
        },
        {
          "internalType": "address",
          "name": "to",
          "type": "address"
        },
        {
          "internalType": "address",
          "name": "fromToken",
          "type": "address"
        },
        {
          "internalType": "address",
          "name": "toToken",
          "type": "address"
        },
        {
          "internalType": "uint256",
          "name": "amount",
          "type": "uint256"
        },
        {
          "internalType": "int256",
          "name": "price",
          "type": "int256"
        },
        {
          "internalType": "uint256",
          "name": "toChain",
          "type": "uint256"
        }
      ],
      "stateMutability": "view",
      "type": "function"
    },
    {
      "inputs": [],
      "name": "owner",
      "outputs": [
        {
          "internalType": "address",
          "name": "",
          "type": "address"
        }
      ],
      "stateMutability": "view",
      "type": "function"
    },
    {
      "inputs": [],
      "name": "pause",
      "outputs": [],
      "stateMutability": "nonpayable",
      "type": "function"
    },
    {
      "inputs": [],
      "name": "paused",
      "outputs": [
        {
          "internalType": "bool",
          "name": "",
          "type": "bool"
        }
      ],
      "stateMutability": "view",
      "type": "function"
    },
    {
      "inputs": [],
      "name": "proxiableUUID",
      "outputs": [
        {
          "internalType": "bytes32",
          "name": "",
          "type": "bytes32"
        }
      ],
      "stateMutability": "view",
      "type": "function"
    },
    {
      "inputs": [],
      "name": "renounceOwnership",
      "outputs": [],
      "stateMutability": "nonpayable",
      "type": "function"
    },
    {
      "inputs": [
        {
          "internalType": "bytes32",
          "name": "role",
          "type": "bytes32"
        },
        {
          "internalType": "address",
          "name": "account",
          "type": "address"
        }
      ],
      "name": "renounceRole",
      "outputs": [],
      "stateMutability": "nonpayable",
      "type": "function"
    },
    {
      "inputs": [],
      "name": "resetActiveOrders",
      "outputs": [],
      "stateMutability": "nonpayable",
      "type": "function"
    },
    {
      "inputs": [
        {
          "internalType": "bytes32",
          "name": "role",
          "type": "bytes32"
        },
        {
          "internalType": "address",
          "name": "account",
          "type": "address"
        }
      ],
      "name": "revokeRole",
      "outputs": [],
      "stateMutability": "nonpayable",
      "type": "function"
    },
    {
      "inputs": [
        {
          "internalType": "address",
          "name": "_despositor",
          "type": "address"
        },
        {
          "internalType": "address",
          "name": "_tokenAddress",
          "type": "address"
        },
        {
          "internalType": "uint256",
          "name": "_amount",
          "type": "uint256"
        },
        {
          "internalType": "uint256",
          "name": "_deadline",
          "type": "uint256"
        }
      ],
      "name": "saveWealth",
      "outputs": [],
      "stateMutability": "payable",
      "type": "function"
    },
    {
      "inputs": [
        {
          "internalType": "uint256",
          "name": "",
          "type": "uint256"
        }
      ],
      "name": "savings",
      "outputs": [
        {
          "internalType": "uint256",
          "name": "id",
          "type": "uint256"
        },
        {
          "internalType": "address",
          "name": "depositor",
          "type": "address"
        },
        {
          "internalType": "address",
          "name": "token",
          "type": "address"
        },
        {
          "internalType": "uint256",
          "name": "amount",
          "type": "uint256"
        },
        {
          "internalType": "uint256",
          "name": "deadline",
          "type": "uint256"
        }
      ],
      "stateMutability": "view",
      "type": "function"
    },
    {
      "inputs": [],
      "name": "savingsCounter",
      "outputs": [
        {
          "internalType": "uint256",
          "name": "",
          "type": "uint256"
        }
      ],
      "stateMutability": "view",
      "type": "function"
    },
    {
      "inputs": [
        {
          "internalType": "uint256",
          "name": "_gasLimit",
          "type": "uint256"
        }
      ],
      "name": "setDefaultGasLimit",
      "outputs": [],
      "stateMutability": "nonpayable",
      "type": "function"
    },
    {
      "inputs": [
        {
          "internalType": "bool",
          "name": "_activated",
          "type": "bool"
        }
      ],
      "name": "setDummyExecutionActivated",
      "outputs": [],
      "stateMutability": "nonpayable",
      "type": "function"
    },
    {
      "inputs": [
        {
          "internalType": "int256",
          "name": "_price",
          "type": "int256"
        }
      ],
      "name": "setDummyExecutionPrice",
      "outputs": [],
      "stateMutability": "nonpayable",
      "type": "function"
    },
    {
      "inputs": [
        {
          "internalType": "uint24",
          "name": "_fee",
          "type": "uint24"
        }
      ],
      "name": "setPoolFee",
      "outputs": [],
      "stateMutability": "nonpayable",
      "type": "function"
    },
    {
      "inputs": [
        {
          "internalType": "address",
          "name": "_router",
          "type": "address"
        }
      ],
      "name": "setUniswapUniversalRouter",
      "outputs": [],
      "stateMutability": "nonpayable",
      "type": "function"
    },
    {
      "inputs": [
        {
          "internalType": "address",
          "name": "_router",
          "type": "address"
        }
      ],
      "name": "setUniswapV3Router",
      "outputs": [],
      "stateMutability": "nonpayable",
      "type": "function"
    },
    {
      "inputs": [
        {
          "internalType": "address",
          "name": "_weth",
          "type": "address"
        }
      ],
      "name": "setWETH",
      "outputs": [],
      "stateMutability": "nonpayable",
      "type": "function"
    },
    {
      "inputs": [
        {
          "internalType": "bytes4",
          "name": "interfaceId",
          "type": "bytes4"
        }
      ],
      "name": "supportsInterface",
      "outputs": [
        {
          "internalType": "bool",
          "name": "",
          "type": "bool"
        }
      ],
      "stateMutability": "view",
      "type": "function"
    },
    {
      "inputs": [],
      "name": "totalActiveLimitOrders",
      "outputs": [
        {
          "internalType": "uint256",
          "name": "",
          "type": "uint256"
        }
      ],
      "stateMutability": "view",
      "type": "function"
    },
    {
      "inputs": [
        {
          "internalType": "address",
          "name": "newOwner",
          "type": "address"
        }
      ],
      "name": "transferOwnership",
      "outputs": [],
      "stateMutability": "nonpayable",
      "type": "function"
    },
    {
      "inputs": [],
      "name": "unpause",
      "outputs": [],
      "stateMutability": "nonpayable",
      "type": "function"
    },
    {
      "inputs": [
        {
          "internalType": "address",
          "name": "newImplementation",
          "type": "address"
        }
      ],
      "name": "upgradeTo",
      "outputs": [],
      "stateMutability": "nonpayable",
      "type": "function"
    },
    {
      "inputs": [
        {
          "internalType": "address",
          "name": "newImplementation",
          "type": "address"
        },
        {
          "internalType": "bytes",
          "name": "data",
          "type": "bytes"
        }
      ],
      "name": "upgradeToAndCall",
      "outputs": [],
      "stateMutability": "payable",
      "type": "function"
    },
    {
      "inputs": [
        {
          "internalType": "address",
          "name": "",
          "type": "address"
        },
        {
          "internalType": "uint256",
          "name": "",
          "type": "uint256"
        }
      ],
      "name": "usersSavings",
      "outputs": [
        {
          "internalType": "uint256",
          "name": "",
          "type": "uint256"
        }
      ],
      "stateMutability": "view",
      "type": "function"
    },
    {
      "inputs": [
        {
          "internalType": "uint256",
          "name": "_id",
          "type": "uint256"
        }
      ],
      "name": "withdrawWealth",
      "outputs": [],
      "stateMutability": "nonpayable",
      "type": "function"
    },
    {
      "stateMutability": "payable",
      "type": "receive"
    }
  ],
  "bytecode": "0x60a080604052346100dd57306080526000549060ff8260081c1661008b575060ff80821603610050575b60405161322f9081620000e3823960805181818161154f0152818161167b0152611ad60152f35b60ff90811916176000557f7f26b83ff96e1f2b6a682f133852f6798a09c465da95921460cefb3847402498602060405160ff8152a138610029565b62461bcd60e51b815260206004820152602760248201527f496e697469616c697a61626c653a20636f6e747261637420697320696e697469604482015266616c697a696e6760c81b6064820152608490fd5b600080fdfe608080604052600436101561001d575b50361561001b57600080fd5b005b60009060e08235811c91826301ffc9a714612413575081630e8eec7b146123ce5781630f26775d1461239e57816310a37f49146122905781631fa746f814611efa578163248a9ca314611ecd5781632621baf914611e6b5781632f2ff15d14611dce57816336568abe14611d3b5781633659cfe614611ab15781633ad061d114611a3a5781633f4ba83a146119a557816341c64a2f1461197b5781634bb2497d146119365781634c286e4a146118fc5781634f1ef2861461160057816352d1902d1461153c5781635b769f3c146114f75781635c975abb146114d457816361c90153146114a857816362ed40971461142f578163671801f614611410578163715018a6146113b357816373dd250c146113655781638456cb59146112d1578163892df7a3146112ad5781638da5cb5b1461128457816391d148541461123b57816395368d2e1461121c578163a217fddf14611200578163a3e2b49514611177578163a5cdc8fc14610ffe578163a8503aee14610e14578163aabcd11714610df5578163ad5c464814610dcb578163bf700f1c14610bdb578163c7219460146105e357508063cfcc6369146105c4578063d547741f14610586578063db16a55514610550578063dd1b9c4a14610529578063e32bb67b14610505578063e63ab1e9146104ca578063eec793e3146104a6578063f2fde38b14610415578063f72c0d8b146103da578063f80a205714610352578063f851b69714610328578063f961b9c2146102d1578063faaeeb0b146102b25763ff9905bd0361000f57346102af5760203660031901126102af5760043561016880548210156102ab57602092506000527f8077777ae4769de06cbfd1c0b8b1f653b51ec156d91a9aca16a4102f19e03d9e0154604051908152f35b8280fd5b80fd5b50346102af57806003193601126102af57602061016d54604051908152f35b50346102af5760403660031901126102af576102eb612468565b6001600160a01b0316815261016b60205260408120805460243592908310156102af57602061031a848461261e565b90546040519160031b1c8152f35b50346102af57806003193601126102af57610162546040516001600160a01b039091168152602090f35b50346102af576020806003193601126103d6576001600160a01b03610375612468565b16825261016b815260408220916040518092808554928381520194835280832092905b8282106103bf576103bb856103af81890382612593565b60405191829182612499565b0390f35b835486529485019460019384019390910190610398565b5080fd5b50346102af57806003193601126102af5760206040517f189ab7a9244df0848122154315af71fe140f3db0fe014031783b0946b8c9d2e38152f35b50346102af5760203660031901126102af5761042f612468565b610437612b48565b6001600160a01b038116156104525761044f90612ba0565b80f35b60405162461bcd60e51b815260206004820152602660248201527f4f776e61626c653a206e6577206f776e657220697320746865207a65726f206160448201526564647265737360d01b6064820152608490fd5b50346102af57806003193601126102af57602060ff61016554166040519015158152f35b50346102af57806003193601126102af5760206040517f65d7a28e3265b37a6474929f336521b332c1681b933f6cb9f3376673440d862a8152f35b50346102af5760203660031901126102af5761051f612b48565b60043561015f5580f35b50346102af57806003193601126102af57602062ffffff6101635460a01c16604051908152f35b50346102af5760403660031901126102af5761056a612468565b50610573612483565b50602061057e612f51565b604051908152f35b50346102af5760403660031901126102af5761044f6004356105a6612483565b9080845260976020526105bf600160408620015461298a565b612ad2565b50346102af57806003193601126102af57602061016954604051908152f35b8260203660031901126102af57600435815261016660205260408120916040519261060d84612506565b8054845260018101546001600160a01b0390811660208601526002820154811660408601526003820154811660608601526004820154166080850152600581015460a0850152600681015460c0850181905260079091015482850152610671612f51565b12610ba657600435825261016c8060205261069360ff60408520541615612ff2565b6004358352602090815260408320805460ff19166001179055830151606084015160a08501516106d39290916001600160a01b03908116913091166130fc565b60a083015115610b6157606083015160808401516001600160a01b03908116911614610b105782015115610acb5760408201516060830151608084015160a085015161016254929390926001600160a01b03918216929161073b9185918781169116306130fc565b8115610a8f576040519361074e8561255b565b6001855260203681870137845115610a7b576107ee92916107da918760208801536101635491604051926001600160601b0319809360601b16602085015262ffffff60e81b9060481b16603484015260601b166037820152602b81526107b38161253f565b6040519485936020850152604084015286606084015260a0608084015260c0830190612aad565b8560a083015203601f198101835282612593565b604051906107fb8261255b565b60018252835b60208110610a6a5750610813826130d7565b5261081d816130d7565b50610162546001600160a01b031690813b15610a665791839161085b936040519485936324856bc360e01b8552604060048601526044850190612aad565b600319848203016024850152815180825260208201916020808360051b83010194019287915b838310610a335750505050508383809203925af18015610a28576109fc575b5090815b61016754808210156109d1576108b9826125d1565b90549060031b1c8351146108d657506108d19061303e565b6108a4565b60001981019081116109bd579161093c60c0926109236109167f328b3edb0769b34798cf3ac39e32115f75f3425e045a14f6c8e7b33becfc01a6966125d1565b90549060031b1c916125d1565b90919082549060031b91821b91600019901b1916179055565b61094461304d565b61016d6109518154612de5565b90555b61095e815161308f565b60018060a01b036020820151169060018060a01b036040820151169060018060a01b0360608201511660a0600180821b036080840151169201519260405194855260208501526040840152606083015260808201528360a0820152a180f35b634e487b7160e01b84526011600452602484fd5b505060c07f328b3edb0769b34798cf3ac39e32115f75f3425e045a14f6c8e7b33becfc01a691610954565b67ffffffffffffffff8111610a1457604052826108a0565b634e487b7160e01b82526041600452602482fd5b6040513d84823e3d90fd5b9295975092955092602080610a54600193601f198682030187528951612aad565b97019301930187959389979592610881565b8380fd5b806060602080938601015201610801565b634e487b7160e01b86526032600452602486fd5b60405162461bcd60e51b8152602060048201526014602482015273149958d95a5d995c881b5d5cdd081899481cd95d60621b6044820152606490fd5b60405162461bcd60e51b815260206004820152601f60248201527f546f20636861696e206d7573742062652067726561746572207468616e2030006044820152606490fd5b60405162461bcd60e51b8152602060048201526024808201527f46726f6d20616e6420546f20746f6b656e73206d7573742062652064696666656044820152631c995b9d60e21b6064820152608490fd5b60405162461bcd60e51b815260206004820152601d60248201527f416d6f756e74206d7573742062652067726561746572207468616e20300000006044820152606490fd5b60405162461bcd60e51b815260206004820152600d60248201526c14149250d157d393d517d35155609a1b6044820152606490fd5b8260803660031901126102af57610bf0612468565b90610bf9612483565b6001600160a01b039081811690604435908215610d7d57604051636eb1769f60e11b81526001600160a01b0387166004820152306024820152602081604481875afa908115610d72579083918791610d38575b5091610c5d82610c64941015612f6b565b30886130fc565b61016991610c72835461303e565b9586845560405194610c83866124d4565b8786528060208701921694858352604087019384526060870194855260808701956064358752885261016b60205260408820805490600160401b821015610d2457996109238260049a9b9c6001610cdc9501815561261e565b54885261016a60205260408820965187558060018801925116916001600160601b0360a01b928382541617905560028701925116908254161790555160038401555191015580f35b634e487b7160e01b8a52604160045260248afd5b9150506020813d8211610d6a575b81610d5360209383612593565b81010312610d6657518290610c5d610c4c565b8580fd5b3d9150610d46565b6040513d88823e3d90fd5b5080341015610c645760405162461bcd60e51b815260206004820152601b60248201527f496e76616c696420616d6f756e74206173206d73672e76616c756500000000006044820152606490fd5b82346102af57806003193601126102af57610163546040516001600160a01b039091168152602090f35b82346102af57806003193601126102af57602061016454604051908152f35b9050346103d657806003193601126103d657610e2e612468565b90610e37612483565b9183604435926084359360018060a01b0393848616809603610a665760a43590858216809203610ffa57604051636eb1769f60e11b81526001600160a01b03821660048201523060248201526020979096908888604481845afa978815610fef578798610fba575b50610eae856007991015612f6b565b610160998a549a610ebe8c61303e565b90556101666040519a610ed08c612506565b8c8c5284818d01961686528460408d019316835260608c0193845260808c0196875260a08c019788528c60c08d01996064358b528d019a60c4358c52525260408c2099518a558260018b01945116936001600160601b0360a01b94858254161790558260028b01915116848254161790558160038a0191511683825416179055600488019251169082541617905551600585015551600684015551910155610167805490600160401b821015610fa65781610923916001610f9495940190556125d1565b61016d610fa1815461303e565b905580f35b634e487b7160e01b84526041600452602484fd5b97508888813d8311610fe8575b610fd18183612593565b81010312610fe457965196610eae610e9f565b8680fd5b503d610fc7565b6040513d89823e3d90fd5b8480fd5b9050346103d65760203660031901126103d6576004358083526101666020526040832061109e6040519361103185612506565b8254855260018060a01b03906001958287860154169182602083015283600287015416604083015260076003968588820154166060850152856004820154166080850152600581015460a0850152600681015460c085015201549101523314908115611169575b50612fb7565b81845261016c806020526110b960ff60408720541615612ff2565b82855260205260408420805460ff19168417905583835b6110df575b8461044f8461308f565b610167548082101561116357836110f5836125d1565b905490851b1c14611110575061110a9061303e565b836110d0565b92935091600019810190811161114f57916109236111409261113561044f96956125d1565b9054911b1c916125d1565b61114861304d565b38806110d5565b634e487b7160e01b85526011600452602485fd5b506110d5565b905060c95416331438611098565b9050346103d65760203660031901126103d65760406101009260043581526101666020522080549160018060a01b0391826001820154169280600283015416908060038401541690600484015416906005840154926007600686015495015496604051988952602089015260408801526060870152608086015260a085015260c0840152820152f35b82346102af57806003193601126102af57602090604051908152f35b82346102af57806003193601126102af57602061015f54604051908152f35b82346102af5760403660031901126102af5760ff604060209261125c612483565b6004358252609785528282206001600160a01b03909116825284522054604051911615158152f35b82346102af57806003193601126102af5760c9546040516001600160a01b039091168152602090f35b82346102af5760203660031901126102af576112c7612b48565b6004356101645580f35b82346102af57806003193601126102af576112ea612850565b60335460ff811661132d5760019060ff1916176033557f62e78cea01bee320cd4e420270b5ea74000d11b0c9f74754ebdbfc544b05a2586020604051338152a180f35b60405162461bcd60e51b815260206004820152601060248201526f14185d5cd8589b194e881c185d5cd95960821b6044820152606490fd5b82346102af5760203660031901126102af5760043562ffffff811681036103d65761138e612b48565b610163805462ffffff60a01b191660a09290921b62ffffff60a01b1691909117905580f35b82346102af57806003193601126102af576113cc612b48565b60c980546001600160a01b0319811690915581906001600160a01b03167f8be0079c531659141344cd1fd0a4f28419497f9722a3daafe3b4186f6b6457e08280a380f35b82346102af57806003193601126102af57602061016054604051908152f35b82346102af57806003193601126102af57611448612b48565b611453604051612523565b61016781815491558061146a575b508061016d5580f35b7f025f925b23c02f7114773957b1a876f2af957c14a29118dc622648c445020dcf908101905b81811061149d5750611461565b828155600101611490565b82346102af5760203660031901126102af5760043590610167548210156102af57602061031a836125d1565b82346102af57806003193601126102af57602060ff603354166040519015158152f35b82346102af5760203660031901126102af57611511612468565b611519612b48565b61016380546001600160a01b0319166001600160a01b0390921691909117905580f35b82346102af57806003193601126102af577f00000000000000000000000000000000000000000000000000000000000000006001600160a01b031630036115955760206040516000805160206131da8339815191528152f35b60405162461bcd60e51b815260206004820152603860248201527f555550535570677261646561626c653a206d757374206e6f742062652063616c60448201527f6c6564207468726f7567682064656c656761746563616c6c00000000000000006064820152608490fd5b8260403660031901126102af57611615612468565b6024359067ffffffffffffffff82116102ab57366023830112156102ab578160040135611641816125b5565b61164e6040519182612593565b818152846020948583019336602482840101116102ab578060248893018637830101526001600160a01b037f00000000000000000000000000000000000000000000000000000000000000008116906116a930831415612be9565b6116c66000805160206131da833981519152928284541614612c4a565b6116ce612636565b7f4910fdfa16fed3260ed0e7147f7cc6da11a60208b5b9406d12a635614ffd91435460ff1615611706575050505061044f9150612cab565b8492939416906040516352d1902d60e01b81528681600481865afa8891816118c9575b5061178a5760405162461bcd60e51b815260048101889052602e60248201527f45524331393637557067726164653a206e657720696d706c656d656e7461746960448201526d6f6e206973206e6f74205555505360901b6064820152608490fd5b95939495036118725761179c82612cab565b7fbc7cd75a20ee27fd9adebab32041f755214dbc6bffa90cc0225b39da2e5c2d3b8680a28483511580159061186a575b6117d9575b505050505080f35b8061185695604051956117eb8761253f565b602787527f416464726573733a206c6f772d6c6576656c2064656c65676174652063616c6c86880152660819985a5b195960ca1b60408801525190845af4903d15611861573d61183a816125b5565b906118486040519283612593565b81528681943d92013e612d3b565b5081808080846117d1565b60609250612d3b565b5060016117cc565b60405162461bcd60e51b815260048101849052602960248201527f45524331393637557067726164653a20756e737570706f727465642070726f786044820152681a58589b195555525160ba1b6064820152608490fd5b9091508781813d83116118f5575b6118e18183612593565b810103126118f157519089611729565b8880fd5b503d6118d7565b82346102af5760203660031901126102af576004358015158091036103d657611923612b48565b6101659060ff8019835416911617905580f35b82346102af5760203660031901126102af57611950612468565b611958612b48565b61016280546001600160a01b0319166001600160a01b0390921691909117905580f35b82346102af57806003193601126102af57610161546040516001600160a01b039091168152602090f35b82346102af57806003193601126102af576119be612850565b60335460ff8116156119fe5760ff19166033557f5db9ee0a495bf2e6ff9c91a7834c1ba4fdd244a5e8aa4e537bd38aeae4b073aa6020604051338152a180f35b60405162461bcd60e51b815260206004820152601460248201527314185d5cd8589b194e881b9bdd081c185d5cd95960621b6044820152606490fd5b82346102af57806003193601126102af5760405161016780548083529083526020808301937f025f925b23c02f7114773957b1a876f2af957c14a29118dc622648c445020dcf92915b828210611a9a576103bb856103af81890382612593565b835486529485019460019384019390910190611a83565b82346102af576020806003193601126103d657611acc612468565b6001600160a01b037f00000000000000000000000000000000000000000000000000000000000000008116611b0330821415612be9565b611b206000805160206131da833981519152918383541614612c4a565b611b28612636565b60405191611b3583612523565b8583527f4910fdfa16fed3260ed0e7147f7cc6da11a60208b5b9406d12a635614ffd91435460ff1615611b6f5750505061044f9150612cab565b8316906040516352d1902d60e01b81528581600481865afa879181611d08575b50611bf05760405162461bcd60e51b815260048101879052602e60248201527f45524331393637557067726164653a206e657720696d706c656d656e7461746960448201526d6f6e206973206e6f74205555505360901b6064820152608490fd5b9492939403611cb157611c0284612cab565b7fbc7cd75a20ee27fd9adebab32041f755214dbc6bffa90cc0225b39da2e5c2d3b8580a2815115801590611caa575b611c3c575b50505080f35b611ca192848060405194611c4f8661253f565b602786527f416464726573733a206c6f772d6c6576656c2064656c65676174652063616c6c85870152660819985a5b195960ca1b60408701528481519101845af4903d15611861573d61183a816125b5565b50818080611c36565b5083611c31565b60405162461bcd60e51b815260048101839052602960248201527f45524331393637557067726164653a20756e737570706f727465642070726f786044820152681a58589b195555525160ba1b6064820152608490fd5b9091508681813d8311611d34575b611d208183612593565b81010312611d3057519088611b8f565b8780fd5b503d611d16565b82346102af5760403660031901126102af57611d55612483565b336001600160a01b03821603611d715761044f90600435612ad2565b60405162461bcd60e51b815260206004820152602f60248201527f416363657373436f6e74726f6c3a2063616e206f6e6c792072656e6f756e636560448201526e103937b632b9903337b91039b2b63360891b6064820152608490fd5b82346102af5760403660031901126102af57600435611deb612483565b8183526097602052611e03600160408520015461298a565b8183526097602052604083209060018060a01b03169081845260205260ff60408420541615611e30578280f35b81835260976020526040832081845260205260408320600160ff1982541617905533916000805160206131ba8339815191528480a481808280f35b82346102af5760203660031901126102af57604060a091600435815261016a60205220805490600180841b0390816001820154169160028201541660046003830154920154926040519485526020850152604084015260608301526080820152f35b82346102af5760203660031901126102af5760016040602092600435815260978452200154604051908152f35b82346102af5760a03660031901126102af57611f14612468565b611f1c612483565b6044356001600160a01b0381168103610a6657606435916001600160a01b0383168303610ffa5762ffffff6084351660843503610ffa5784549360ff8560081c161594858096612283575b801561226c575b156122105760ff1981166001178755856121ff575b50611fcb60ff875460081c16611f9881612ef1565b611fa181612ef1565b60ff1960335416603355611fb481612ef1565b611fbd81612ef1565b611fc681612ef1565b612ef1565b611fd433612ba0565b8580526097602081815260408089206001600160a01b038516808b52925288205490919060ff16156121c5575b7f65d7a28e3265b37a6474929f336521b332c1681b933f6cb9f3376673440d862a8089528160205260408920838a5260205260ff60408a2054161561218a575b507f189ab7a9244df0848122154315af71fe140f3db0fe014031783b0946b8c9d2e3908189528060205260408920838a5260205260ff60408a2054161561214f575b505061208d612b48565b156104525761209b90612ba0565b61016180546001600160a01b03199081166001600160a01b039384161790915561016280549091169282169290921790915561016380546001600160b81b031916929091169190911760843560a01b62ffffff60a01b1617905562030d4061015f55600a61016455610165805460ff191660011790556121185780f35b61ff001981541681557f7f26b83ff96e1f2b6a682f133852f6798a09c465da95921460cefb3847402498602060405160018152a180f35b8189526020526040882082895260205260408820600160ff198254161790558133916000805160206131ba8339815191528a80a48780612083565b8089528160205260408920838a5260205260408920600160ff198254161790558233916000805160206131ba8339815191528b80a488612041565b878052806020526040882082895260205260408820600160ff198254161790553382896000805160206131ba8339815191528180a4612001565b61ffff191661010117865586611f83565b60405162461bcd60e51b815260206004820152602e60248201527f496e697469616c697a61626c653a20636f6e747261637420697320616c72656160448201526d191e481a5b9a5d1a585b1a5e995960921b6064820152608490fd5b50303b158015611f6e5750600160ff821614611f6e565b50600160ff821610611f67565b82346102af5760203660031901126102af57600435815261016a60205260408120604051906122be826124d4565b8054825260018060a01b03918260018301541692602082019184835261230b8260028601541695604083019687526080600460038801549760608601988952015493019283523314612fb7565b51421115612362578085945116918215600014612352575050508180809251818115612349575b3390f11561233d5780f35b604051903d90823e3d90fd5b506108fc612332565b61044f94505116915191306130fc565b60405162461bcd60e51b8152602060048201526014602482015273111958591b1a5b99481b9bdd081c995858da195960621b6044820152606490fd5b82346102af5760203660031901126102af5760ff6040602092600435815261016c84522054166040519015158152f35b82346102af5760203660031901126102af576123e8612468565b6123f0612b48565b61016180546001600160a01b0319166001600160a01b0390921691909117905580f35b8390346103d65760203660031901126103d65760043563ffffffff60e01b81168091036102ab5760209250637965db0b60e01b8114908115612457575b5015158152f35b6301ffc9a760e01b14905083612450565b600435906001600160a01b038216820361247e57565b600080fd5b602435906001600160a01b038216820361247e57565b6020908160408183019282815285518094520193019160005b8281106124c0575050505090565b8351855293810193928101926001016124b2565b60a0810190811067ffffffffffffffff8211176124f057604052565b634e487b7160e01b600052604160045260246000fd5b610100810190811067ffffffffffffffff8211176124f057604052565b6020810190811067ffffffffffffffff8211176124f057604052565b6060810190811067ffffffffffffffff8211176124f057604052565b6040810190811067ffffffffffffffff8211176124f057604052565b6080810190811067ffffffffffffffff8211176124f057604052565b90601f8019910116810190811067ffffffffffffffff8211176124f057604052565b67ffffffffffffffff81116124f057601f01601f191660200190565b6101678054821015612608576000527f025f925b23c02f7114773957b1a876f2af957c14a29118dc622648c445020dcf0190600090565b634e487b7160e01b600052603260045260246000fd5b80548210156126085760005260206000200190600090565b3360009081527f75ef4a815c49ed748e152e890233829acb868956b95bda132b61406c3628008c602090815260408083205490927f189ab7a9244df0848122154315af71fe140f3db0fe014031783b0946b8c9d2e39160ff161561269a5750505050565b6126a333612e08565b918451906126b082612577565b6042825284820192606036853782511561283c576030845382516001908110156128285790607860218501536041915b8083116127ce5750505061278c57604861278893869361276c9361275d985198899376020b1b1b2b9b9a1b7b73a3937b61d1030b1b1b7bab73a1604d1b8a860152612734815180928c603789019101612a8a565b8401917001034b99036b4b9b9b4b733903937b6329607d1b603784015251809386840190612a8a565b01036028810187520185612593565b5192839262461bcd60e51b845260048401526024830190612aad565b0390fd5b60648486519062461bcd60e51b825280600483015260248201527f537472696e67733a20686578206c656e67746820696e73756666696369656e746044820152fd5b909192600f811660108110156128145761280d91906f181899199a1a9b1b9c1cb0b131b232b360811b901a6128038688612dd4565b5360041c93612de5565b91906126e0565b634e487b7160e01b84526032600452602484fd5b634e487b7160e01b82526032600452602482fd5b634e487b7160e01b81526032600452602490fd5b3360009081527f793844da0378ca0230b21a4013ef02cf55735b90b39c85241478ff94b5eceb28602090815260408083205490927f65d7a28e3265b37a6474929f336521b332c1681b933f6cb9f3376673440d862a9160ff16156128b45750505050565b6128bd33612e08565b918451906128ca82612577565b6042825284820192606036853782511561283c576030845382516001908110156128285790607860218501536041915b80831161294e5750505061278c57604861278893869361276c9361275d985198899376020b1b1b2b9b9a1b7b73a3937b61d1030b1b1b7bab73a1604d1b8a860152612734815180928c603789019101612a8a565b909192600f811660108110156128145761298391906f181899199a1a9b1b9c1cb0b131b232b360811b901a6128038688612dd4565b91906128fa565b60009080825260209060978252604092838120338252835260ff8482205416156129b45750505050565b6129bd33612e08565b918451906129ca82612577565b6042825284820192606036853782511561283c576030845382516001908110156128285790607860218501536041915b808311612a4e5750505061278c57604861278893869361276c9361275d985198899376020b1b1b2b9b9a1b7b73a3937b61d1030b1b1b7bab73a1604d1b8a860152612734815180928c603789019101612a8a565b909192600f8116601081101561281457612a8391906f181899199a1a9b1b9c1cb0b131b232b360811b901a6128038688612dd4565b91906129fa565b60005b838110612a9d5750506000910152565b8181015183820152602001612a8d565b90602091612ac681518092818552858086019101612a8a565b601f01601f1916010190565b906000918083526097602052604083209160018060a01b03169182845260205260ff604084205416612b0357505050565b8083526097602052604083208284526020526040832060ff1981541690557ff6391f5c32d9c69d2a47ea670b442974b53935d1edc7fd64eb21e047a839171b339380a4565b60c9546001600160a01b03163303612b5c57565b606460405162461bcd60e51b815260206004820152602060248201527f4f776e61626c653a2063616c6c6572206973206e6f7420746865206f776e65726044820152fd5b60c980546001600160a01b039283166001600160a01b0319821681179092559091167f8be0079c531659141344cd1fd0a4f28419497f9722a3daafe3b4186f6b6457e0600080a3565b15612bf057565b60405162461bcd60e51b815260206004820152602c60248201527f46756e6374696f6e206d7573742062652063616c6c6564207468726f7567682060448201526b19195b1959d85d1958d85b1b60a21b6064820152608490fd5b15612c5157565b60405162461bcd60e51b815260206004820152602c60248201527f46756e6374696f6e206d7573742062652063616c6c6564207468726f7567682060448201526b6163746976652070726f787960a01b6064820152608490fd5b803b15612ce0576000805160206131da83398151915280546001600160a01b0319166001600160a01b03909216919091179055565b60405162461bcd60e51b815260206004820152602d60248201527f455243313936373a206e657720696d706c656d656e746174696f6e206973206e60448201526c1bdd08184818dbdb9d1c9858dd609a1b6064820152608490fd5b91929015612d9d5750815115612d4f575090565b3b15612d585790565b60405162461bcd60e51b815260206004820152601d60248201527f416464726573733a2063616c6c20746f206e6f6e2d636f6e74726163740000006044820152606490fd5b825190915015612db05750805190602001fd5b60405162461bcd60e51b815260206004820152908190612788906024830190612aad565b908151811015612608570160200190565b8015612df2576000190190565b634e487b7160e01b600052601160045260246000fd5b60405190612e158261253f565b602a82526020820160403682378251156126085760309053815160019081101561260857607860218401536029905b808211612e98575050612e545790565b606460405162461bcd60e51b815260206004820152602060248201527f537472696e67733a20686578206c656e67746820696e73756666696369656e746044820152fd5b9091600f8116906010821015612edc57612ed6916f181899199a1a9b1b9c1cb0b131b232b360811b901a612ecc8587612dd4565b5360041c92612de5565b90612e44565b60246000634e487b7160e01b81526032600452fd5b15612ef857565b60405162461bcd60e51b815260206004820152602b60248201527f496e697469616c697a61626c653a20636f6e7472616374206973206e6f74206960448201526a6e697469616c697a696e6760a81b6064820152608490fd5b6101655460ff1615612f64576101645490565b6101645490565b15612f7257565b60405162461bcd60e51b815260206004820152601c60248201527f496e73756666696369656e7420746f6b656e20616c6c6f77616e6365000000006044820152606490fd5b15612fbe57565b60405162461bcd60e51b815260206004820152600c60248201526b24b73b30b634b2103ab9b2b960a11b6044820152606490fd5b15612ff957565b60405162461bcd60e51b815260206004820152601c60248201527f4c696d6974204f7264657220416c7265616479204578656375746564000000006044820152606490fd5b6000198114612df25760010190565b61016780549081156130795760001991820191613069836125d1565b909182549160031b1b1916905555565b634e487b7160e01b600052603160045260246000fd5b610168805490600160401b8210156124f05760018201808255821015612608576000527f8077777ae4769de06cbfd1c0b8b1f653b51ec156d91a9aca16a4102f19e03d9e0155565b8051156126085760200190565b9081602091031261247e5751801515810361247e5790565b6001600160a01b039290831630810361317d575082916000602094604493604051978896879563a9059cbb60e01b87521660048601526024850152165af18015613171576131475750565b6131679060203d811161316a575b61315f8183612593565b8101906130e4565b50565b503d613155565b6040513d6000823e3d90fd5b6000846064936020969760405198899788966323b872dd60e01b885260048801521660248601526044850152165af1801561317157613147575056fe2f8788117e7eff1d82e926ec794901d17c78024a50270940304540a733656f0d360894a13ba1a3210667c828492db98dca3e2076cc3735a920a3ca505d382bbca2646970667358221220363b6cfac716c2160d804dbe750ef4955218ef9e099385bca189a08bed3ae76164736f6c63430008130033",
  "linkReferences": {},
  "deployedLinkReferences": {}
}